:020000040800F2
:1000000048640020E9020008A54C00082D350008CE
:10001000174000083F060008316200080000000099
:10002000000000000000000000000000290200089D
:10003000C90600080000000085020008BB57000840
:100040000303000803030008030300080303000878
:100050000303000803030008030300080303000868
:100060000303000803030008030300080303000858
:100070000303000803030008030300080303000848
:100080000303000803030008030300080303000838
:10009000450600080303000803030008950900084B
:1000A00003030008A9580008995800080303000832
:1000B000B9580008C95800080303000803030008E2
:1000C00003030008030300080303000803030008F8
:1000D0000303000885600008030300080303000809
:1000E00003030008030300080303000803030008D8
:1000F00003030008030300080303000803030008C8
:1001000003030008030300080303000803030008B7
:10011000055C00080303000803030008030300084C
:100120000303000803030008030300080303000897
:100130000303000803030008030300080303000887
:100140005506000803030008030300080303000822
:100150000303000803030008030300080303000867
:100160000303000803030008030300080303000857
:100170000303000803030008030300080000000055
:10018000030300080303000800F002F800F03CF845
:100190000AA090E8000C82448344AAF10107DA45E2
:1001A00001D100F031F8AFF2090EBAE80F0013F0F8
:1001B000010F18BFFB1A43F001031847B8AF000046
:1001C000D8AF0000103A24BF78C878C1FAD85207D7
:1001D00024BF30C830C144BF04680C6070470000C1
:1001E0000023002400250026103A28BF78C1FBD840
:1001F000520728BF30C148BF0B6070471FB50AF0D7
:100200006CFE1FBD10B510BD00F0E4F91146FFF7FC
:10021000F5FF07F06FFE00F002FA03B4FFF7F2FFFC
:1002200003BC00F005FA00002C4B19680868B0E820
:10023000F04F80F30988BFF36F8F4FF0000080F319
:10024000118870470000000008480068006880F3CB
:1002500008884FF0000080F3148862B661B6BFF3DF
:100260004F8FBFF36F8F00DF00BF00BF08ED00E0CE
:10027000DFF80C00016841F470010160704700BFB5
:1002800088ED00E0EFF30980BFF36F8F134B1A681E
:100290001EF0100F08BF20ED108A20E9F04F10600B
:1002A00009B44FF0500080F31188BFF34F8FBFF3B4
:1002B0006F8F09F045F94FF0000080F3118809BCF9
:1002C00019680868B0E8F04F1EF0100F08BFB0ECD6
:1002D000108A80F30988BFF36F8F704724000020D5
:1002E000EFF3058070470000094880470948004740
:1002F000FEE7FEE7FEE7FEE7FEE7FEE7FEE7FEE7D6
:10030000FEE7FEE704480549054A064B7047000032
:100310008558000889010008485E002048640020D4
:10032000486000204860002053EA020C00F0698019
:100330002DE9F04B4FF00006002B1FBFB3FA83F5F9
:1003400003FA05F424FA05F65E4012BF1643B2FA2A
:1003500082F502FA05F4C5F120051EBF22FA05FC5C
:1003600044EA0C04203556EA044C4FEA144418BF02
:10037000641C4FF000084FF00009904271EB030C31
:1003800039D3002919BFB1FA81F701FA07F6B0FA9B
:1003900080F700FA07F6C7F120071EBF20FA07FC16
:1003A00046EA0C062037B6FBF4FCA7EB0507103F26
:1003B00007F01F0BCBF120060CFA0BFB2CFA06F60C
:1003C00044BFB3460026202FA4BF5E464FF0000B6B
:1003D0005BEA060C08BF4FF0010B19EB0B09ABFBF6
:1003E000027C48EB0608C01B06FB02CC0BFB03CCCF
:1003F00071EB0C01C1E70B46024641464846BDE899
:10040000F08B13B54FF000004FF00001AFF3008008
:10041000BDE81C407047032A40F2308010F0030C06
:1004200000F0158011F8013BBCF1020F624498BF47
:1004300011F801CB00F8013B38BF11F8013BA2F1E4
:10044000040298BF00F801CB38BF00F8013B11F05F
:10045000030300F06280083AC0F0088051F8043BC2
:10046000083A51F804CBA0E80810F5E7121D5CBF6C
:1004700051F8043B40F8043BAFF30080D20724BF9F
:1004800011F8013B11F801CB48BF11F8012B24BF33
:1004900000F8013B00F801CB48BF00F8012B704782
:1004A00002F0FF0343EA032242EA024200F069B885
:1004B0004FF0000200B5134694469646203922BFFD
:1004C000A0E80C50A0E80C50B1F12001BFF4F7AF48
:1004D000090728BFA0E80C5048BF0CC05DF804EB2A
:1004E000890028BF40F8042B08BF704748BF20F898
:1004F000022B11F0804F18BF00F8012B7047704796
:100500007047704710B500F05DF8006810BD10B579
:10051000044600F057F8046010BD10B5203AC0F052
:100520000B80B1E81850203AA0E81850B1E81850F4
:10053000A0E81850BFF4F5AF5FEA027C24BFB1E831
:100540001850A0E8185044BF18C918C0BDE81040A2
:100550005FEA827C24BF51F8043B40F8043B08BFAB
:100560007047D20728BF31F8023B48BF11F8012B72
:1005700028BF20F8023B48BF00F8012B70474FF01E
:1005800000020429C0F0128010F0030C3FF492AF77
:10059000CCF1040CBCF1020F18BF00F8012BA8BF6E
:1005A00020F8022BA1EB0C01FFF784BF5FEAC17CAE
:1005B00024BF00F8012B00F8012B48BF00F8012BE5
:1005C0007047000000487047E85D00200048704711
:1005D000E85D00207546FFF7F9FFAE460500694665
:1005E000534620F00700854618B020B5FFF78AFE75
:1005F000BDE820404FF000064FF000074FF0000824
:100600004FF0000B21F00701AC46ACE8C009ACE8A4
:10061000C009ACE8C009ACE8C0098D46704710B508
:100620000446AFF300802046BDE81040FFF7F5BD5B
:1006300001491820ABBEFEE726000200704700BF4C
:10064000FEE7000010B5024800F016FD10BD0000E6
:100650001001002010B5024800F00EFD10BD000092
:100660003801002000BF1548007805280DD1B0EEF4
:10067000000A134880ED0A0AB0EE000A80ED090A6C
:10068000B0EE000A80ED0B0A10E00C480078062856
:100690000CD1B6EE000A0A4880ED0A0AB6EE000A4E
:1006A00080ED090A9FED070A80ED0B0A00F084F93E
:1006B00004F09EFD012007F053FCD4E7E500002084
:1006C000DC4C00209A99193F7047000010B5A948EA
:1006D000807898BB0020A749C870A749D1ED050ACA
:1006E000B0EE600A086804F0DFFAA449D1ED050A0B
:1006F000B0EE600A086804F0D7FA00220821A0488A
:1007000001F0CCF9002210219D4801F0C7F99A4967
:10071000886841F27C519FED9B0A02F009FF9749DE
:10072000886841F27C519FED970A02F001FF9148E1
:100730004078012801D18F49887019E1FFE78D4881
:10074000407801282DD18C49D1ED040AB0EE600A21
:10075000086804F0A9FA8949D1ED040AB0EE600AEC
:10076000086804F0A1FA00220821854801F096F9F2
:1007700000221021824801F091F97F49886841F2F6
:100780007C519FED800A02F0D3FE7C49886841F2DB
:100790007C519FED7C0A02F0CBFE00207549087168
:1007A000E6E0744840780028C7D17248007938B92B
:1007B0007048C088401C00B26E49C8800120087192
:1007C000012210216E4801F069F9012208216C48CC
:1007D00001F064F96849D1ED070AB0EE600A886853
:1007E00004F062FA00216448806881656349D1EDB4
:1007F000070AB0EE600A886804F056FA00215F48E4
:10080000806881655D48806890ED180A5B48D0ED8E
:10081000070AB0EE001A70EEC10AB4EEE00AF1EE7B
:1008200010FA16DB806890ED180A5448D0ED070ADC
:10083000B0EE001A70EE810AB4EEE00AF1EE10FAA2
:1008400007D80146D1ED050AB0EE600A086804F049
:100850002BFA4948806890ED180A4748D0ED070AFE
:10086000B0EE001A70EEC10AB4EEE00AF1EE10FA32
:1008700016DB806890ED180A3F48D0ED070AB0EE0D
:10088000001A70EE810AB4EEE00AF1EE10FA07D811
:100890000146D1ED050AB0EE600A086804F004FADA
:1008A00036480068C08800EE100AB8EE400A3348A7
:1008B000D0ED050A9FED341A70EEC10AB4EEE00ADD
:1008C000F1EE10FA20DB0068C08800EE100AB8EEE6
:1008D000400A2A48D0ED050A9FED2C1A70EE810AD5
:1008E000B4EEE00AF1EE10FA0ED82249C9887A2255
:1008F00011FB02F100EE901AF8EEE00AB0EE600A89
:100900000146486804F0D0F91B480068C08800EE32
:10091000100AB8EE400A1848D0ED050A9FED1C1ADF
:1009200070EEC10AB4EEE00AF1EE10FA20DB0068C6
:10093000C08800EE100AB8EE400A0F48D0ED050A54
:100940009FED131A70EE810AB4EEE00AF1EE10FA90
:100950000ED80849C9887A2211FB02F100EE901ADC
:10096000F8EEE00AB0EE600A0146486804F09CF92F
:1009700010BD0000EC000020705D0020505D0020E4
:10098000001802400000484300001644000096434F
:1009900000007A4410B5802000F078FF10BD72B6D8
:1009A00000BFFEE700BF08F0A3FA03F037FB012009
:1009B00007F0D6FAF7E700005E480088A0F2DC50A6
:1009C000002804DD5B480088A0F2DC5004E05948B0
:1009D000008840F2DC51081A0A2815DD55480088C5
:1009E00000EE100AB8EE400ADFED530A30EE600A5E
:1009F0009FED521AC0EE010A514890ED0A0A20EE0E
:100A0000800A80ED000A16E04A480088A0F2DC5017
:100A1000002804DD47480088A0F2DC5004E0454887
:100A2000008840F2DC51081A0A2804DC9FED450AD0
:100A3000434880ED000A3F484088A0F2DC5000287F
:100A400004DD3C484088A0F2DC5004E0394840888E
:100A500040F2DC51081A0A2815DD3648408800EEBD
:100A6000100AB8EE400ADFED340A30EE600A9FED5E
:100A7000331AC0EE010A324890ED090A20EE800ACE
:100A800080ED010A16E02B484088A0F2DC500028D7
:100A900004DD28484088A0F2DC5004E02548408866
:100AA00040F2DC51081A0A2804DC9FED260A24488B
:100AB00080ED010A1F48C088A0F2DC50002804DD48
:100AC0001C48C088A0F2DC5004E01A48C08840F2FC
:100AD000DC51081A0A2815DD1648C08800EE100AF5
:100AE000B8EE400ADFED140A30EE600A9FED131AEB
:100AF000C0EE010A124890ED0B0A20EE800A80ED4C
:100B0000020A16E00B48C088A0F2DC50002804DD81
:100B10000848C088A0F2DC5004E00648C08840F2D3
:100B2000DC51081A0A2804DC9FED060A044880ED0F
:100B3000020A7047C84C00200080BB440000FA4302
:100B4000DC4C00200000000010B52DED028B384871
:100B5000B0F9000000EE100AB8EEC00A3548D0ED3A
:100B6000030A70EE600A3248B0F9020000EE100A83
:100B7000B8EEC00A2F4890ED041A30EE410A80EE1C
:100B8000801A2B4880ED021A90ED020A10EE101A1E
:100B900008460AF031F941EC180BB0EE480AF0EEC5
:100BA000680A05F075FE224880ED040B90ED041BE9
:100BB000B0EE410AF0EE610A9FED1F1B53EC112BC2
:100BC00051EC100B09F058FE41EC180B9FED1C0B7B
:100BD00053EC102B09F09EFC154AC2E904019FED6D
:100BE0001A0A104680ED060A184890ED6C0A104665
:100BF000D0ED060A80EE201A80ED071A90ED041B56
:100C0000B0EE410AF0EE610A51EC100B09F0DAFD8A
:100C100000B20F490880074890ED050ABDEEC00AF2
:100C200010EE100A00B20B490880BDEC028B10BD1B
:100C3000905D0020DC4C0020000000000080664039
:100C40001F85EB51B81E09406227F63F3050002047
:100C5000F4000020F600002010B5024692F8203083
:100C6000012B01D0022B06D110684069084314689B
:100C70006061002010BD506A40F480205062012065
:100C8000F8E7F0B504460D461E4694F8207020683B
:100C90008368A86800B900E000BF012F01D0022FCF
:100CA0007CD103F0806030B903F0006018B903F024
:100CB0008050002873D0C3F30161022905D9606A0E
:100CC00040F4000060620120F0BD012088403060E7
:100CD000A86860B9B5F800C0E86840EA4C5C2068D4
:100CE00000F5C07000EB0110C0F800C00FE0D5E9BE
:100CF00001C040EACC00D5F80CC040EA0C00D4F8A2
:100D000000C00CF5C07C0CEB011CCCF80000D5F841
:100D100010C0206800F5C07000EB0110C0F804C0DE
:100D2000287D01280ED1206800F5C07000EB01106D
:100D3000406840F4807C206800F5C07000EB011032
:100D4000C0F804C0D079000692F806C040EA0C4012
:100D500092F805C040EA0C2C10794CEA000C20688F
:100D600000F5C07000EB0110C0F80CC0D078000690
:100D700092F802C040EA0C4092F801C040EA0C2010
:100D800092F800C040EA0C00D4F800C00CF5C07C1A
:100D90000CEB011CCCF80800206801E016E00FE025
:100DA00000F5C07000EB0110006840F0010C2068F5
:100DB00000F5C07000EB0110C0F800C0002083E710
:100DC000606A40F40010606201207DE7606A40F4D0
:100DD00080206062012077E7F0B504460A4621686A
:100DE00094F82050012D01D0022D7ED1424901F509
:100DF0000071086840F001000860086820F47C5029
:100E000008600868566A40EA06200860107D00F015
:100E10001F06012000FA06F3C8699843C861A1F5CE
:100E20000071D069C8B9D1F80C029843C1F80C021E
:100E3000908880B2968940EA064601F5107057699D
:100E400040F83760108880B2168940EA064601F5FE
:100E50001070576900EBC7004660D069012819D1AE
:100E6000D1F80C021843C1F80C02908880B21688A1
:100E700040EA064601F51070576940F837609089DE
:100E800080B2168940EA064601F51070576900EBFA
:100E9000C7004660906928B9D1F804029843C1F8A8
:100EA000040204E0D1F804021843C1F804021069F6
:100EB00028B9D1F814029843C1F8140204E0D1F81B
:100EC00014021843C1F81402106A012804D1D1F8A1
:100ED0001C021843C1F81C02D1F8000220F00100E6
:100EE000C1F800020020F0BDFFE7606A40F48020F6
:100EF00060620120F7E7000000640040704770B5B1
:100F0000044694F82050012D01D0022D7DD151B915
:100F10002068C06800F0030080B9606A40F40010E7
:100F20006062012070BD2068006900F0030028B9EC
:100F3000606A40F4001060620120F3E7206800F569
:100F4000D87000EB0110006800F004009060906819
:100F500040B9206800F5D87000EB01100068400D22
:100F6000106007E0206800F5D87000EB0110006801
:100F7000C0085060206800F5D87000EB01100068D0
:100F800000F00200D060206800F5D87000EB01107E
:100F9000406800F00F001061206800F5D87000EB89
:100FA0000110406800F47F40000A9061206800F55D
:100FB000D87000EB01104068000C5061206800F50B
:100FC000D87000EB011080681870206800F5D870A8
:100FD00000EB0110806800F47F40000A5870206820
:100FE00000F5D87000EB0110806800F47F00000C61
:100FF0009870206800F5D87000EB01108068000E32
:10100000D870206800F5D87000E02FE000EB0110E8
:10101000C0681871206800F5D87000EB0110C06836
:1010200000F47F40000A5871206800F5D87000EB8A
:101030000110C06800F47F00000C9871206800F572
:10104000D87000EB0110C068000ED87131B920686B
:10105000C06840F020002668F06005E02068006964
:1010600040F020002668306100205BE7606A40F4B1
:1010700080206062012055E72DE9F05F04460025DD
:10108000206846692068D0F8049020688768206846
:10109000D0F80CA02068D0F810B02068D0F81880E4
:1010A00006F00100002855D007F00100C0B1012072
:1010B0002168886007F0020018B1204600F0E5FAC8
:1010C0000EE007F0040010B145F4006508E007F0F9
:1010D000080010B145F4805502E0204600F0D4FA33
:1010E00007F48070C8B14FF480702168886007F4FD
:1010F000007018B1204600F0CAFA0EE007F48060D4
:1011000010B145F4005508E007F4006010B145F453
:10111000804502E0204600F0B9FA07F48030C8B1FB
:101120004FF480302168886007F4003018B1204601
:1011300000F0AFFA0EE007F4802010B145F400454E
:1011400008E007F4002010B145F4803502E02046A5
:1011500000F09EFA06F0080038B10AF0100020B145
:1011600045F4007510202168C86006F0040040B105
:101170000AF0080028B108202168C860204600F065
:101180000FFA06F0020038B12068C06800F00300D2
:1011900010B1204600F006FA06F0400038B10BF01E
:1011A000100020B145F4806510202168086106F028
:1011B000200040B10BF0080028B108202168086128
:1011C000204600F02FFA06F0100038B120680069C0
:1011D00000F0030010B1204600F025FA06F40030BC
:1011E00040B109F0100028B1102021684860204665
:1011F00000F01AFA06F4803040B109F0080028B176
:10120000082021684860204600F044FA06F40040B7
:1012100088B309F0040078B306F4807020B108F0B8
:10122000010008B145F0010506F4007020B108F096
:10123000020008B145F0020506F4806020B108F014
:10124000040008B145F0040506F40060A0B108F000
:10125000700088B108F07000402817D006DC102814
:101260000BD020280CD0302819D10CE0502810D0F9
:10127000602814D110E01DE019E045F008050FE0EA
:1012800045F010050CE045F0200509E045F040056B
:1012900006E045F0800503E045F4807500E000BFFE
:1012A00000BF2068806920F07000216888610420F8
:1012B000216848602DB1606A284360622046FFF7CC
:1012C0001DFEBDE8F09F70B504460CB9012070BD4D
:1012D00094F8200010B9204600F0B0F820680068AB
:1012E00040F001002168086000F0DEFB05460DE0DB
:1012F00000F0DAFB401B0A2808D9606A40F400308D
:101300006062052084F820000120E0E72068406842
:1013100000F001000028EBD02068006820F00200F7
:101320002168086000F0C0FB05460DE000F0BCFB42
:10133000401B0A2808D9606A40F40030606205202A
:1013400084F820000120C2E72068406800F0020015
:101350000028EBD1207E012806D12068006840F0EB
:1013600080002168086005E02068006820F08000A7
:1013700021680860607E012806D12068006840F07E
:1013800040002168086005E02068006820F0400007
:1013900021680860A07E012806D12068006840F01E
:1013A00020002168086005E02068006820F0200027
:1013B00021680860E07E012806D12068006820F0DE
:1013C00010002168086005E02068006840F0100007
:1013D00021680860207F012806D12068006840F05D
:1013E00008002168086005E02068006820F0080017
:1013F00021680860607F012806D12068006840F0FD
:1014000004002168086005E02068006820F00400FE
:1014100021680860D4E90201084321690843616931
:1014200008436168491E08432168C8610020606262
:10143000012084F82000002049E7000010B586B0A4
:101440000446142101A8FFF733F84F492068884269
:1014500042D14E480068401C4C490860084600686C
:1014600001280FD100BF002000904948006840F0DB
:101470000070474908600846006800F0007000905E
:1014800000BF00BF00BF0020009041481038006836
:1014900040F001003E49103908600846006800F03D
:1014A0000100009000BF00BF4FF4C0500190022027
:1014B000029000200390032004900920059001A9C8
:1014C000344800F0F1F900220521142000F0B0FBAF
:1014D000142000F09DFB55E02F492068884251D12F
:1014E00000BF002000902A48006840F08060284932
:1014F00008600846006800F08060009000BF00BFF0
:1015000022480068401C21490860084600680128FC
:101510000FD100BF002000901D48006840F000700F
:101520001B4908600846006800F00070009000BF8A
:1015300000BF00BF0020009015481038006840F040
:1015400002001349103908600846006800F00200E4
:10155000009000BF00BF4FF4405001900220029065
:1015600000200390032004900920059001A90B4856
:1015700000F09AF900220521402000F059FB40209C
:1015800000F046FB06B010BD0064004010000020D3
:101590004038024000000240006800400004024061
:1015A0007047000030B58BB004461A48844215D10C
:1015B00002AB04AA0021FFF7A2FC164A02A904A864
:1015C00006F01EFB002507E0C5EBC501124A02EB41
:1015D000011003F0CDFC6D1C072DF5DB0F48844294
:1015E00015D16B4604AA0021FFF789FC0B4A694616
:1015F00004A806F005FB002507E0C5EBC501084A75
:1016000002EB011003F0B4FC6D1C072DF5DB0BB0F1
:1016100030BD000010010020204D002038010020C6
:101620003050002070477047704770B5044694F8FA
:101630002000012822D1022084F8200020680068C0
:1016400020F001002168086000F02EFA05460DE048
:1016500000F02AFA401B0A2808D9606A40F40030DA
:101660006062052084F82000012070BD2068406879
:1016700000F001000028EBD16062F6E7606A40F4F8
:10168000002060620120F0E77047704770477047A4
:1016900070477047704770B50446A56D00F004FAB6
:1016A000064694F83500022808D08020606500BF07
:1016B000002084F8340000BF012070BD206800685D
:1016C00020F01600216808602068406920F0800042
:1016D00021684861206C08B9A06C28B120680068B6
:1016E00020F00800216808602068006820F00100F0
:1016F0002168086010E000F0D7F9801B05280BD99D
:1017000020206065032084F8350000BF002084F8A5
:10171000340000BF0320D0E72068006800F001001B
:101720000028E8D194F85C103F208840A860012090
:1017300084F8350000BF002084F8340000BF00BFEB
:10174000BBE7014691F83500022803D080204865A8
:1017500001207047052081F835000868006820F0F6
:1017600001000A6810600020F3E7000070B504462D
:1017700000F09AF906462546681C10B10448007826
:10178000054400BF00F090F9801BA842FAD370BD59
:101790001C00002010B50446802C16D1314800688A
:1017A00031490860E005406A3049096842F2107228
:1017B00002FB01002B4908602D4908602948008878
:1017C00029490988401A2B4908802B4800780128AC
:1017D00039D12848008840F69801884209DB012069
:1017E0002549087000202549087001202449087007
:1017F00037E02048008840F2B63188421FDB1D48A0
:10180000008840F60201884219DC1A4801881B480A
:1018100002780078401C194B18701A4820F81210F2
:101820001846007808281CDB184600784200154945
:101830001548FEF7F0FD00201049087011E0002067
:101840000D4908700DE00B48008840F69801884269
:1018500007DB012008490870002008490870084982
:10186000087010BDDC000020D8000020C00000205F
:10187000D4000020E2000020E0000020E100002071
:10188000D2000020B44C0020C84C002010B5044603
:1018900004480068204020B1024804602046FFF759
:1018A00079FF10BD143C0140F8B502460B460025F7
:1018B000002400200021D6E0012606FA01F51E686A
:1018C00006EA0504AC4274D11E7906F00306012E27
:1018D00004D01E7906F00306022E13D190684F0043
:1018E0000326BE40B0434F00DE68BE4030439060E8
:1018F000506801268E40B0431E79C6F300168E4014
:10190000304350601E7906F00306032E09D0D068DC
:101910004F000326BE40B0434F009E68BE40304398
:10192000D0601E7906F00306022E13D1CF0802F113
:10193000200656F827004E07F70E0F26BE40B0438C
:101940004F07FF0E1E69BE403043CF0802F120064C
:1019500046F8270010684F000326BE40B0431E79AA
:1019600006F003064F00BE40304310605E6806F488
:101970004036002E76D000BF002600963C4E3668DA
:1019800046F480463A4F3E603E46366806F480464E
:10199000009600BF00BF374E8F0856F827008E070D
:1019A000370F0F26BE40B043334EB24202D100265D
:1019B00024E057E0314EB24201D101261EE0304E04
:1019C000B24201D1022619E02E4EB24201D10326C5
:1019D00014E02D4EB24201D104260FE02B4EB2424C
:1019E00001D105260AE02A4EB24201D1062605E0C1
:1019F000284EB24201D1072600E008268F073F0F8C
:101A0000BE4030431B4E8F0846F82700224E3068F8
:101A1000A0435E6806F4801606B120431E4E306077
:101A2000361D3068A0435E6806F4001606B12043F8
:101A3000194E361D3060184E361F3068A0435E6860
:101A400006F4003606B12043134E361F3060361FB1
:101A50003068A0435E6806F4803606B120430E4E1F
:101A6000083E3060491C1029FFF426AFF8BD000085
:101A7000443802400838014000000240000402409F
:101A800000080240000C0240001002400014024016
:101A900000180240001C0240083C01400AB181616C
:101AA00001E00B0483617047014800687047000043
:101AB00014000020034800680349097808440149DC
:101AC00008607047140000201C00002010B50D486D
:101AD000006840F400700B4908600846006840F454
:101AE000806008600846006840F480700860032049
:101AF00000F0DCF80F2000F007F800F05FF800209D
:101B000010BD0000003C02402DE9F04188B00446C1
:101B10000027B84600BF002001902348006840F02D
:101B20000200214908600846006800F002000190A8
:101B300000BF00BF02A903A800F08EF9069F1FB9DD
:101B400000F0B2F9054602E000F0AEF94500174892
:101B5000B5FBF0F0A0F1010815481649086040F205
:101B6000E7311448C160C0F8048000210161816040
:101B7000816100F0BBFC064696B90E4800F07AFD84
:101B800006466EB91D2000F043F8102C07D2002243
:101B900021461D2000F04CF80748046000E00126B3
:101BA000304608B0BDE8F0814038024040420F00A6
:101BB00000040040500300201800002008B500BFBA
:101BC000002000901148006840F480400F490860F0
:101BD0000846006800F48040009000BF00BF00BFCE
:101BE00000200090081F006840F08050091F086026
:101BF0000846006800F08050009000BF00BF00223F
:101C00000F21901E00F014F808BD00004438024077
:101C100001460846002809DB00F01F0301229A4014
:101C200043099B0003F1E023C3F8002100BF704784
:101C30002DE9F05F80460D461646002704F008FEA9
:101C4000074639462A46334601F00700C0F1070A25
:101C5000BAF1040F02D94FF0040A01E0C0F1070AFB
:101C6000D14600F1040ABAF1070F02D24FF0000A80
:101C700001E0A0F1030AD4464FF0010A0AFA09FA7A
:101C8000AAF1010A0AEA020A0AFA0CFA4FF0010B59
:101C90000BFA0CFBABF1010B0BEA030B4AEA0B044A
:101CA0002146404604F0DCFDBDE8F09F00BF00F097
:101CB0000702064B19684FF6FF031940044B0B430C
:101CC00043EA0221014B196000BF70470CED00E0B0
:101CD0000000FA0570B504460D460CB9012070BD30
:101CE0005848006800F00700A84209D255490D7015
:101CF0000846006800F00700A84201D00120EEE786
:101D0000207800F0020002281DD1207800F00400A5
:101D1000042805D14C48006840F4E0504A49086066
:101D2000207800F00800082805D14748006840F4F2
:101D30006040454908604448006820F0F000A16810
:101D4000084341490860207800F00100A8B36068AA
:101D5000012807D13C4808380068C0F34040B8B9B2
:101D60000120BCE76068022802D06068032807D120
:101D7000354808380068C0F3406048B90120AEE734
:101D8000314808380068C0F3400008B90120A6E7D0
:101D90002D48006820F00300616808432A49086064
:101DA000FFF782FE064609E0FFF77EFE801B41F248
:101DB0008831884202D9032091E707E02248006871
:101DC00000F00C006168B0EB810FEDD11D48006898
:101DD00000F00700A84209D91A490D7008460068AA
:101DE00000F00700A84201D0012078E7207800F039
:101DF0000400042807D11448006820F4E050E1688A
:101E0000084311490860207800F00800082808D12C
:101E10000D48006820F46040216940EAC1000A4989
:101E2000086000F061F808490968C1F30311074A26
:101E3000515CC8400649086006480068FFF764FE28
:101E400000204CE7003C02400838024080AF000808
:101E500020000020180000200F2202600D4A1268A6
:101E600002F0030242600B4A126802F0F002826044
:101E7000084A126802F4E052C260064A126802F48C
:101E80006042D2080261044A126802F007020A6046
:101E90007047000008380240003C024001480068DA
:101EA000704700002000002000B5FFF7F7FF04494D
:101EB0000968C1F38221034A515CC84000BD00009B
:101EC0000838024090AF000800B5FFF7E7FF04496B
:101ED0000968C1F34231034A515CC84000BD0000AB
:101EE0000838024090AF00082DE9F0470024002593
:101EF0000026A1462548006800F00C0020B1042807
:101F000005D008283AD105E0DFF8849039E0DFF801
:101F1000849036E01D48001F006800F03F041B4815
:101F2000001F006800F4800078B11A481749091FA3
:101F30000968C1F38811A0FB017001462246002305
:101F40003846FEF7F1F905460EE011480F49091F22
:101F50000968C1F38811A0FB0170014622460023E5
:101F60003846FEF7E1F905460848001F0068C0F34F
:101F70000140401C4600B5FBF6F902E0DFF8109086
:101F800000BF00BF4846BDE8F087000008380240A7
:101F90000024F40000127A00F8B504460CB90120C0
:101FA000F8BD207800F00100002874D0F9480068DE
:101FB00000F00C0004280DD0F648006800F00C007A
:101FC000082813D1F348001F006800F48000B0F522
:101FD000800F0BD1EF4808380068C0F3404000285C
:101FE00059D06068002856D10120D9E700BF606849
:101FF000B0F5803F08D1E7480838006840F48030E9
:10200000E449083908601EE06068B0F5A02F0DD1E2
:10201000E0480838006840F48020DE49083908604C
:102020000846006840F4803008600CE0D948083861
:10203000006820F48030D7490839086008460068F5
:1020400020F48020086000BF606890B1FFF72CFD8D
:10205000054606E0FFF728FD401B642801D9032050
:102060009EE7CC4808380068C0F340400028F1D013
:1020700011E0FFF719FD054606E0FFF715FD401BCF
:10208000642801D903208BE7C24808380068C0F3F0
:1020900040400028F1D1207800F0020002285FD1F2
:1020A000BC48006800F00C0058B1BA48006800F065
:1020B0000C0008281CD1B748001F006800F48000FD
:1020C000B0B9B44808380068C0F3400020B1E068F7
:1020D000012801D0012063E7AE480838006820F0ED
:1020E000F800216940EAC100AA490839086037E0D0
:1020F000E06800B30120A8490860FFF7D5FC054659
:1021000006E0FFF7D1FC401B022801D9032047E776
:10211000A04808380068C0F340000028F1D09D486E
:102120000838006820F0F800216940EAC1009949A8
:102130000839086014E0002097490860FFF7B4FCF4
:10214000054606E0FFF7B0FC401B022801D903203A
:1021500026E7904808380068C0F340000028F1D115
:10216000207800F0080008282CD16069A8B101206F
:102170008A490860FFF798FC054606E0FFF794FCE3
:10218000401B022801D903200AE782486C3000680E
:10219000C0F340000028F1D014E000207F4908601F
:1021A000FFF782FC054606E0FFF77EFC401B022895
:1021B00001D90320F4E677486C300068C0F3400092
:1021C0000028F1D1207800F00400042870D1002705
:1021D00070483830006800F0805090B900BF00208F
:1021E00000906C483830006840F0805069493831C0
:1021F00008600846006800F08050009000BF00BFF3
:1022000001276748006800F48070B0B9644800682E
:1022100040F4807062490860FFF746FC054606E01E
:10222000FFF742FC401B022801D90320B8E65C48B6
:10223000006800F480700028F2D000BFA068012878
:1022400008D154486830006840F0010051496831B5
:1022500008601DE0A06805280DD14E486830006870
:1022600040F004004B49683108600846006840F0BF
:10227000010008600CE047486830006820F0010069
:102280004449683108600846006820F0040008608E
:1022900000BFA068A8B1FFF707FC054609E0FFF7FB
:1022A00003FC401B41F28831884202D9032077E6C3
:1022B00026E0384868300068C0F340000028EED0BF
:1022C00013E0FFF7F1FB054608E0FFF7EDFB401BCD
:1022D00041F28831884201D9032061E62D486830F7
:1022E0000068C0F340000028EFD1012F07D1294832
:1022F0003830006820F0805026493831086000BF2F
:10230000A069002845D02348006800F00C00082888
:102310005DD0A069022845D100201F490866FFF75B
:10232000C3FB054606E0FFF7BFFB401B022801D9AF
:10233000032035E6174808380068C0F340600028DD
:10234000F1D1D4E907010843616A40EA8111012211
:10235000A06AC2EB500041EA00412C20005D41EA36
:1023600000600C49091F086001200B490866FFF74F
:102370009BFB054606E0FFF797FB401B022801D9AF
:1023800003200DE6034808380068C0F340600028C9
:10239000F1D049E00838024000004742800E474231
:1023A00000700040002021490866FFF77DFB0546CC
:1023B00006E0FFF779FB401B022801D90320EFE577
:1023C0001B480068C0F340600028F2D12CE0A069EF
:1023D000012800D1E4E51648001D0668A06901281F
:1023E00020D006F48001E06981421BD106F03F0154
:1023F000206A814216D147F6C0703040616AB0EB66
:10240000811F0FD106F440310122A06AC2EB5000B7
:10241000B1EB004F06D106F070612C20005DB1EBEE
:10242000006F01D00120BBE50020B9E50000474264
:10243000003802407047704730B502460B4600BF77
:1024400092F83C00012801D1022030BD012082F821
:102450003C0000BF022082F83D001068446810680C
:10246000816824F070041868044310684460184DB3
:102470001068A8421BD01068B0F1804F17D0154DDE
:102480001068A84213D0144D1068A8420FD0134D05
:102490001068A8420BD0124D1068A84207D0114D09
:1024A0001068A84203D0104D1068A84205D121F051
:1024B00080015868014310688160012082F83D0066
:1024C00000BF002082F83C0000BF00BFBDE7000055
:1024D000000001400004004000080040000C0040E3
:1024E00000040140004001400018004010B50446BF
:1024F0000CB9012010BD94F83D0028B9002084F8E3
:102500003C00204600F026F8022084F83D00211D02
:10251000206803F0E1F9012084F8460000BF84F848
:102520003E0001213F200155402001554120015529
:1025300000BF00BF012084F8420043200155442021
:1025400001554520015500BF012084F83D000020C1
:10255000D0E7000038B504462068B0F1804F18D1AC
:1025600000BF002000903E48006840F001003C4958
:1025700008600846006800F00100009000BF00BF3E
:10258000002205211C20FFF753FB1C20FFF740FB16
:1025900065E03449206888421AD100BF00200090CD
:1025A0002F48001D006840F400302D49091D0860C7
:1025B0000846006800F40030009000BF00BF002211
:1025C00005211920FFF734FB1920FFF721FB46E016
:1025D0002549206888421AD100BF00200090204879
:1025E000001D006840F480201D49091D0860084650
:1025F000006800F48020009000BF00BF0022052189
:102600001A20FFF715FB1A20FFF702FB27E01749F6
:10261000206888420FD100BF002000901048006859
:1026200040F080000E4908600846006800F0800015
:10263000009000BF13E00E49206888420FD100BF10
:10264000002000900648006840F48070044908604B
:102650000846006800F48070009000BF00BF38BDDD
:10266000403802400044014000480140001C004046
:1026700000200040014691F83D00012801D00120D2
:102680007047022081F83D000868C06840F00100F2
:102690000B68D8601A4B086898421BD00868B0F1E4
:1026A000804F17D0174B0868984213D0164B086814
:1026B00098420FD0154B086898420BD0144B08680D
:1026C000984207D0134B0868984203D0124B086811
:1026D00098420CD10868806800F00702062A0CD0E6
:1026E0000868006840F001000B68186005E00868A1
:1026F000006840F001000B6818600020C0E700008F
:10270000000001400004004000080040000C0040B0
:102710000004014000400140001800402DE9F04154
:1027200004460D46002700BF94F83C00012802D162
:102730000220BDE8F081012084F83C0000BF0220A7
:1027400084F83D002068866826F0770626F47F46E8
:10275000206886602868502833D00CDC202850D0B0
:1027600004DC00284BD0102851D149E0302849D052
:1027700040284CD139E060282DD0702807D0B0F522
:10278000805F03D0B0F5005F41D10DE041E0D5E9B5
:1027900002136A68206803F01CF92068866846F016
:1027A00077062068866034E0D5E902136A682068FD
:1027B00003F00FF92068806840F480402168886049
:1027C00027E0EA686968206803F0F4F9502120687E
:1027D00003F00AF91DE0EA686968206803F0FDF972
:1027E0006021206803F000F913E0EA686968206856
:1027F00003F0E0F94021206803F0F6F809E000BF9B
:1028000000BF00BF2968206803F0EEF801E001274F
:1028100000BF00BF012084F83D0000BF002084F805
:102820003C0000BF384684E7704710B50446206876
:102830000069C0F34000D8B12068C068C0F3400010
:10284000B0B16FF002002168086101202077206894
:10285000806900F0030018B12046FFF7E5FF05E0AE
:10286000204600F049F9204600F0FEF900202077CC
:1028700020680069C0F38000D8B12068C068C0F348
:102880008000B0B16FF00400216808610220207759
:102890002068806900F4407018B12046FFF7C4FF3B
:1028A00005E0204600F028F9204600F0DDF9002080
:1028B000207720680069C0F3C000D8B12068C068E4
:1028C000C0F3C000B0B16FF00800216808610420B7
:1028D00020772068C06900F0030018B12046FFF798
:1028E000A3FF05E0204600F007F9204600F0BCF900
:1028F0000020207720680069C0F30010D8B120685C
:10290000C068C0F30010B0B16FF01000216808611A
:10291000082020772068C06900F4407018B1204674
:10292000FFF782FF05E0204600F0E6F8204600F0C1
:102930009BF9002020772068006900F0010058B161
:102940002068C06800F0010030B16FF0010021681C
:102950000861204600F022FB20680069C0F3C01027
:1029600058B12068C068C0F3C01030B16FF080006B
:10297000216808612046FFF75DFD20680069C0F30B
:10298000801058B12068C068C0F3801030B16FF07B
:10299000400021680861204600F048FB206800697B
:1029A000C0F3401058B12068C068C0F3401030B187
:1029B0006FF02000216808612046FFF73CFD10BD44
:1029C00010B586B00446142101A8FDF771FD4349F6
:1029D000206888421CD100BF002000904048006859
:1029E00040F002003E4908600846006800F002001E
:1029F000009000BF00BF8815019002200290039054
:102A000004900320059001A93648FEF74DFF63E0CE
:102A10003549206888421CD100BF00200090304812
:102A2000006840F002002E4908600846006800F087
:102A30000200009000BF00BF4815019002200290E4
:102A4000039004900320059001A92648FEF72CFF6F
:102A500042E02649206888421DD100BF0020009036
:102A60001F48006840F020001D49086008460068C3
:102A700000F02000009000BF00BF881501900220E8
:102A800002900020039004900920059001A91848A5
:102A9000FEF70AFF20E01749206888421CD100BFDA
:102AA000002000900E48006840F020000C490860AB
:102AB0000846006800F02000009000BF00BF4815E5
:102AC00001900220029000200390049009200590BC
:102AD00001A90748FEF7E8FE06B010BD004401401A
:102AE000303802400004024000480140001C004011
:102AF000001402400020004070472DE9F0410446D8
:102B00000D461646002700BF94F83C00012802D16C
:102B10000220BDE8F081012084F83C0000BF36B1FE
:102B2000042E1BD0082E31D00C2E5ED145E0294654
:102B3000206802F063FF2068806940F00800216887
:102B400088612068806920F004002168886120681D
:102B50008069296908432168886148E0294620681E
:102B600002F084FF2068806940F400602168886179
:102B70002068806920F4806021688861206880690D
:102B8000296940EA01202168886130E029462068EF
:102B900002F0AAFF2068C06940F008002168C861FF
:102BA0002068C06920F004002168C8612068C069FD
:102BB000296908432168C86119E02946206802F0A4
:102BC000CFFF2068C06940F400602168C8612068B8
:102BD000C06920F480602168C8612068C0692969E3
:102BE00040EA01202168C86101E0012700BF00BF61
:102BF00000BF002084F83C0000BF384689E710B5CC
:102C000004460CB9012010BD94F83D0028B90020FD
:102C100084F83C00204600F025F8022084F83D00AE
:102C2000211D206802F058FE012084F8460000BFF4
:102C300084F83E0001213F200155402001554120EC
:102C4000015500BF00BF012084F842004320015518
:102C5000442001554520015500BF012084F83D0066
:102C60000020D0E77047000010B5044645492068B1
:102C7000096888423FD101204349087008468068AE
:102C8000401C88600846C068896848434FF4B471A6
:102C900048434FF4486190FBF1F000EE100AB8EEA3
:102CA000C00A3948D0ED040A30EE200A80ED040A4B
:102CB000C06835498968484300EB400080004FF404
:102CC000486190FBF1F000EE100AB8EEC00A2E4801
:102CD000D0ED050A30EE200A80ED050A80682A4909
:102CE0004968884207DB0020274908708860002176
:102CF000244800F0D5F825492068096888423FD16A
:102D000001202349087008468068401C88600846F6
:102D1000C068896848434FF4B47148434FF4486130
:102D200090FBF1F000EE100AB8EEC00A1848D0EDA2
:102D3000040A30EE200A80ED040AC068144989684C
:102D4000484300EB400080004FF4486190FBF1F0F5
:102D500000EE100AB8EEC00A0D48D0ED050A30EEBC
:102D6000200A80ED050A806809494968884207DB26
:102D700000200749087088600021044800F090F89E
:102D800010BD0000A8010020B85D0020F001002067
:102D9000D05D002070B504460D4615B994F83E008C
:102DA0000BE0042D02D13F20005D06E0082D02D18A
:102DB0004020005D01E04120005D012801D001209C
:102DC00070BD1DB9022084F83E000EE0042D03D131
:102DD00002213F20015508E0082D03D102214020A7
:102DE000015502E0022141200155012229462068B7
:102DF00002F0DEFD23492068884203D02249206882
:102E0000884201D1012000E0002028B12068406CF8
:102E100040F40040216848641A49206888421BD069
:102E20002068B0F1804F17D018492068884213D02D
:102E30001749206888420FD01649206888420BD075
:102E400011492068884207D013492068884203D07E
:102E50001249206888420CD12068806800F007067B
:102E6000062E0CD02068006840F001002168086040
:102E700005E02068006840F001002168086000203B
:102E80009EE70000000001400004014000040040F3
:102E900000080040000C00400040014000180040C5
:102EA00070B504460D46002635B1042D0BD0082D13
:102EB00010D00C2D1CD114E02068C06820F0020056
:102EC0002168C86016E02068C06820F0040021680E
:102ED000C8600FE02068C06820F008002168C86062
:102EE00008E02068C06820F010002168C86001E098
:102EF000012600BF00BF002E4AD1002229462068CB
:102F000002F056FD23492068884203D022492068F8
:102F1000884201D1012000E0002090B100BF20686C
:102F2000006A41F21111084050B92068006A891006
:102F3000084028B92068406C20F4004021684864AB
:102F400000BF00BF2068006A41F21111084050B96B
:102F50002068006A8910084028B92068006820F0BD
:102F600001002168086000BF1DB9012084F83E00FF
:102F70000EE0042D03D101213F20015508E0082D6A
:102F800003D101214020015502E0012141200155DA
:102F9000304670BD000001400004014010B50446F9
:102FA0002068B0F1804F30D11B4800681B49086091
:102FB00019480068401C1849086019480088401CDE
:102FC000174908800846008864281ADB002008801A
:102FD00014484088401C13494880084640883C28D3
:102FE0000FDB0020488008468088401C8880084607
:102FF00080883C2805DB002088800846C088401C6B
:10300000C880074800880749088007492068884227
:1030100001D1FEF74FFD10BDC0000020C40000200C
:10302000C8000020CA00002000040040704770471C
:10303000704700002DE9F84F0446206805682068B5
:10304000C668206847694FF00009CA4605F00F09B5
:10305000B9F1000F0AD105F0200038B106F02000C8
:1030600020B1204602F026FEBDE8F88FB9F1000F2E
:103070007CD007F0010018B906F49070002875D0D4
:1030800005F0010030B106F4807018B1206C40F0FA
:103090000100206405F0040030B107F0010018B110
:1030A000206C40F00200206405F0020030B107F00F
:1030B000010018B1206C40F00400206405F0080005
:1030C00048B106F0200010B907F0010018B1206CDB
:1030D00040F008002064206C002846D005F0200055
:1030E00028B106F0200010B1204602F0E3FD206870
:1030F0004069C0F3801A206C00F0080010B9BAF1E2
:10310000000F2DD0204602F08FFD2068406900F0AE
:103110004000402820D100BF00BF2168143151E891
:10312000001F21F040002168143141E80002002A0C
:10313000F3D100BFA06B50B17548A16B0865A06BBF
:10314000FEF7FFFA88B1A06B016D88470DE02046BD
:10315000FFF76EFF09E009E02046FFF769FF04E092
:103160002046FFF765FF002020647DE7206B0128E3
:1031700076D105F01000002872D006F0100000286B
:10318000FAD000BF002000902068006800902068FE
:103190004068009000BF00BF2068406900F0400018
:1031A00040285ED1A06B006840681FFA80F8B8F133
:1031B000000F54D0A08D404551DDA4F82E80A06BA7
:1031C000C069B0F5807F43D000BF00BF21680C31DB
:1031D00051E8001F21F4807021680C3141E80002A1
:1031E000002AF3D100BF00BF00BF2168143151E8AD
:1031F000001F21F001002168143141E80002002A7B
:10320000F3D100BF00BF00BF2168143151E8001F97
:1032100021F040002168143141E80002002AF3D176
:1032200000BF202084F83E000020206300BF00BFC4
:1032300021680C3151E8001F21F0100021680C3189
:1032400041E80002002AF3D100BFA06BFEF723FA89
:10325000A08DE28D801A81B22046FFF7E8FE03E7D9
:1032600040E0A08DE18D401A1FFA80F8E08DC0B3D8
:10327000B8F1000F35D000BF00BF21680C3151E814
:10328000001F21F4907021680C3141E80002002AEF
:10329000F3D100BF00BF00BF2168143151E8001F07
:1032A00021F001002168143141E80002002AF3D125
:1032B00000BF202084F83E000020206300BF00BF34
:1032C00021680C3151E8001F21F0100021680C31F9
:1032D00041E80002002AF3D100BF41462046FFF733
:1032E000A6FEC1E605F0800030B106F0800018B1FE
:1032F000204602F096FEB7E605F0400030B106F039
:10330000400018B1204602F0C5FCADE600BFABE6B8
:10331000155C000810B504460CB9012010BDA06969
:1033200000B100E000BF94F83D0028B9002084F807
:103330003C00204600F028F8242084F83D00206856
:10334000C06820F400502168C860204602F02EFDBD
:103350002068006920F49040216808612068406975
:1033600020F02A00216848612068C06840F40050BD
:103370002168C86000202064202084F83D0084F883
:103380003E000020CAE7000010B586B004461421B4
:1033900001A8FDF78DF83F492068884239D100BF68
:1033A000002000903C48006840F400203A49086042
:1033B0000846006800F40020009000BF00BF00BF76
:1033C0000020009034481038006840F00400324972
:1033D000103908600846006800F00400009000BF43
:1033E00000BF4FF440600190022002900020039043
:1033F000032004900820059001A92848FEF754FAFC
:10340000002205213420FEF713FC3420FEF700FCD7
:103410003EE02349206888423AD100BF0020009056
:103420001D48001D006840F010001B49091D086080
:103430000846006800F01000009000BF00BF00BF09
:103440000020009014481038006840F00100124934
:10345000103908600846006800F00100009000BFC5
:1034600000BF4FF4C0600190022002900120039041
:10347000032004900720059001A90A48FEF714FADA
:10348000002205212520FEF7D3FB2520FEF7C0FBF7
:1034900006B010BD004C0040403802400008024019
:1034A000001001400000024070B504460D4616466B
:1034B00094F83E00202816D105B10EB9012070BD48
:1034C00000BF94F83C00012801D10220F7E7012059
:1034D00084F83C0000BF0020206332462946204685
:1034E00002F07AFDEBE70220E9E7000010B50446A0
:1034F00003492068884201D104F052F810BD000051
:10350000004C00407047000010B500210548FFF74F
:1035100041FC00210448FFF73DFC4FF4FA60FEF740
:1035200025F910BD380200208002002000BFFEE710
:103530000922026080ED130A54221152D0ED130AC1
:10354000C0ED050A7047000010B54EF690006A49BC
:10355000088042F2C42048804FF4AF708880002079
:103560006649086005F06EFD9FED650A654802F04A
:103570001FF99FED630A6348703002F019F90120CA
:10358000614908600020614908605B4981F82100B9
:1035900081F82000FDF7D8FA574890ED070ADFEDD3
:1035A0005C0AB4EEE00AF1EE10FA3AD290ED070AA6
:1035B000DFED580AB4EEE00AF1EE10FA31DD5648BC
:1035C0008088002866D054488088A0F2DC506428A7
:1035D0000CDD4948B0F9040000EE900AF8EEE00A6C
:1035E000B0EE600A4D4802F0E3F853E04A488088A4
:1035F000A0F2DC5010F1640F0DDA3F48B0F904007E
:10360000404200EE900AF8EEE00AB0EE600A43484D
:1036100002F0CEF83EE09FED3A0A404802F0C8F8CA
:1036200038E03D48808810B39FED350A3B4802F0F2
:10363000BFF8344890EDA40ADFED350AB4EEE00A95
:10364000F1EE10FA14DD34488088A0F2DC5010F15D
:10365000640F1FDA2848B0F90400404200EE900AD7
:10366000F8EEE00AB0EE600A2C4802F0A1F811E092
:1036700029488088A0F2DC5064280BDD1E48B0F990
:10368000040000EE900AF8EEE00AB0EE600A23486B
:1036900002F08EF81B49B1F9EA10002903DD19493F
:1036A000B1F9EA1003E01749B1F9EA1049420846B6
:1036B0000A2241F27C5105F0ADFC10B100201849FE
:1036C00008701748007830B19FED160A134870381B
:1036D00002F06EF80AE09FED0A0A1048703802F016
:1036E00067F89FED070A074880ED500A0022042181
:1036F0000D48FEF7D3F910BD905D002004010020B5
:103700000000000030500020FC00002000010020DC
:103710000000F0420000F0C2C84C002080510020A0
:10372000F8000020000048C30018024010B5002037
:103730002E498870C8702E482E490860E0304860D5
:10374000703888609FED2C0A084680ED040A9FEDD2
:103750002B0A80ED050AB3EE0E0A80ED070A284811
:1037600028490860E0304860703888609FED260A7C
:10377000084680ED040A9FED250A80ED050AB3EEA8
:103780000E0A80ED070AD1ED050AB0EE600A08685E
:1037900001F08AFA1749D1ED050AB0EE600A08680F
:1037A00001F082FA002208211948FEF777F9002279
:1037B00010211748FEF772F90E499FED160A486866
:1037C00001F0F6FF0F499FED130A086801F0F0FFC2
:1037D00008499FED100A886801F0EAFF09499FED4A
:1037E0000D0A886801F0E4FF10BD0000EC00002025
:1037F000E04E0020505D002000C0A84400A0A54578
:10380000F0510020705D00200000AF450000AF4483
:103810000018024000000000D0ED000AF4EEC00ADB
:10382000F1EE10FA01DD80ED000AD0ED000AB1EEF4
:10383000401AF4EEC10AF1EE10FA03D2F1EE400A9A
:10384000C0ED000A7047000010B5FDF77DF90020BB
:103850003F4981F821003F4908603D4890ED070A43
:10386000F7EE000A30EE200AB5EEC00AF1EE10FACB
:103870000BD2B0F9040000EE900AF8EEE00AB0EEC8
:10388000600A354801F094FF21E0314890ED070AC5
:10389000F7EE000A30EE600AB5EEC00AF1EE10FA5B
:1038A0000CDDB0F90400404200EE900AF8EEE00AA8
:1038B000B0EE600A284801F07BFF08E09FED270A80
:1038C000254801F075FF0120214981F820000020E2
:1038D00005F0B8FB9FED210A214801F069FF9FED3B
:1038E0001F0A1F48703001F063FF1D4890ED500A19
:1038F000DFED1C0AB4EEE00AF1EE10FA18DD90EDEF
:10390000500ADFED190AB4EEE00AF1EE10FA0FD218
:103910000F4890F8200080B1002204211348FEF7E0
:10392000BDF801201249086000201249086004E037
:10393000012204210D48FEF7B1F89FED0F0A064859
:10394000703801F0B1F901200C49087010BD000079
:10395000905D002004010020805100200000000044
:103960003050002000000A4300000E4300180240BF
:10397000FC0000200001002000000C43F8000020A3
:1039800000B599B00020159016900820179080017E
:10399000139000200F9010900820119040F2FF101B
:1039A0000D9058488089000A8DF82C005548007BFE
:1039B0008DF82D005348B0F87C00000A8DF82E00D9
:1039C000504890F87C008DF82F004E48B0F8EC007D
:1039D000000A8DF830004B4890F8EC008DF831006B
:1039E0004848B0F85C01000A8DF83200454890F86C
:1039F0005C018DF833004348B0F8CC01000A8DF823
:103A00002400404890F8CC018DF825003D48B0F8DE
:103A10003C02000A8DF826003A4890F83C028DF8E6
:103A200027003848B0F8AC02000A8DF82800354865
:103A300090F8AC028DF8290004AB0BAA13A9324808
:103A4000FDF71FF903AB09AA0DA92F48FDF719F9D6
:103A50002E488089000A8DF81C002C48007B8DF8C8
:103A60001D002A48B0F87C00000A8DF81E00274887
:103A700090F87C008DF81F002448B0F8EC00000A94
:103A80008DF82000214890F8EC008DF821001F48A7
:103A9000B0F85C01000A8DF822001C4890F85C0127
:103AA0008DF823001948B0F8CC01000A8DF81400F5
:103AB000164890F8CC018DF815001448B0F83C0277
:103AC000000A8DF81600114890F83C028DF8170096
:103AD0000E48B0F8AC02000A8DF818000B4890F8B8
:103AE000AC028DF8190002AB07AA13A90848FDF72C
:103AF000C8F801AB05AA0DA90548FDF7C2F819B031
:103B000000BD0000204D002010010020305000209A
:103B10003801002010B50F480F49086003204860A5
:103B200000210D488160C1604FF4002101614FF414
:103B30004011416100210176012141760021817609
:103B4000C17601774177FDF7BEFB08B1FCF727FF8F
:103B500010BD0000006400401001002010B50F48A7
:103B60000F4908600320486000210D488160C16052
:103B70004FF4002101614FF44011416100210176B1
:103B80000121417600218176C17601774177FDF7E9
:103B90009AFB08B1FCF703FF10BD0000006800406D
:103BA0003801002010B50E4A00210E4804F02EFA0C
:103BB0000D4908600D4A00210D4804F027FA0D490F
:103BC00008600D4A00210D4804F020FA0C490860F5
:103BD0000C4A00210C4804F019FA0C49086010BD89
:103BE000F0AE0008A50900080000002014AF00088E
:103BF000650600080400002038AF000805550008DD
:103C0000080000205CAF00087D5700080C00002071
:103C100000B587B0142102A8FCF74AFC00BF0020C1
:103C200001904548006840F0040043490860084698
:103C3000006800F00400019000BF00BF00BF00203A
:103C400001900846006840F02000086008460068BF
:103C500000F02000019000BF00BF00BF00200190D5
:103C60000846006840F0800008600846006800F0E0
:103C70008000019000BF00BF00BF002001900846F7
:103C8000006840F0020008600846006800F002008A
:103C9000019000BF00BF00BF0020019008460068EF
:103CA00040F0400008600846006800F040000190C5
:103CB00000BF00BF00BF002001900846006840F030
:103CC000010008600846006800F00100019000BF94
:103CD00000BF00224FF4FE711848FDF7DFFE802080
:103CE00002904FF4881003900020049002A9144819
:103CF000FDF7DAFD1C2002900120039000200490C3
:103D0000059002A90D48FDF7CFFD4FF4F070029029
:103D10000120039004900020059002A90748FDF7B8
:103D2000C3FD002205211720FDF782FF1720FDF7B4
:103D30006FFF07B000BD000030380240001802409D
:103D40000014024000B587B01C216846FCF7B0FBA8
:103D50001748184908600120486000211548816013
:103D600041F28141C1600021016180218161FEF742
:103D7000BDFB08B1FCF713FE0E48FEF740FF08B18B
:103D8000FCF70DFE6020009040F6412001900020DD
:103D9000029004200490002269460648FEF7ADFE1A
:103DA00008B1FCF7FCFD0348FEF70AFE07B000BDB2
:103DB00000440140A801002000B587B01C216846DE
:103DC000FCF776FB1748184908600120486000217D
:103DD0001548816041F28141C1600021016180216B
:103DE0008161FEF783FB08B1FCF7D9FD0E48FEF7B1
:103DF00006FF08B1FCF7D3FD6020009040F641209B
:103E00000190002002900420049000226946064898
:103E1000FEF773FE08B1FCF7C2FD0348FEF7D0FDC4
:103E200007B000BD00480140F001002000B587B098
:103E30001C216846FCF73CFB1748184908605320D2
:103E4000486000211548816044F61F61C16000216F
:103E5000016180218161FEF749FB08B1FCF79FFDFC
:103E60000E48FEF7CCFE08B1FCF799FD60200090EB
:103E70004FF47A70019000200290042004900022F8
:103E800069460648FEF739FE08B1FCF788FD03488D
:103E9000FEF796FD07B000BD001C00403802002070
:103EA00000B587B01C216846FCF702FB174818498B
:103EB00008605320486000211548816044F61F6166
:103EC000C1600021016180218161FEF70FFB08B113
:103ED000FCF765FD0E48FEF792FE08B1FCF75FFDAA
:103EE000602000904FF47A7001900020029004202E
:103EF0000490002269460648FEF7FFFD08B1FCF772
:103F00004EFD0348FEF75CFD07B000BD00200040F9
:103F10008002002000B587B0002003900490059037
:103F20000690019002904FF08040144908605320A1
:103F3000486000211148816042F21071C160002187
:103F4000016180218161FEF7D1FA08B1FCF727FDFC
:103F50004FF48050039003A90848FEF7DFFB08B137
:103F6000FCF71DFD00200190029001A90348FEF717
:103F700063FA08B1FCF713FD07B000BD6001002033
:103F800010B50B480B4908604FF4E1304860002140
:103F900008488160C16001610C214161002181619B
:103FA000C161FFF7B7F908B1FCF7F9FC10BD0000DB
:103FB000004C0040C802002010B50B480B490860B7
:103FC0004FF4E1304860002108488160C160016120
:103FD0000C21416100218161C161FFF79BF908B1AA
:103FE000FCF7DDFC10BD0000001001400C030020B8
:103FF000B4EEE00AF1EE10FA01DDB0EE600AB1EEC7
:10400000601AB4EEC10AF1EE10FA03D2B1EE601AF2
:10401000B0EE410A704700BFFEE7000010B5002473
:10402000EFE3C4EBC400F94901EB001000680A2873
:104030007DD2DFE800F0F57C05244A4BF6F37CF2F4
:10404000C4EBC401F14A02EB0111B1F9081001EE11
:10405000101AB8EEC11AF0EE410AC4EBC40102EB2B
:10406000011191ED051AB0EE410AC4EBC40101EB58
:104070000411E74A02EB810004F024F83FE2C4EBAC
:10408000C401E24A02EB011002F0DCF8C4EBC40107
:10409000DE4A02EB0111B1F9081001EE101AB8EE78
:1040A000C11AF0EE410AC4EBC40102EB011191ED1B
:1040B000051AB0EE410AC4EBC40101EB0411D44A65
:1040C00002EB810003F0FEFF19E218E2C4EBC4002A
:1040D000CE4901EB0010C06E012851D1C4EBC401E0
:1040E000CA4A02EB0111C98801EE101AB8EE411A52
:1040F000F0EE410AC4EBC40102EB0111B1F90E105C
:1041000001EE101AB8EEC11AB0EE410AC4EBC401B8
:1041100001EB0411BF4A02EB810003F0D3FFC4EBB3
:10412000C40000EB0410BB4901EB800000E0E5E1B6
:1041300090ED0F0AC4EBC400B44901EB001080ED10
:10414000050AC4EBC401B14A02EB0111B1F9081030
:1041500001EE101AB8EEC11AF0EE410AC4EBC40128
:1041600002EB011191ED051AB0EE410AC4EBC40156
:1041700001EB0411A64A02EB810003F0A3FF4BE020
:10418000C4EBC401A14A02EB011191ED181AF0EE43
:10419000410AC4EBC40102EB0111B1F90E1001EEAA
:1041A000101AB8EEC11AB0EE410AC4EBC40101EB1B
:1041B0000411984A02EB810003F084FFC4EBC400B1
:1041C00000EB0410934901EB800090ED0F0AC4EB63
:1041D000C4008E4901EB001080ED050AC4EBC40158
:1041E0008A4A02EB0111B1F9081001EE101AB8EE7B
:1041F000C11AF0EE410AC4EBC40102EB011191EDCA
:10420000051AB0EE410AC4EBC40101EB0411804A67
:1042100002EB810003F056FF71E14CE0FEE000E0AC
:1042200041E0C4EBC401794A02EB0111B1F9081075
:1042300001EE101AB8EEC11AF0EE410AC4EBC40147
:1042400002EB011191ED051AB0EE410AC4EBC40175
:1042500001EB04116E4A02EB810003F033FFC4EB63
:10426000C4006A4901EB0010B0F9100001EE100A19
:10427000B8EEC11AF0EE410AC4EBC40000EB041022
:10428000634901EB800090ED0F1AB0EE410AFFF791
:10429000AFFEC4EBC40000EB04105D4901EB8000ED
:1042A00080ED0F0A2BE10020C4EBC401574A02EB5A
:1042B0000111888123E1C4EBC400544901EB0010D3
:1042C000B0F90A00002806DDC4EBC40001EB0010C1
:1042D000B0F90A0007E0C4EBC4004C4901EB001040
:1042E000B0F90A004042C4EBC401484A02EB011194
:1042F000B1F95410884205DC0021C4EBC40002EB84
:104300000010C165C4EBC400404901EB0010B0F9D6
:104310000A00002806DDC4EBC40001EB0010B0F970
:104320000A0007E0C4EBC400384901EB0010B0F903
:104330000A004042C4EBC401344A02EB0111B1F956
:10434000541088420BDDC4EBC400114601EB001091
:10435000C06D401CC4EBC40102EB0111C865C4EB85
:10436000C4002A4901EB0010C06D1E280FDB01219B
:10437000C4EBC400254A02EB001081659FED260ABC
:10438000C4EBC400114601EB001080ED180AC4EB29
:10439000C4001E4901EB0010806DC0B1C4EBC40124
:1043A0001A4A02EB0111B1F9081000EE101AB8EE2A
:1043B000C00AF0EE400AC4EBC40101EB0411144A38
:1043C00002EB81009FED140A03F07CFE1DE0C4EBBC
:1043D000C4010E4A02EB0111B1F9081001EE101AE6
:1043E000B8EEC11AF0EE410AC4EBC40102EB0111B0
:1043F00091ED051AB0EE410AC4EBC40101EB0411C2
:10440000034A02EB810003F05DFE78E0204D0020BE
:1044100040530020C455002000000000C4EBC4013C
:10442000F84A02EB011191ED181AF0EE410AC4EBC3
:10443000C40102EB0111B1F90E1001EE101AB8EE31
:10444000C11AB0EE410AC4EBC40101EB0411EE4AFB
:1044500002EB810003F036FEC4EBC40000EB041055
:10446000E94901EB800090ED0F0AC4EBC400E54977
:1044700001EB001080ED050AC4EBC401E14A02EB38
:104480000111B1F9081001EE101AB8EEC11AF0EEE0
:10449000410AC4EBC40102EB011191ED051AB0EE23
:1044A000410AC4EBC40101EB0411D84A02EB8100BC
:1044B00003F008FEC4EBC400D24901EB0010B0F9D0
:1044C000100001EE100AB8EEC11AF0EE410AC4EB7A
:1044D000C40000EB0410CD4901EB800090ED0F1AF1
:1044E000B0EE410AFFF784FDC4EBC40000EB0410FA
:1044F000C64901EB800080ED0F0A00E000BF00BF5D
:10450000C4EBC400C24901EB001000680A287DD248
:10451000DFE800F0F57C05244A4BF6F37CF2C4EBAF
:10452000C401BB4A02EB0111B1F9081001EE101AE7
:10453000B8EEC11AF0EE410AC4EBC40102EB01115E
:1045400091ED051AB0EE410AC4EBC40101EB041170
:10455000B04A02EB810003F0B5FD44E2C4EBC401B4
:10456000AB4A02EB011001F06DFEC4EBC401A84A96
:1045700002EB0111B1F9081001EE101AB8EEC11AE0
:10458000F0EE410AC4EBC40102EB011191ED051AF2
:10459000B0EE410AC4EBC40101EB04119D4A02EBE9
:1045A000810003F08FFD1EE21DE2C4EBC4009849B8
:1045B00001EB0010C06E012851D1C4EBC401944A34
:1045C00002EB0111C98801EE101AB8EE411AF0EEA3
:1045D000410AC4EBC40102EB0111B1F90E1001EE66
:1045E000101AB8EEC11AB0EE410AC4EBC40101EBD7
:1045F0000411894A02EB810003F064FDC4EBC4009E
:1046000000EB0410844901EB800000E0EAE190ED4A
:104610000F0AC4EBC4007E4901EB001080ED050ACF
:10462000C4EBC4017A4A02EB0111B1F9081001EEA2
:10463000101AB8EEC11AF0EE410AC4EBC40102EB45
:10464000011191ED051AB0EE410AC4EBC40101EB72
:104650000411704A02EB810003F034FD4BE0C4EB1F
:10466000C4016B4A02EB011191ED181AF0EE410AF8
:10467000C4EBC40102EB0111B1F90E1001EE101AE6
:10468000B8EEC11AB0EE410AC4EBC40101EB04114B
:10469000614A02EB810003F015FDC4EBC40000EB9E
:1046A00004105D4901EB800090ED0F0AC4EBC400DB
:1046B000574901EB001080ED050AC4EBC401544AD0
:1046C00002EB0111B1F9081001EE101AB8EEC11A8F
:1046D000F0EE410AC4EBC40102EB011191ED051AA1
:1046E000B0EE410AC4EBC40101EB0411494A02EBEC
:1046F000810003F0E7FC76E14CE003E100E041E0FB
:10470000C4EBC401424A02EB0111B1F9081001EEF9
:10471000101AB8EEC11AF0EE410AC4EBC40102EB64
:10472000011191ED051AB0EE410AC4EBC40101EB91
:104730000411384A02EB810003F0C4FCC4EBC4004E
:10474000334901EB0010B0F9100001EE100AB8EE89
:10475000C11AF0EE410AC4EBC40000EB04102D496D
:1047600001EB800090ED0F1AB0EE410AFFF740FC1C
:10477000C4EBC40000EB0410264901EB800080ED7F
:104780000F0A30E10020C4EBC401214A02EB011101
:10479000888128E1C4EBC4001D4901EB0010B0F989
:1047A0000A00002806DDC4EBC40001EB0010B0F9DC
:1047B0000A0007E0C4EBC400154901EB0010B0F992
:1047C0000A004042C4EBC401114A02EB0111B1F9E5
:1047D0005410884205DC0021C4EBC40002EB001039
:1047E000C165C4EBC4000A4901EB0010B0F90A002E
:1047F000002813DDC4EBC40001EB0010B0F90A007F
:1048000014E0F2E0204D0020C45500204053002069
:104810003050002048580020CC5A0020C4EBC4007F
:10482000FC4901EB0010B0F90A004042C4EBC4019E
:10483000F84A02EB0111B1F9541088420BDDC4EBC8
:10484000C400114601EB0010C06D401CC4EBC40154
:1048500002EB0111C865C4EBC400EE4901EB001086
:10486000C06D1E280FDB0121C4EBC400E94A02EB36
:10487000001081659FEDE80AC4EBC400114601EB0E
:10488000001080ED180AC4EBC400E24901EB0010EF
:10489000806DC0B1C4EBC401DE4A02EB0111B1F975
:1048A000081000EE101AB8EEC00AF0EE400AC4EB91
:1048B000C40101EB0411D94A02EB81009FEDD60A35
:1048C00003F000FC1DE0C4EBC401D24A02EB01116D
:1048D000B1F9081001EE101AB8EEC11AF0EE410A53
:1048E000C4EBC40102EB011191ED051AB0EE410ACF
:1048F000C4EBC40101EB0411C84A02EB810003F0D0
:10490000E1FB70E0C4EBC401C24A02EB011191ED7E
:10491000181AF0EE410AC4EBC40102EB0111B1F91F
:104920000E1001EE101AB8EEC11AB0EE410AC4EB37
:10493000C40101EB0411BA4A02EB810003F0C2FB8F
:10494000C4EBC40000EB0410B54901EB800090ED0E
:104950000F0AC4EBC400AF4901EB001080ED050A5B
:10496000C4EBC401AB4A02EB0111B1F9081001EE2E
:10497000101AB8EEC11AF0EE410AC4EBC40102EB02
:10498000011191ED051AB0EE410AC4EBC40101EB2F
:104990000411A24A02EB810003F094FBC4EBC400B3
:1049A0009C4901EB0010B0F9100001EE100AB8EEBE
:1049B000C11AF0EE410AC4EBC40000EB04109749A1
:1049C00001EB800090ED0F1AB0EE410AFFF710FBEB
:1049D000C4EBC40000EB0410904901EB800080EDB3
:1049E0000F0A00E000BF00BF641C072CFFF619ABE4
:1049F00000209AE0C0EBC0018A4A02EB011109686D
:104A0000042917D0C0EBC00102EB0111097901297B
:104A10002CD1C0EBC00102EB0111B1F90A1043F235
:104A2000C822914207DD0021C0EBC0027D4B03EBA1
:104A30000212116078E0C0EBC00101EB00117A4A6C
:104A400002EB8101D1ED0F0AB0EE600ADFED770ACB
:104A5000FFF7CEFABDEEC00A10EE101A09B2C0EB95
:104A6000C002704B03EB021291815DE0C0EBC0010C
:104A70006C4A02EB0111097902292BD1C0EBC0016C
:104A800002EB0111B1F90A1040F63C72914206DDC9
:104A90000021C0EBC002634B03EB02121160C0EBBC
:104AA000C00101EB0011604A02EB8101D1ED0F0A58
:104AB000B0EE600ADFED5E0AFFF79AFABDEEC00ABB
:104AC00010EE101A09B2C0EBC002564B03EB0212F3
:104AD000918129E0C0EBC001524A02EB0111097932
:104AE00003291AD1C0EBC00101EB00114E4A02EBC1
:104AF0008101D1ED0F0AB0EE600ADFED4E0AFFF73B
:104B000077FABDEEC00A10EE101A09B2C0EBC0026F
:104B1000444B03EB0212918106E00021C0EBC0027E
:104B2000404B03EB02129181401C0728FFF662AF55
:104B30000020ACE0C0EBC001364A02EB011109686D
:104B4000042917D0C0EBC00102EB0111097901293A
:104B50002CD1C0EBC00102EB0111B1F90A1043F2F4
:104B6000C822914207DD0021C0EBC002294B03EBB4
:104B7000021211608AE0C0EBC00101EB0011274A6C
:104B800002EB8101D1ED0F0AB0EE600ADFED270ADA
:104B9000FFF72EFABDEEC00A10EE101A09B2C0EBF4
:104BA000C0021C4B03EB021291816FE0C0EBC0010D
:104BB000184A02EB0111097902293DD1C0EBC0016D
:104BC00002EB0111B1F90A1040F63C72914206DD88
:104BD0000021C0EBC0020F4B03EB02121160C0EBCF
:104BE000C00101EB00110D4A02EB8101D1ED0F0A6A
:104BF000B0EE600ADFED0E0AFFF7FAF9BDEEC00A6B
:104C000010EE101A09B2C0EBC002024B03EB021205
:104C100091813BE030500020000000004858002007
:104C2000CC5A0020204D002040530020006826462A
:104C300000B047450060EA46C0EBC001174A02EBEE
:104C40000111097903291AD1C0EBC00101EB001150
:104C5000134A02EB8101D1ED0F0AB0EE600A5FED5D
:104C60000B0AFFF7C5F9BDEEC00A10EE101A09B223
:104C7000C0EBC002094B03EB0212918106E0002158
:104C8000C0EBC002054B03EB02129181401C0728C8
:104C9000FFF650AFFEF774FE10BD0000305000204C
:104CA0004858002000BFFEE7F0EE400A05210160F1
:104CB000BDEEE00A10EE101A09B2C181B0F90E1073
:104CC00000EE101AB8EEC00A30EE600AB5EEC00A67
:104CD000F1EE10FA08DDB0F90E1000EE101AB8EE81
:104CE000C00A30EE600A09E0B0F90E1000EE101AAA
:104CF000B8EEC00A30EE600AB1EE400AB7EE001A14
:104D0000B4EEC10AF1EE10FA02D2B7EE000A704713
:104D10009FED010AFBE700000000000010B58E487F
:104D20004078002873D18C490871002208218B48F3
:104D3000FCF7B4FE002210218848FCF7AFFE88493A
:104D4000D1ED070AB0EE600A8868FFF7ADFF0021D9
:104D50008348806881658349D1ED070AB0EE600A17
:104D60008868FFF7A1FF00217E48806881657D4843
:104D7000806890ED180A7B48D0ED070AB0EE001A63
:104D800070EEC10AB4EEE00AF1EE10FA16DB8068AC
:104D900090ED180A7348D0ED070AB0EE001A70EED5
:104DA000810AB4EEE00AF1EE10FA07D80146D1ED1F
:104DB000050AB0EE600A0868FFF776FF6848806869
:104DC00090ED180A6648D0ED070AB0EE001A70EEB2
:104DD000C10AB4EEE00AF1EE10FA16DB806890ED3D
:104DE000180A5F48D0ED070AB0EE001A70EE810A8B
:104DF000B4EEE00AF1EE10FA07D80146D1ED050A4B
:104E0000B0EE600A0868FFF74FFFA3E0FFE75248E3
:104E1000407801287ED15048007938B94E48C08882
:104E2000401E00B24C49C8800120087101220821AF
:104E30004A48FCF733FE012210214848FCF72EFEB9
:104E40004849D1ED040AB0EE600A0868FFF72CFF6C
:104E50004349D1ED040AB0EE600A0868FFF724FF69
:104E60003D49C9887A2211FB02F100EE901AF8EE52
:104E7000E00AB0EE600A3B494868FFF715FF364983
:104E8000C9887A2211FB02F100EE901AF8EEE00ACE
:104E9000B0EE600A32494868FFF706FF3148006803
:104EA000C08800EE100AB8EE400A2E48D0ED040A81
:104EB0009FED2D1A70EEC10AB4EEE00AF1EE10FA81
:104EC00019DB0068C08800EE100AB8EE400A2548D9
:104ED000D0ED040A9FED241A70EE810AB4EEE00AC8
:104EE000F1EE10FA07D80146886841F27C519FED37
:104EF0001F0AFEF71DFB1A480068C08800EE100A62
:104F0000B8EE400A1648D0ED040A9FED171A70EE6D
:104F1000C10A00E01EE0B4EEE00AF1EE10FA19DB7F
:104F20000068C08800EE100AB8EE400A0C48D0EDC8
:104F3000040A9FED0D1A70EE810AB4EEE00AF1EE5C
:104F400010FA07D80146886841F27C519FED070AA4
:104F5000FEF7EEFA10BD0000EC0000200018024041
:104F6000705D0020505D0020000048420000484372
:104F70009FED9B1AB0EE410A9FED991AF0EE410A9F
:104F800090F8641031B9C188A0F86610012180F84A
:104F9000641070470179012904D0022907D0032940
:104FA0000FD109E0B3EE031AF0EE410A0AE09FEDDB
:104FB0008D1AF0EE410A05E0B7EE001AF0EE410A54
:104FC00000E000BF00BFB0F90810002975DDC188FE
:104FD000B0F86620914248DAC18841F6FF72114468
:104FE000B0F86620891A40F2E242914201DA0121CA
:104FF00000E0002100290EDDC18841F6FF72114456
:10500000B0F86620891A40F2E242914201DA0121A9
:1050100010E000210EE0C18841F6FF721144B0F8A3
:105020006620891A40F2E242914201DA012100E051
:1050300000214942A1B3C18841F6FF721144B0F882
:105040006620891A01EE101AB8EEC11A9FED662A81
:10505000C1EE021A9FED651A21EE811AB0EE410AE7
:1050600080EE201AB0EE410A1AE0C188B0F866203E
:10507000914215DDC188B0F86620891A01EE101A38
:10508000F8EEC11A9FED582A81EE821ADFED571A09
:1050900021EE211AB0EE410A80EE201AB0EE410A4C
:1050A000B5EEC00AF1EE10FA05DB90ED181A31EEFC
:1050B000001A80ED181A8DE0FFE7B0F908100029FA
:1050C00062DAC188B0F86620914236DDC18841F6C7
:1050D000FF72511AB0F866201144002907DDC1881B
:1050E00041F6FF72511AB0F86620114407E0C188FA
:1050F00041F6FF72511AB0F866201144494240F25D
:10510000E242914234DAC18841F6FF72511AB0F896
:105110006620114401EE101AF8EEC11A9FED322AF2
:1051200081EE821ADFED311A21EE211AB0EE410A2A
:1051300080EE201AB0EE410A1AE0C188B0F866206D
:10514000914215DAC188B0F86620891A01EE101A6A
:10515000F8EEC11A9FED242A81EE821ADFED231AA0
:1051600021EE211AB0EE410A80EE201AB0EE410A7B
:10517000B5EEC00AF1EE10FA2CD890ED181A31EE07
:10518000001A80ED181A25E0C188B0F86620914217
:1051900016D0C188B0F86620891A01EE101AF8EE10
:1051A000C11A9FED112A81EE821ADFED101A21EE4D
:1051B000211AB0EE410A80EE201AB0EE410A03E057
:1051C0009FED071AB0EE410A90ED181A31EE001A61
:1051D00080ED181AC188A0F8661000BFD9E600005B
:1051E0000000000000001042000000460000B44330
:1051F00010B5544890F84000012818D1514890ED5E
:10520000000AD0ED060A30EE200A80ED000A90ED8B
:10521000010AD0ED070A30EE200A80ED010A90ED78
:10522000020AD0ED080A30EE200A80ED020A454855
:1052300090ED010AB1EE400ADFED430A20EE200AAC
:10524000D0ED000A9FED401A00EE810AD0ED020A6F
:105250009FED3E1A00EE810ADFED3D0A20EE200AA6
:10526000DFED3C0A80EE201A80ED0C1A90ED010A69
:10527000B1EE400ADFED340A20EE200AD0ED000A3C
:105280009FED311A00EEC10AD0ED020A9FED2F1AF0
:1052900000EE810ADFED2E0A20EE200ADFED2D0A56
:1052A00080EE201A80ED0D1A90ED010ADFED260A3E
:1052B00020EE200AD0ED000A9FED231A00EEC10A6D
:1052C000D0ED020A9FED211A00EE810ADFED200ADF
:1052D00020EE200ADFED1F0A80EE201A80ED0E1A64
:1052E00090ED010ADFED180A20EE200AD0ED000A49
:1052F0009FED151A00EE810AD0ED020A9FED131AF8
:1053000000EE810ADFED120A20EE200ADFED110A1D
:1053100080EE201A80ED0F1A00240FE00949303189
:1053200001EB8401D1ED000AB0EE600AC4EBC401C8
:10533000094A02EB011000F03BFA641C042CEDDB7F
:1053400010BD0000DC4C0020E604353FCDCCCC3E47
:1053500000800E44C57D743E204D00200948008920
:1053600040F2DC51884203DA05200749087008E062
:105370000448008940F2DC51884202DD06200249DF
:1053800008707047C84C0020E50000201048408994
:10539000B0F5966F03DA02200E49087017E00C484A
:1053A000408940F21451884209DD0948408940F2A1
:1053B000A461884203DA03200649087007E0044824
:1053C0004089B0F5E16F02DD0420024908707047A2
:1053D000C84C0020E400002028488089B0F5966F72
:1053E00013DA27480078022847D025480078032898
:1053F00003D10820234908703FE0214800780428A1
:105400003BD10B202049087037E01C48808940F2CE
:105410001451884219DD1948808940F2A4618842FC
:1054200013DA17480078022827D015480078032897
:1054300003D10920134908701FE01148007804289F
:105440001BD10C201049087017E00C488089B0F57A
:10545000E16F12DD0A48007802280ED00848007873
:10546000032803D10A200749087006E004480078A1
:10547000042802D10D20044908707047C84C002050
:10548000E4000020E6000020E70000201948C08961
:1054900040F2DC51884213DA17480078022828D0FD
:1054A00015480078032803D100201449487020E0F3
:1054B0001148007804281CD100201149087018E018
:1054C0000C48C08940F2DC51884212DD0A4800785D
:1054D00002280ED008480078032803D1012007498C
:1054E000487006E004480078042802D101200449ED
:1054F00008707047C84C0020E4000020EC00002039
:10550000E800002000BF0D480078072806D00828D2
:1055100005D0092806D00A280AD106E008E0FEF7DF
:1055200005F905E0FBF7D2F802E0FFF7F7FB00BF53
:1055300000BF012002F014FDE5E70000E6000020B6
:1055400010B5FBF701FB00207A4981F820000846DE
:1055500090ED070ADFED780AB4EEE00AF1EE10FAFA
:1055600059D890ED070ADFED750AB4EEE00AF1EEC6
:1055700010FA50DB7248B0F900007249B1F900101E
:10558000084400EE100AB8EEC00A6A48D0ED070AD7
:10559000B7EE001A70EE810AB4EEE00AF1EE10FAEE
:1055A0000BDDB0F9040000EE900AF8EEE00AB0EE70
:1055B000600A654800F0FCF846E06148B0F9000078
:1055C0006049B1F90010084400EE100AB8EEC00AB4
:1055D0005848D0ED070AB7EE001A70EEC10AB4EED3
:1055E000E00AF1EE10FA0CD2B0F90400404200EEED
:1055F000900AF8EEE00AB0EE600A534800F0D8F8DE
:1056000022E09FED520A504800F0D2F801204949AB
:1056100081F8210018E0474890ED070ADFED460ABF
:10562000B4EEE00AF1EE10FA07DD9FED490A4FF4FF
:10563000FA61454800F0FEFD06E09FED460A4FF492
:10564000FA61414800F0F6FD3A4890F82100002840
:1056500043D04148006888B340480068401C3F4937
:1056600008603F48007818B90C2003F0EBFC06E016
:105670003B480078012802D1072003F0E3FC3748BB
:105680000068B0F5FA6F0FDD9FED360A364800F07E
:105690008FF89FED360A3448703000F089F83448AE
:1056A0000068401C324908603148006840F6B83153
:1056B000884212DD0020284908600EE0FFE7002044
:1056C00003F0C0FC9FED210A274800F071F89FED20
:1056D0001F0A2548703000F06BF82349B1F9EA1031
:1056E000002903DD2049B1F9EA1003E01E49B1F9B0
:1056F000EA10494208460A2241F27C5103F08AFC32
:1057000010B100201B4908701A48007830B19FED95
:105710001A0A0D48703800F04BF80AE09FED0B0AAA
:105720000948703800F044F89FED080A0E4880EDF3
:10573000500A10BD905D00200000F0420000F0C251
:10574000F6000020F400002080510020000000003E
:10575000000048C200004842FC0000200401002074
:10576000E800002000C0DAC53050002000C0DA4553
:1057700000010020F8000020000048C300BF0B48D3
:1057800000780B2804D00C2805D00D2809D105E09D
:10579000FDF7DAFE05E0FEF757F802E0FFF7D0FE6E
:1057A00000BF00BF012002F0DBFBE8E7E7000020BC
:1057B0000221016080ED050A704710B54FF0E0202E
:1057C000006904F06BFB012801D003F0B5FF10BDA8
:1057D00000B593B0302107A8FAF76AFE142102A899
:1057E000FAF766FE00BF002001902448006840F0F0
:1057F0008050224908600846006800F080500190FF
:1058000000BF00BF00BF002001901D48006840F4A9
:1058100080401B4908600846006800F48040019001
:1058200000BF00BF012007900004089002200D90E7
:1058300041050E9104210F91A8211091022111918F
:105840000421129107A8FCF7A7FB08B1FBF7A7F802
:105850000F20029002200390002004904FF4A050EB
:1058600005904FF480500690052102A8FCF732FA0B
:1058700008B1FBF794F813B000BD000040380240B7
:10588000007000400348006840F47000014908605F
:105890007047000088ED00E010B50248FCF7C5FF36
:1058A00010BD0000F001002010B50248FCF7BDFF5C
:1058B00010BD0000A801002010B50248FCF7B5FF9C
:1058C00010BD00006001002010B50248FCF7ADFFDC
:1058D00010BD00005003002010B50268294B98420B
:1058E0000ED0B0F1804F0BD0274B984208D0274BF9
:1058F000984205D0264B984202D0264B984203D1BD
:1059000022F070024B681A431E4B984220D0B0F12F
:10591000804F1DD01C4B98421AD01C4B984217D078
:105920001B4B984214D01B4B984211D01A4B9842F3
:105930000ED01A4B98420BD0194B984208D0194BF5
:10594000984205D0184B984202D0184B984203D188
:1059500022F44072CB681A4322F080034C6943EA78
:10596000040202608B68C3620B688362054B984235
:1059700002D0084B984201D10B69036301234361B4
:1059800010BD00000000014000040040000800407D
:10599000000C004000040140004001400044014070
:1059A0000048014000180040001C0040002000405A
:1059B00030B501F01F05012404FA05F3046A9C4385
:1059C0000462046A01F01F0502FA05F52C43046223
:1059D00030BD30B50C46816821F47F4142EA032591
:1059E00025432943816030BD0A46816821F070015A
:1059F00042F00703194381607047000030B5056A23
:105A000025F001050562026A4368846924F0700488
:105A100024F003040D682C4322F002028D682A430F
:105A2000104DA84200D103E00F4DA84206D100BF9F
:105A300022F00802CD682A4322F00402094DA84250
:105A400002D0094DA84207D123F4807323F40073D8
:105A50004D692B438D692B43436084614D684563D9
:105A6000026230BD000001400004014030B5056A0B
:105A700025F010050562026A4368846924F4E04455
:105A800024F440740D6844EA052422F020028D6855
:105A900042EA0512124DA84200D103E0114DA8427E
:105AA00007D100BF22F08002CD6842EA051222F041
:105AB00040020B4DA84202D00A4DA84209D123F45E
:105AC000806323F400634D6943EA85038D6943EAEB
:105AD0008503436084614D688563026230BD0000C8
