:020000040800F2
:10000000C807002095040008690200086B02000878
:100010006F02000873020008770200080000000069
:100020000000000000000000000000007B0200084B
:100030007D020008000000007F0200088102000825
:10004000AF040008AF040008AF040008AF040008C4
:10005000AF040008AF040008AF040008AF040008B4
:10006000AF040008AF040008AF040008AF040008A4
:10007000AF040008AF040008AF040008AF04000894
:10008000AF040008AF040008AF040008AF04000884
:10009000AF040008AF040008AF040008AF04000874
:1000A000AF040008AF040008AF040008AF04000864
:1000B000AF040008AF040008AF040008AF04000854
:1000C000AF040008AF040008AF040008AF04000844
:1000D000AF040008BB140008AF040008AF04000818
:1000E000AF040008AF040008AF040008AF04000824
:1000F000AF040008AF040008AF040008AF04000814
:10010000AF040008AF040008AF040008AF04000803
:10011000B9170008AF040008AF040008AF040008D6
:10012000AF040008AF040008AF040008AF040008E3
:10013000AF040008AF040008AF040008AF040008D3
:10014000AF040008AF040008AF040008AF040008C3
:10015000AF040008AF040008AF040008AF040008B3
:10016000AF040008AF040008AF040008AF040008A3
:10017000AF040008AF040008AF040008AF04000893
:10018000AF040008AF04000800F002F800F03CF8EB
:100190000AA090E8000C82448344AAF10107DA45E2
:1001A00001D100F031F8AFF2090EBAE80F0013F0F8
:1001B000010F18BFFB1A43F001031847FC2D000084
:1001C0001C2E0000103A24BF78C878C1FAD8520714
:1001D00024BF30C830C144BF04680C6070470000C1
:1001E0000023002400250026103A28BF78C1FBD840
:1001F000520728BF30C148BF0B6070471FB502F0DF
:1002000040FE1FBD10B510BD01F00EFC1146FFF7FA
:10021000F5FF00F009F801F02CFC03B4FFF7F2FF42
:1002200003BC01F0EBF800004FF4A06000F052F9BD
:10023000A82001F061F84FF4E13001F0ECF801F092
:100240002FFB0DE0642001F0B9F806480068401C5F
:100250000449086008460068322801DD0020086073
:10026000F0E7000000000020704700BFFEE700BF7D
:10027000FEE700BFFEE700BFFEE77047704770472C
:10028000704700000CB5002001900090764800688F
:1002900040F480307449086000BF7348006800F47F
:1002A000003000900198401C0190009818B9019806
:1002B000B0F5A04FF1D16C48006800F4003010B1E7
:1002C0000120009001E0002000900098012846D114
:1002D00065484030006840F0805063494031086014
:1002E0006248006840F44040604908605E48083059
:1002F00000685D49083108600846006840F4004025
:1003000008600846006840F4A05008605848091F7B
:100310000860081F006840F08070091F086000BF77
:100320005148006800F000700028F9D040F20570D4
:10033000504908604C480830006820F003004A49E2
:10034000083108600846006840F00200086000BFFD
:1003500045480830006800F00C000828F8D10CBDB2
:1003600010B54548006840F47000434908603E48B5
:10037000006840F001003C49086000203A4908311B
:100380000860394800683D490840374908603C48E2
:10039000091D0860081F006820F48020091F0860FC
:1003A000002031490C310860FFF76CFF4FF000600E
:1003B00031498039086010BD70B500200022022349
:1003C00000240221284D08352D6805F00C0020B1CD
:1003D000042806D0082834D107E02A4D2A4E35607B
:1003E00033E02A4D284E35602FE01F4D2D1D2D681E
:1003F000C5F380541C4D2D1D2D6805F03F0154B1EF
:10040000224DB5FBF1F5184E361D3668C6F3881639
:1004100005FB06F209E01B4DB5FBF1F5124E361D4A
:100420003668C6F3881605FB06F20F4D2D1D2D68A4
:10043000C5F301456D1C6B00B2FBF3F5124E356040
:1004400003E0104D104E356000BF00BF064D08356B
:100450002D68C5F303150E4E705D0B4D2D68C5401C
:10046000094E356070BD0000003802400070004049
:1004700008544007003C024088ED00E0FFFFF6FE14
:10048000103000240024F4000400002000127A0040
:10049000080000200948804709480047FEE7FEE7BA
:1004A000FEE7FEE7FEE7FEE7FEE7FEE7FEE7FEE724
:1004B00004480549054A064B7047000061030008DF
:1004C00089010008C8010020C8070020C8030020D7
:1004D000C803002032490143324A1160704770B5A9
:1004E000002100230F22C4781CB32E4C246804F48E
:1004F000E064C4F5E064C4F30721C1F10404E3B28D
:100500000A4144789C40E1B28478144021430C07AE
:10051000210E254C05786155047804F01F0501244F
:10052000AC4005786D11AD0005F1E025C5F800413E
:1005300009E0047804F01F050124AC401B4D067847
:10054000761145F8264070BD194A0A400243154B02
:100550001B1F1A60704739B1124A121D12680243FC
:10056000104B1B1D1A6006E00E4A121D12688243D2
:100570000C4B1B1D1A607047042808D14FF0E02176
:10058000096941F004014FF0E022116107E04FF0EA
:10059000E021096921F004014FF0E0221161704768
:1005A0000000FA050CED00E000E400E080E100E06E
:1005B00080FFFF1F10B504469848844208D10121EE
:1005C000084600F086FB0021012000F082FB76E067
:1005D0009348844208D10121022000F07AFB0021D7
:1005E000022000F076FB6AE08E48844208D10121A7
:1005F000042000F06EFB0021042000F06AFB5EE0A6
:100600008948844208D10121082000F062FB0021C2
:10061000082000F05EFB52E08448844208D10121AA
:10062000102000F056FB0021102000F052FB46E0A5
:100630007F48844208D10121202000F04AFB00219C
:10064000202000F046FB3AE07A48844208D101219C
:10065000402000F03EFB0021402000F03AFB2EE05D
:100660007548844208D10121802000F032FB00212E
:10067000802000F02EFB22E07048844208D1012146
:10068000801500F026FB0021A01500F022FB16E0EB
:100690006B48844208D10121401500F01AFB00216B
:1006A000601500F016FB0AE06648844207D101217C
:1006B000001500F00EFB0021201500F00AFB10BD14
:1006C000F0B50A4600210023002400BF3DE00125CB
:1006D00005FA01F3156805EA03049C4234D1056864
:1006E0004F000326BE40B543056015794E00B54066
:1006F0000668354305601579012D02D01579022D64
:1007000016D185684F000326BE40B54385605579F4
:100710004E00B540866835438560456801268E40A9
:10072000B5434560456896798E40B6B2354345601D
:10073000C5684F000326BE40B543C560D5794E005D
:10074000B540C6683543C560491C1029BFD3F0BD0C
:100750004FF6FF7101600021017141718171C1711A
:10076000704708B54FF480320092009A0A43009215
:10077000009AC261C161009AC261C2690092C269F5
:10078000009208BD0246002013690B400BB1012006
:1007900000E0002070470146086980B270470246B9
:1007A000002053690B400BB1012000E0002070478E
:1007B0000146486980B270470183704741837047A2
:1007C0000AB1018300E0418370474161704742698B
:1007D0004A4042617047F0B5002300244D07ED0EFA
:1007E00002FA05F3CE1000F1200555F826504E0709
:1007F000F70E0F26BE40B543CF1000F1200646F895
:100800002750CE1000F1200555F8265045EA030484
:10081000CE1000F1200545F82640F0BD0000024052
:100820000004024000080240000C02400010024098
:100830000014024000180240001C02400020024048
:100840000024024000280240F948006840F00100FE
:10085000F74908600020F64908310860F44800684C
:10086000F4490840F2490860F348091D0860F3485C
:10087000EF4984310860F0481038091D0860EC48E1
:10088000006820F48020EA4908600020E8490C3123
:100890000860E7498C31086070470021E44A921CE7
:1008A000117011460870704710B5014600220023F0
:1008B00000204A11012A02D1DD4C236808E0022AF7
:1008C00003D1DB4C7034236802E0D94C74342368C4
:1008D00001F01F02012494401C400CB1012000E0F3
:1008E000002010BD38B5002000900024002500BF76
:1008F0003120FFF7D9FF05460098401C0090009872
:10090000B0F5A04F01D0002DF2D03120FFF7CCFF81
:1009100008B1012400E00024204638BD0146002033
:10092000C34A106820F0F80040EAC1001060704728
:10093000C349086070470021BD4A703211701170C0
:10094000012802D004280AD104E00121B84A7032FB
:10095000117005E00521B64A7032117000E000BF49
:1009600000BF7047B7490860704770B5049C41EA02
:1009700082150126C6EB530645EA0645054345EABE
:100980000465AB4E361D356070BDAD4908667047D5
:10099000820142EA0172A64B84331A607047A8496B
:1009A0008866704710B5830143EA016343EA027326
:1009B0009F4C8834236010BDA14908677047A04947
:1009C000C864704702460020994B0833186820F02D
:1009D000EC6042EA01031843954B083318607047F6
:1009E00002460020924B0833186820F0784042EA13
:1009F000010318438E4B08331860704701460020EE
:100A00008B4A0832106820F00300084310607047DA
:100A100087480830006800F00C007047014600204D
:100A2000834A0832106820F0F000084310607047D5
:100A3000014600207E4A0832106820F4E050084346
:100A40001060704701460020794A0832106820F48F
:100A5000604040EAC10010607047F0B500210022FC
:100A60000024022500260223714F08373F6807F053
:100A70000C0121B1042905D0082937D105E0724FB6
:100A8000076036E0714F076033E0694F3F1D3F68F4
:100A9000C7F38056664F3F1D3F6807F03F036EB1B6
:100AA0006A4FB7FBF3F7DFF888C10CF1040CDCF8F0
:100AB00000C0CCF3881C07FB0CF40CE0624FB7FBC2
:100AC000F3F7DFF86CC10CF1040CDCF800C0CCF3D8
:100AD000881C07FB0CF4564F3F1D3F68C7F30147C6
:100AE0007F1C7D00B4FBF5F7076002E0564F0760FE
:100AF00000BF00BF4E4F08373F6807F0F0010909FB
:100B0000534F7A5C0768D7404760494F08373F68C2
:100B100007F4E051890A4E4F7A5C4768D7408760F6
:100B2000434F08373F6807F46041490B484F7A5CF0
:100B30004768D740C760F0BD002100F44072B2F5AD
:100B4000407F0AD13A4A0832116821F4F811414A2B
:100B500002401143364A08321160354A7032126839
:100B6000C0F30B031A43324B70331A607047354998
:100B70004439086070473349403908607047364946
:100B80000860704701460020294A8C32106820F026
:100B90001F004A1E1043264A8C32106070470146DF
:100BA0000020234A8C32106820F4F8504A1E40EA94
:100BB00002201F4A8C3210607047014600201C4AF8
:100BC0008C32106820F440100843106070470146D2
:100BD0000020174A8C32106820F44000084310604F
:100BE000704701460020124A8C32106820F44030D1
:100BF00008431060704719490860704739B10C4AC2
:100C00003032126802430A4B30331A6006E0084A59
:100C1000303212688243064B30331A607047F9B1A4
:100C2000034A343212680243014B34331A601CE029
:100C300000380240FFFFF6EA1030002400300020A8
:100C400000004742800E47420024F40000127A0060
:100C500018000020FFFCFF0F5C014742E0114742F3
:100C60008F4A126882438E4B1A60704739B18C4AA2
:100C7000121D126802438A4B1B1D1A6006E0884A47
:100C8000121D12688243864B1B1D1A60704739B1D2
:100C9000834A0C3212680243814B0C331A6006E01F
:100CA0007F4A0C32126882437D4B0C331A607047C6
:100CB00039B17B4A103212680243794B10331A6003
:100CC00006E0774A103212688243754B10331A607F
:100CD000704739B1724A243A12680243704B243B80
:100CE0001A6006E06E4A243A126882436C4B243B39
:100CF0001A60704739B16A4A203A12680243684B59
:100D0000203B1A6006E0664A203A12688243644B30
:100D1000203B1A60704739B1614A1C3A126802439D
:100D20005F4B1C3B1A6006E05D4A1C3A1268824326
:100D30005B4B1C3B1A60704739B1594A143A126830
:100D40000243574B143B1A6006E0554A143A1268A6
:100D50008243534B143B1A60704739B1504A103AE2
:100D6000126802434E4B103B1A6006E04C4A103AA0
:100D7000126882434A4B103B1A60704739B1484AA7
:100D80001C3212680243464B1C331A6006E0444A88
:100D90001C3212688243424B1C331A60704739B1CF
:100DA0003F4A2032126802433D4B20331A6006E06E
:100DB0003B4A203212688243394B20331A60704715
:100DC00039B1374A243212680243354B24331A6052
:100DD00006E0334A243212688243314B24331A60CE
:100DE000704739B12E4A2C32126802432C4B2C33F7
:100DF0001A6006E02A4A2C3212688243284B2C33B0
:100E00001A60704739B1264A303212680243244BC7
:100E100030331A6006E0224A303212688243204B97
:100E200030331A607047012808D11D493C310968E8
:100E300041F008011A4A3C32116007E018493C3180
:100E4000096821F00801164A3C321160704739B137
:100E5000134A273A12780243114B273B1A7006E0D7
:100E60000F4A273A127882430D4B273B1A7070477E
:100E70000B484030006840F08070094940310860FC
:100E8000704701460020064A283A12680A400AB113
:100E9000012000E0002070470149263908707047A2
:100EA0003438024010B50446FA48844208D1012182
:100EB0001020FFF752FF00211020FFF74EFF57E0F0
:100EC000F548844209D101214804FFF735FF00218C
:100ED0004FF40030FFF730FF4AE0F048844209D178
:100EE00001218804FFF728FF00214FF48020FFF73D
:100EF00023FF3DE0EA48844209D10121C804FFF7FD
:100F00001BFF00214FF40020FFF716FF30E0E548FB
:100F1000844209D101210805FFF70EFF00214FF49B
:100F20008010FFF709FF23E0DF48844208D1012148
:100F30002020FFF712FF00212020FFF70EFF17E00F
:100F4000DA48844209D101218807FFF7F5FE002124
:100F50004FF08040FFF7F0FE0AE0D548844207D109
:100F600001214005FFF7E8FE00216005FFF7E4FEE0
:100F700010BD2DE9FF4705460E460024A14600BFDF
:100F8000A046B08900B100BF2C8A24F44054F088F8
:100F900004432C82AC8941F20C608443B0883189CF
:100FA0000843718908430443AC81AC8A24F440743B
:100FB000B0890443AC826846FFF74FFDB5488542CF
:100FC00002D0B948854202D1DDF80C9001E0DDF88D
:100FD0000890A88900F4004040B109EBC90000EB7B
:100FE000091031684900B0FBF1F707E009EBC900CF
:100FF00000EB091031688900B0FBF1F76420B7FB02
:10100000F0F004012009642101FB1078A88900F4A4
:10101000004040B1322000EBC800B0FBF1F000F01E
:101020000700044308E0322000EB08106421B0FB05
:10103000F1F000F00F0004432C81BDE8FF874FF46E
:101040001651016000218180C18001810C21418104
:1010500000218181704710B502460020108A20F4DB
:1010600070600B884C8823438C882343CC882343AF
:101070001843108210BD0021018041808180C18011
:10108000704721B1828942F40052828104E0828952
:101090004DF6FF731A4082817047028B02F47F4243
:1010A0000283028B0A430283704721B1828942F492
:1010B0000042828103E08289C2F30E02828170477E
:1010C00021B1828A42F40062828204E0828A4FF275
:1010D000FF731A4082827047C1F308028280704712
:1010E00001468888C0F308007047028A4FF6F07303
:1010F0001A400282028A0A430282704721B1828921
:1011000042F00202828104E082894FF6FD731A40A8
:101110008281704782894FF2FF731A4082818289EF
:101120000A4382817047028A4FF6DF731A400282B7
:10113000028A0A430282704721B1028A42F4804245
:10114000028204E0028A4BF6FF731A400282704763
:10115000818941F001018181704721B1828A42F089
:101160000802828204E0828A4FF6F7731A40828274
:101170007047028BD2B20283028B42EA01220283C1
:10118000704721B1828A42F02002828204E0828A82
:101190004FF6DF731A408282704721B1828A42F093
:1011A0001002828204E0828A4FF6EF731A40828234
:1011B0007047828A4FF6FB731A408282828A0A4302
:1011C0008282704721B1828A42F00202828204E068
:1011D000828A4FF6FD731A40828270471AB1838A61
:1011E0000B43838202E0838A8B4383827047F0B58E
:1011F0000346002400260025002040F66A17B94265
:1012000000D100BF1846C1F3421401F01F060127A8
:1012100007FA06F5012C01D10C3004E0022C01D1B3
:10122000103000E014301AB107682F43076002E065
:101230000768AF430760F0BD02460020B1F5007FAC
:1012400000D100BF13880B400BB1012000E000204B
:10125000704701F40072B2F5007F00D100BFCA43AD
:101260000280704770B5024600240023002500204C
:1012700040F66A16B14200D100BFC1F3421501F039
:101280001F03012606FA03F3012D13D1968933407B
:1012900017E00000001001400044004000480040FA
:1012A000004C004000500040001401400078004015
:1012B000007C0040022D02D1168A334001E0968A5C
:1012C00033400C12012606FA04F41688344013B198
:1012D0000CB1012000E0002070BD10B500220023F9
:1012E00040F66A14A14200D100BF0A1201249440C2
:1012F000A3B2DC43048010BD10B504466FF00400B7
:10130000FFF73AF9E11704EB5171C1F3C701394A0C
:1013100011701046007800EB4001C1EBC0104FF691
:10132000FF7101EAC0003449088010BD0146314A0E
:1013300012784A434FF0E0235A6100229A611A461C
:10134000126942F001021A6100BF4FF0E0221069F9
:1013500000F001021AB100F48032002AF5D04FF0FB
:10136000E022126922F001024FF0E0231A6100220C
:101370009A6170470146204A12884A434FF0E023A1
:101380005A6100229A611A46126942F001021A61FA
:1013900000BF4FF0E022106900F001021AB100F422
:1013A0008032002AF5D04FF0E022126922F00102CB
:1013B0004FF0E0231A6100229A61704770B504462D
:1013C0004FF4077094FBF0F0C6B24FF4077094FB33
:1013D000F0F100FB114085B205E04FF40770FFF714
:1013E000C9FF701EC6B2002EF7D115B12846FFF70F
:1013F000C1FF70BD280000202A00002000BF7047F8
:1014000000BF4C4A128802F04002002AF9D0C2B252
:10141000484B9A80704710B588B0044601210846B1
:10142000FFF7ECFB01211020FFF742FC0722092106
:101430004148FFF7D0F907220A213F48FFF7CBF9CF
:101440004FF4C060069002208DF81C008DF81D003E
:1014500000208DF81E0001208DF81F0006A93648D7
:10146000FFF72EF902940020ADF80C00ADF80E0045
:10147000ADF81000ADF814000C20ADF8120002A970
:101480002C48FFF776FD01212A48FFF7FAFD0122DB
:1014900040F225512748FFF7AAFE25208DF80400C9
:1014A00003208DF805008DF8060001208DF8070057
:1014B00001A8FFF714F808B010BD10B540F225518F
:1014C0001C48FFF7CFFE10B31A48FFF709FEC4B25D
:1014D0001A48008800F40040C8B91848008800F491
:1014E000804060B10A2C03D000201449088020E01D
:1014F0001248008840F400401049088019E00D2C83
:1015000006D10E48008840F480400C49088010E065
:101510000A480088C0F30D0009490C5407480088A8
:10152000401C0649088008460088C72801DD0020C5
:10153000088010BD00100140000002403000002073
:101540005400002010B588B0044601210420FFF7A4
:1015500055FB0121C804FFF79AFB08220A213348F2
:10156000FFF739F908220B213048FFF734F94FF41F
:101570004060069002208DF81C008DF81D000020B0
:101580008DF81E0001208DF81F0006A92748FFF7DF
:1015900097F802940020ADF80C00ADF80E00ADF8FD
:1015A0001000ADF814000C20ADF8120002A920487C
:1015B000FFF7DFFC01211E48FFF763FD34208DF8A3
:1015C000040001208DF8050002208DF8060001209E
:1015D0008DF8070001A8FEF782FF40211448FFF7AD
:1015E00038FE012240F225511148FFF700FE08B0F5
:1015F00010BD70B506460C46002540213046FFF769
:1016000028FE0FE0615D3046FFF766FD00BF402118
:101610003046FFF711FE0028F9D040213046FFF791
:1016200018FE6D1C605D0028ECD170BD0008024002
:10163000004C004070B52DED0A8B0446D74890ED64
:10164000030A80ED060A90ED040A80ED070A94ED86
:10165000000A80ED000A94ED010A80ED010A94ED84
:10166000020A80ED020A94ED030A80ED030A94ED6C
:10167000040A80ED040A94ED050A80ED050A90ED58
:10168000030AD0ED060A30EE600A80ED080A90EDFC
:10169000040AD0ED070A30EE600A80ED090A90EDE9
:1016A0000A0AD0ED080A30EE200A80ED0A0A90ED11
:1016B0000B0AD0ED090A30EE200A80ED0B0A90EDFE
:1016C000000AB1EE400AB64880ED000A90ED000A2B
:1016D000DFEDB40A20EE200ADFEDB30A80EE201A17
:1016E00011EE105A284601F05BFB41EC1C0BB0EEEA
:1016F0004C0AF0EE6C0A00F043FAB0EE40BAF0EE9D
:1017000060BA9FEDAA0B53EC102B51EC1B0B01F0B0
:1017100053F941EC190BA14890ED0A0A10EE101A8A
:10172000084601F03DFB41EC1A0B53EC192B00F07D
:10173000E9FE41EC180B00F0B3FE9E4908609848A2
:1017400090ED000ADFED970A20EE200ADFED960A01
:1017500080EE201A11EE105A284601F021FB41ECD0
:101760001C0BB0EE4C0AF0EE6C0A00F0A5F9B0EEDE
:1017700040BAF0EE60BA9FED8D0B53EC102B51EC9C
:101780001B0B01F019F941EC190B844890ED0B0A81
:1017900010EE101A084601F003FB41EC1A0B53EC53
:1017A000192B00F0AFFE41EC180B00F079FE8249D6
:1017B0000860BDEC0A8B70BD10B540F225517F4822
:1017C000FFF750FD01286AD17C48FFF789FC7C496E
:1017D00008707C480078052857D2DFE800F0031134
:1017E000263D4B00764800780D2805D175480078D5
:1017F000401C7449087002E000207249087048E0FB
:101800006F4800780A2808D100206F4908706D4899
:101810000078401C6B49087006E0694800780D2884
:1018200002D000206749087033E0654800786749B6
:10183000654A1278885464480078401C62490870F0
:1018400008460078182806DB002008705D480078FC
:10185000401C5C4908701CE0594800780A2805D1F2
:1018600058480078401C5749087002E0002055494C
:1018700008700EE0524800780D2802D15348FFF757
:10188000D9FE00204F49087003E000204D49087040
:1018900000BF00BF40F225514848FFF71EFD10BDB4
:1018A00010B54FF4E130FFF74DFE9FED490A3B487C
:1018B00080ED0A0A9FED460A80ED0B0A10BD10B5B7
:1018C0002DED028BB0EE408A0024424880ED008A64
:1018D00041A13A48FFF78DFE00BF0CE03D48015D95
:1018E0003648FFF7F9FB00BF40213448FFF7A4FC5E
:1018F0000028F9D0641C042CF0DB40212F48FFF7AE
:10190000A8FCBDEC028B10BD10B52DED028BB0EE26
:10191000408A0024324880ED008A32A12748FFF730
:1019200068FE00BF0CE02E48015D2448FFF7D4FBA1
:1019300000BF40212148FFF77FFC0028F9D0641C3C
:10194000042CF0DB40211D48FFF783FCBDEC028B2B
:1019500010BD10B52DED028BB0EE408A0024234857
:1019600080ED008A22A11548FFF743FE00BF0CE07E
:101970001E48015D1148FFF7AFFB00BF40210F4833
:10198000FFF75AFC0028F9D0641C042CF0DB40213E
:101990000A48FFF75EFCBDEC028B10BD1C01002065
:1019A0003C000020DA0F49400000344300000000F2
:1019B000000000003400002038000020004C0040EF
:1019C0004400002045000020460000204C0100207B
:1019D0006F12833A480000204143544A000000003F
:1019E0004C000020414354580000000050000020EB
:1019F00041435459000000007047704770477047DA
:101A0000704710B500F008F8006810BD10B5044626
:101A100000F002F8046010BD004870476401002027
:101A200000487047640100207546FFF7F9FFAE4695
:101A300005006946534620F00700854618B020B5DA
:101A4000FEF736FDBDE820404FF000064FF00007DE
:101A50004FF000084FF0000B21F00701AC46ACE856
:101A6000C009ACE8C009ACE8C009ACE8C0098D46C3
:101A7000704710B50446AFF300802046BDE8104023
:101A8000FEF7CBBB03B401984100009850EAC12097
:101A900018BF04204A0D18BF40F0010040F2FF7249
:101AA000B2EB515F08BF40F00200012808BF0520DB
:101AB00002B070470000000010B52F499FED2C1BAD
:101AC0002DED020B84B0059820F000408842D8BF6D
:101AD0009DED040B2DDD2949884209D1049840B9B8
:101AE0004FF00100FFF792FF00F0A2FC06B010BD1E
:101AF00005DB9DED040B00F08FFC06B010BD6846C1
:101B00009DED040B00F0A0F810F0030004BF9DED64
:101B1000021B9DED000B0CD001280ED09DED021B89
:101B20009DED000B022817D0012000F0DDFB06B070
:101B300010BD00F0A5FA06B010BD9DED021B9DED95
:101B4000000B012000F0D0FB51EC100B00F09CFCCE
:101B500006B041EC100B10BD00F092FA51EC100BE6
:101B600000F092FC06B041EC100B10BD000000002C
:101B70000000000000000000FB21E93F0000F07FB2
:101B800010B52F499FED2C1B2DED020B84B005984D
:101B900020F000408842DCBF00209DED040B32DDC8
:101BA0002849884209D1049840B94FF00100FFF755
:101BB0002DFF00F03DFC06B010BD05DB9DED040BD4
:101BC00000F02AFC06B010BD68469DED040B00F045
:101BD0003BF810F0030011D0012818D09DED021B36
:101BE0009DED000B02281AD000F04AFA51EC100BC0
:101BF00000F04AFC06B041EC100B10BD9DED021B3D
:101C00009DED000B012000F06FFB06B010BD9DEDB7
:101C1000021B9DED000B00F033FA06B010BD012051
:101C200000F062FB51EC100B00F02EFC06B041EC12
:101C3000100B10BD000000000000000000000000BC
:101C4000FB21E93F0000F07F2DE9F14F04462DED27
:101C5000020B2DED088B8AB09FEDE70B80ED020B98
:101C6000139EE74826F0004585420ADC9DED120BE5
:101C7000002084ED000B0AB0BDEC088B03B0BDE87A
:101C8000F08FE0489FEDE0AB9FEDE1BBA84247DD60
:101C9000E14F9FEDE39B9FEDE48B9DED120B53EC29
:101CA0001A2B51EC100B002E1CDD00F08FFF41ECC5
:101CB000100BBD4208D053EC1B2B51EC100B00F065
:101CC00085FFC4E900010BE053EC192B51EC100B1C
:101CD00000F07CFF53EC182B00F078FFC4E9000102
:101CE0000120C8E700F00EFC41EC100BBD4208D00B
:101CF00053EC1B2B51EC100B00F004FCC4E9000169
:101D00000BE053EC192B51EC100B00F0FBFB53ECE8
:101D1000182B00F0F7FBC4E900014FF0FF30AAE7F1
:101D2000C348A84279DB9DED120B51EC100B00F07B
:101D30009FFB41EC180B9FEDC00B53EC102B00F0F8
:101D40003BFE9FEDBF1B53EC112B00F0DBFB00F0C3
:101D5000D9FD074600F005FE41EC190B53EC1A2B98
:101D600000F02AFE53EC182B00F024FF41EC180B76
:101D700053EC1B2B51EC190B00F01EFEDFF8C8A230
:101D800041EC100B4FEA15580125FA4453EC102B87
:101D900051EC180B00F01AFF032DC4E900013DD0EF
:101DA000C1F30A5005EB4511A8EB0000113981423F
:101DB00034DA0AEB051BB0EE48AA9BED000BF0EEFF
:101DC00068AA53EC102B51EC190B00F0F5FD41EC17
:101DD0001B0B51EC1A0B53EC1B2B00F0F7FE41ECE4
:101DE000180B51EC1A0B53EC182B00F0EFFE53ECD0
:101DF0001B2B00F0EBFE9BED020B41EC1A0B53EC9E
:101E0000102B51EC190B00F0D7FD53EC1A2B00F0FE
:101E1000DDFE41EC100B6D1CB8E70EE0002EA8BFF4
:101E20003846BFF628AF94ED000B51EC100B00F0D4
:101E30002BFBC4E9000178421DE7C6F3130040F410
:101E4000801EC6F30A50A0F2F530471100F01F05BE
:101E5000C5F12000DDF848B00890002006900790FA
:101E60000520EC467949002D07EB0002794408BFB4
:101E700051F8221009D051F8223001EB8201AB4019
:101E80004A68089922FA01F11943A1FB0E26A1FB29
:101E90000B131A449A4234BF0123002303EB0608B4
:101EA0000CEB8003D3E901A60E448E4234BF01211E
:101EB000002192448A4411B1924502D903E092452F
:101EC00001D2012100E00021C3E901A641444CF800
:101ED0002010011EA0F10100C4DC029800F10050A6
:101EE000850F0298DDE903678000DDF8148000F0BB
:101EF00038FD41EC1A0B304600F04AFD9FED541BB3
:101F000053EC112B00F058FD41EC1B0B384600F050
:101F10003FFD9FED511B53EC112B00F04DFD41ECAB
:101F2000180B404600F034FD9FED4D1B53EC112B78
:101F300000F042FD41EC190B51EC180B53EC192B3E
:101F400000F0E0FA53EC1B2B00F0DCFA53EC1A2BF8
:101F500000F0D8FACDE90801002008909DED080BAB
:101F600053EC1A2B51EC100B00F030FE53EC1B2BF2
:101F700000F02CFE53EC182B00F028FE53EC192B2C
:101F800000F018FE9FED381B53EC112B00F014FDF0
:101F90009FED370B41EC180B53EC102B9DED080B0C
:101FA00051EC100B00F008FD53EC182B00F0AAFACE
:101FB0009FED310B41EC180B53EC102B9DED080BF2
:101FC00051EC100B00F0F8FC53EC182B00F09AFACF
:101FD00041EC100B139810F0004F06D06D4251ECFD
:101FE000100B00F051FA41EC100B284684ED000B69
:101FF00041E60000000000000000000000000000BA
:10200000FB21E93F7CD9024000004054FB21F93F0D
:102010003163621A61B4D03DFB21F93F000000003A
:102020000000601A61B4D03D7370032E8A19A33B7F
:10203000FB2139410000000083C8C96D305FE43FD7
:10204000000000000000E03F3A110000881000008E
:10205000000000000000103E000000000000103CE6
:10206000000000000000103A182D4454FB21F93DF7
:102070003326A611460B113C00000054FB21F93D0C
:1020800010B52DED040B2DED088B82B0B0EE419A0A
:10209000F0EE619A0B9820F000449FED4BABB4F149
:1020A000795F11DA9DED0A0B51EC100B00F02AFC60
:1020B000002801BFB0EE4A0AF0EE6A0A02B0BDEC99
:1020C000088B04BF04B010BD9DED0A0B53EC102B20
:1020D00051EC100B00F070FC41EC180B3C48062151
:1020E000B0EE480AF0EE680A784400F081F853EC4C
:1020F000182B51EC100B00F05FFC9DED0A0B41EC2E
:102100001B0B53EC192B51EC100B00F055FC41EC60
:10211000190B53EC1B2B51EC180B00F04DFC53EC3E
:10212000192B00F053FD9FED2C0B41EC190B53ECD8
:10213000102B51EC180B00F03FFC41EC100B284821
:10214000844210DA53EC192B51EC100B00F03EFDD9
:1021500053EC1A2B00F02EFD41EC100B02B0BDEC3D
:10216000088B04B010BD1F48A042BCBF9FED1E1BD2
:102170008DED001B06DBA4F50010019000200090FF
:102180009DED001B51EC100B53EC112B00F01EFDCC
:102190009DED000B41EC180B53EC102B51EC1A0B7E
:1021A00000F014FD41EC1A0B53EC192B51EC180BF9
:1021B00000F00CFD53EC1A2B00F0FCFC41EC100B72
:1021C000CCE7000000000000000000000000F03F2D
:1021D000AC0D000000000000000000000000E03F27
:1021E0003333D33F0000E93F000000000000D23F3E
:1021F00070B504462DED028B4D1E00EBC500B0EE10
:10220000408AF0EE608A90ED000B35F0060017D0A2
:1022100053EC182B51EC100B00F0CEFB41EC100BE3
:102220006D1E04EBC50090ED001B51EC100B53EC40
:10223000112B00F067F941EC100B35F00600E7D1E7
:10224000022D36D0042D1CD0062D1CBFBDEC028BF8
:1022500070BD53EC182B51EC100B00F0ADFB94ED5E
:102260000A1B53EC112B00F04DF953EC182B00F026
:10227000A3FB94ED081B53EC112B00F043F941EC48
:10228000100B53EC182B51EC100B00F095FB94ED58
:10229000061B53EC112B00F035F953EC182B00F012
:1022A0008BFB94ED040B53EC102B00F02BF941EC5D
:1022B000100B53EC182B51EC100B00F07DFB94ED40
:1022C000021B53EC112B00F01DF953EC182B00F0FE
:1022D00073FB94ED001B53EC112B00F013F9BDECD4
:1022E000028B41EC100B70BD31B504462DED040B93
:1022F0002DED0A8BB0EE41BAF0EE61BA0B989DED70
:102300000A0B20F00040B0F1795F0DDA51EC100BB0
:10231000FFF7B8FB042808BF00F09AF89DED0A0B00
:10232000BDEC0A8B05B030BD53EC102B51EC100BFB
:1023300000F042FB41EC180B9DED0A0B53EC182BFF
:1023400051EC100B00F038FB41EC190B2C48B0EEAF
:10235000480AF0EE680A05217844FFF749FF9FED2F
:102360002ACBB0EE40AAF0EE60AA9CB353EC1C2B33
:1023700051EC190B00F020FB41EC1C0B53EC1A2B19
:1023800051EC190B00F018FB9FED210B41EC190BE0
:1023900053EC102B51EC1B0B00F00EFB53EC192BE4
:1023A00000F014FC53EC182B00F006FB53EC1B2B35
:1023B00000F00CFC53EC1C2B00F008FC9DED0A1BFC
:1023C00053EC112B00F0F6FBBDEC0A8B05B041EC91
:1023D000100B30BDFFE753EC1A2B51EC180B00F03B
:1023E000EBFA53EC1C2B00F08DF853EC192B00F09A
:1023F000E3FA9DED0A1B53EC112B00F083F8E3E7A1
:10240000340C000000000000495555555555C5BF16
:10241000000000000000E03F10B553EC102B51EC21
:10242000100B00F06FF841EC100B10BD0000000025
:102430009FED050B10B553EC102B51EC100B00F079
:1024400009F941EC100B10BD000000000000000075
:102450009FED050B10B553EC102B51EC100B00F059
:10246000ABFA41EC100B10BD0000000000000010A2
:1024700082B0CDE9000121F0004001909DED000BFC
:1024800002B051EC100B704781F00041704780F0B2
:102490000040704721F00041704720F00040704735
:1024A00021F00042A2F16052B2F5801F01F000431A
:1024B00028BFD2F17F6C0BD95FEA001C43EAC2024D
:1024C00042EB507018BF704728BF20F001007047E2
:1024D000B2F5801FBCBF184670474FEA410C1CF58F
:1024E000001F02D2084600F0D1BC70B500F00EFB10
:1024F00000000089FFF7F6BF4FF00040A0F5800014
:102500007047000010B591EA030F48BF83F0004305
:1025100000F16483841A71EB030C05D2121943EBAA
:102520000C03001B61EB0C01DFF824E14FEA1154AE
:10253000A4EB135C1EEA430F18BF9EEA445F73D0FE
:1025400023EA0E03DCF1200E21EA045143F4801348
:1025500032D322FA0CFE10EB0E0023FA0CFE41EBF4
:102560000E01CCF1200E03FA0EFE10EB0E0051F11D
:102570000001B1F5801FCCF1200E32D201EB0451E5
:1025800012FA0EF2BDE8104058BF7047401C38BF29
:102590005FEA420218BF7047002814BF20F0010014
:1025A00041F100014FEA410313F5001F38BF7047A6
:1025B000A1F1C04100F0F8BA012A43EB0302ACF1EB
:1025C000200CDCF11F0E32BF4FF0000E23FA0CF38B
:1025D00010EB030041EB0451B4EB115FD0D0A1EB41
:1025E000045101F5801149085FEA300001EB045104
:1025F0000ED350F1000038BF12FA0EFE08D1BDE82C
:102600001040C9E7401C38BF5FEA4202CAD1C3E7A5
:10261000BDE810404FEA410313F5001F38BF704773
:10262000A1F1C04100F0C0BA9EEA445F08D011EAAF
:102630005E0FBDE8104004BF01F00041002070476C
:10264000BDE8104070B500F061FA00BF64FBBE3E0B
:102650000000E0FF2DE9C04130B4DFF8A0C23CEA41
:10266000111418BF3CEA131400F0EC8081EA030552
:102670001CEA111444EAD57418BF1CEA131500F0C3
:10268000C780A4EB05044FF0004545EAC12145EAA7
:10269000C32341EA505143EA525304F17F749942F3
:1026A00004F500344FEAC0204FEAC22208BF90422E
:1026B00000F09C804FEA13650FF24016765D4FEAFA
:1026C000134506FB05F7C7F1807706FB07F74FEACE
:1026D000D737A7FB03687642C8F58038A7FB06CE3C
:1026E00038BFA8F1010807FB08E64FF0000EA6FB73
:1026F000028CE6FB03CEDCF1000CCEF1004E38BFBD
:10270000AEF1010EA6FB0C584FF000074FF000058C
:10271000E6FB0E87A1FB08C6A0FB07CE16EB0E0654
:1027200045F10005E1FB076515F1E04E7EBFA4F51C
:1027300080345FEA46066D4116F1800745F10005D9
:102740004FEA17274FEA066647EA0567A6F1DE4615
:10275000B6F1805F4FEA15251FD9384624F0010CE9
:1027600005EBC471BCF1FE6F01EB0C1102D8F0BC9B
:10277000BDE8008124425CBF01F5801E9EEAC47F53
:1027800002D4F0BCBDE80081244238D4F0BCA1F1F1
:10279000C041BDE8004100F007BA4FEAD22242EA48
:1027A00043524FEAD323A7FB02864FEAD02040EAE8
:1027B000415007FB03661EEA0E0F4FEAD12105FBCD
:1027C000026658BFA6EB0056B6EB00564FEA520E13
:1027D0004EEAC37E18EB0E0E56EB530EBDD518EB2A
:1027E00002085E417F1C55F10005B6E74FF48015E5
:1027F0004FF000074FF000064FF00008ADE7F0BCC7
:102800004FF0000001F1C04101F00041BDE800813E
:1028100011EA0C1F0CEA131500D00CE013EA0C1F90
:1028200000F025804FF00000F0BC81EA030101F0C8
:102830000041BDE80081F0BCBDE8004181EA030130
:1028400000F0B2B9F0BCBDE8004170B500F05EF92F
:10285000097EFC3E00F007B881EA03014FF000005A
:1028600001F00041704781EA030100F09DB9F0BC1E
:10287000BDE800414FF0000021497047FFFDFBF922
:10288000F7F5F4F2F0EEEDEBE9E8E6E4E3E1E0DEA3
:10289000DDDBDAD8D7D5D4D3D1D0CFCDCCCBCAC815
:1028A000C7C6C5C4C2C1C0BFBEBDBCBBBAB9B8B73C
:1028B000B6B5B4B3B2B1B0AFAEADACABAAA9A8A82F
:1028C000A7A6A5A4A3A3A2A1A09F9F9E9D9C9C9BFD
:1028D0009A999998979796959594939392919190A8
:1028E0008F8F8E8E8D8C8C8B8B8A89898888878739
:1028F0008685858484838382828181800000FF07AE
:102900000000F87F4FEA41034FEA5353A3F5806379
:10291000D3F11E03C8BFD3F1210C0CDD4FF00042F0
:1029200042EAC12242EA505232FA03FC8CEAE17CCC
:10293000ACEBE1707047102BC4BF0020704703F56B
:10294000787CBCF1FF3F04D06FF0004282EA2100A6
:10295000704770B500F0DAF8499224800020704783
:10296000F2E710F0004248BF4042B0FA80F310FA9C
:1029700003F10AD0C3F11D0303F580634FEA415010
:1029800002EB035202EBD12170474FF00000704779
:10299000B0FA80F310FA03F10AD0C3F11D0303F576
:1029A00080634FEA41504FEA035202EBD121704756
:1029B0004FF0000070470000DFF848C170B51CEA16
:1029C000111E1EBF1CEA13159EEA0C0F95EA0C0F90
:1029D00000F06F8081EA030423EA4C134EEAD47EB0
:1029E00021EA4C1141F4801143F48013AE44A1FB61
:1029F000024CA0FB0365AEF17F7E361955EB0C054A
:102A0000A1FB034C4CF10003A0FB021C16EB0C06CF
:102A1000654153F10003094218BF46F0010613F463
:102A2000007F0BD14FEA03314FEA0530340341EA0E
:102A3000155140EA16506FF003020AE04FEAC32135
:102A40004FEAC520F40241EA555140EA56506FF072
:102A5000020202EB2E4201EB025585EACE710AD04A
:102A60005FEA440C18BF24F0004450F1000041F12B
:102A7000000120EAD47040F2FE7C624500D270BDB5
:102A8000A84214BF4FF080444FF04044002E08BFCE
:102A90000024BEF1806FA8BFA1F1C041BDE8704025
:102AA00080F282804FF0000001F1C04101F000414E
:102AB00070479EEA0C0F0CEA131518BF95EA0C0F2D
:102AC00006D04FF0000081EA030E0EF0004170BD09
:102AD00000F01CF88900013E00F007B800F009B8CA
:102AE0004FEA430C5FEA5C5C08D081EA030100F026
:102AF0005BB84FEA410C5FEA5C5CF6D14FF0000036
:102B0000014970470000FF070000F87F0EF1020E38
:102B10002EF0030E5EF8046B364205D4012A43EB17
:102B2000030515F5001F12D8012841EB010C1CF517
:102B3000001F0CD80ED14FEAD17C15F5001F0CEB0D
:102B40004C0C0CF1020C08BF4CEBD37C04E04FF0B2
:102B5000080C01E04FEAD37C0CEB4C0526FA05F695
:102B600006F00706B6F1040C06D20EEB860CBDE8A3
:102B700070404CF0010C6047DFE80CF0090B0202DA
:102B80004FF000414FF00000A1F5002170BD194643
:102B90001046012851EB010418BFD4F5001484BF7E
:102BA000002001F0004170BD0808A0F500114FEAB7
:102BB0003101704791EA030F10B581F000413FF5F4
:102BC000A9AC83F0004300F009B8000010B591EA09
:102BD000030F48BF83F000433FF59CAC841A71EBB0
:102BE000030C07D212198CF0004C43EB0C03001BB2
:102BF00061EB0C01DFF8A4E14FEA1154A4EB135C84
:102C00001EEA430F18BF9EEA445F00F0B08023EA3B
:102C10006E03524221EA0451C3EB6E0338BF5B1EC0
:102C2000DCF1200E25D322FA0CFE10EB0E0043FA45
:102C30000CFE41EB0E01CCF1200E03FA0EFE10EB60
:102C40000E0051F10001CCF1200E29D412FA0EF23F
:102C500001EB0451BDE8104058BF7047401C1CBF39
:102C6000B2F1004F704700280CBF491C20F0010052
:102C7000704712EB020E43EB030218BF4FF0010E38
:102C80004EEA4202ACF1200CDCF11E0E54D943FA9C
:102C90000CFE10EB0E0051F1FF31CCF11E0ED5D51C
:102CA0000EF1010E12FA0EFE404141EB010101EB63
:102CB000445C5FEA5C5C10D910EBDE7001EB045100
:102CC00038BFBEF1004FBDE8104018BF7047002864
:102CD0000CBF491C20F00100704730D24FEAD42CC1
:102CE00011F5001124F400641BD0B1FA81F20B3A03
:102CF000A41AA41ED2F12003914030FA03F3194321
:102D0000904001EBCC71002C01EB0451BDE8104068
:102D1000A8BF704701F1C0414FF0000001F0004131
:102D20007047B0FA80F310FA03F100D110BDE41A35
:102D3000173C4805C90AE4E701EB045110BD4910EE
:102D400001EB0451BDE810404FEA300002E04FF0C3
:102D5000000170474A0008BF0042F8D0B2F5001FDA
:102D600028BF704701F000414FF0000070479EEA15
:102D7000445F07D011EA5E0FBDE8104004BF002198
:102D800000207047BDE8104070B5FFF7BFFE00BFE0
:102D900040DFF63E83F00041104670470000E0FF40
:102DA00043004FEAD30C4FEA3C0C43401FBF40079F
:102DB0000CF1605113F0FE4F70471CF0006F03D10F
:102DC00000200CF0004170470CF0004343EA5070C3
:102DD00010B540EACC0000F00EF800BF00000092F1
:102DE0004FEA0001FFF7E0BE4FF000414FF0000056
:102DF000A1F5002170470EF1020E2EF0030E5EF8D1
:102E0000044B244204D44FEA4102B2F17F4F11D85F
:102E10004FEA4003B3F17F4F0CD80ED14FEAD07C7C
:102E2000B2F17F4F0CEB4C0C0CF1020C08BF4CEBD9
:102E3000D17C04E04FF0080C01E04FEAD17C0CEBB0
:102E40004C0324FA03F404F00704B4F1040C06D292
:102E50000EEB840CBDE810404CF0010C6047DFE83D
:102E60000CF0070802024FF00040A0F5800010BDF2
:102E70000846420018BFD2F1807288BF00F00040BF
:102E800010BD4FF04070E1EE100A7047FF2141EA9B
:102E9000D050C005704700004C5555555555A53FBD
:102EA0007751C1166CC156BF9015CB19A001FA3EDF
:102EB000AD529C804F7E92BEC4B1B4BD9EEE213E09
:102EC000D43888BEE9FAA8BD00004054FB21F93F80
:102ED0003163621A61B4D03D0000601A61B4D03D24
:102EE0007370032E8A19A33B0000002E8A19A33B9E
:102EF000C14920259A837B390000000000000000B2
:102F00006E83F9A22915444ED15727FCC0DD34F554
:102F1000999562DB4190433CAB6351FE61C5BBDEDA
:102F20003A6E24B7E0D24D42EA2E49061C92D109EE
:102F30001CEB1DFE3EA729B1F53582E88444BB2E6B
:102F400026709CE9417E5FB439D69139F4395383B8
:102F50008B5F849C3B28F9BDFF97F81F0F9805DE17
:102F60008B112FEF1F6D0A5ACF7E366DB709CB2715
:102F7000663F464F2DEA5F9EC7BA27757BF1E5EBAA
:102F8000F739073DEA92528AB15FFB6B085D8D1FEE
:102F9000A6F810111111813FD561C119A0012ABFF6
:102FA0007DFEB157E31DC73EEB9C2B8AE6E55ABE7A
:102FB0007CD5CF5A3AD9E53DD82F00080000002033
:102FC00054000000C40100082C3000085400002008
:102FD00074070000E001000800000000007A030A06
:102FE00000000000000000000102030406070809B9
:102FF000000000000102030401020304060708099F
:1030000000000000000000000000000000000000C0
:1030100000000000000000000000000000000000B0
:0C302000000000000000000000000000A4
:040000050800018965
:00000001FF
