:020000040800F2
:10000000A85B0020F1020008270F0008870E0008F7
:10001000250F0008B9070008D516000800000000E9
:10002000000000000000000000000000390200088D
:10003000E90D0008000000008D020008E914000826
:100040000B0300080B0300080B0300080B03000858
:100050000B0300080B0300080B0300080B03000848
:100060000B0300080B0300080B0300080B03000838
:100070000B0300080B0300080B0300080B03000828
:100080000B0300080B0300080B030008F10700082E
:10009000BD0700080B0300080B0300080B03000852
:1000A0000B0300080B0300080B0300080B030008F8
:1000B0000B0300080B0300080B0300080B030008E8
:1000C0000B0300080B0300080B0300080B030008D8
:1000D0000B030008591500080B0300080B03000868
:1000E0000B0300080B0300080B0300080B030008B8
:1000F0000B0300080B0300080B0300080B030008A8
:100100000B0300080B0300080B0300080B03000897
:100110000B0300080B0300080B0300080B03000887
:100120000B0300080B0300080B0300080B03000877
:100130000B0300080B0300080B0300080B03000867
:100140000B0300080B0300080B0300080B03000857
:100150000B0300080B0300080B0300080B03000847
:100160000B0300080B0300080B0300080B03000837
:100170000B0300080B0300080B0300080B03000827
:100180000B0300080B03000800F002F800F044F82D
:100190000AA090E8000C82448344AAF10107DA45E2
:1001A00001D100F039F8AFF2090EBAE80F0013F0F0
:1001B000010F18BFFB1A43F001031847403C000031
:1001C000603C0000103A24BF78C878C1FAD85207C2
:1001D00024BF30C830C144BF04680C6070470000C1
:1001E0000023002400250026103A28BF78C1FBD840
:1001F000520728BF30C148BF0B607047642900F028
:100200000381732900F01082002070471FB503F0AE
:10021000EDFD1FBD10B510BD00F09BFA1146FFF7B4
:10022000F5FF01F009FB00F0B9FA03B4FFF7F2FFA4
:1002300003BC01F067FA00002A4B19680868B0E8AF
:10024000F04F80F30988BFF36F8F4FF0000080F309
:10025000118870470000000006480068006880F3BD
:10026000088862B661B6BFF34F8FBFF36F8F00DFB0
:1002700000BF00BF08ED00E0DFF80C00016841F4AA
:1002800070010160704700BF88ED00E0EFF3098066
:10029000BFF36F8F134B1A681EF0100F08BF20EDCD
:1002A000108A20E9F04F106008B44FF0500080F33E
:1002B0001188BFF34F8FBFF36F8F02F091FC4FF0A7
:1002C000000080F3118808BC19680868B0E8F04F96
:1002D0001EF0100F08BFB0EC108A80F30988BFF33E
:1002E0006F8F704778000020EFF3058070470000A3
:1002F0000948804709480047FEE7FEE7FEE7FEE7BA
:10030000FEE7FEE7FEE7FEE7FEE7FEE704480549F5
:10031000054A064B70470000FD14000889010008DB
:10032000A8550020A85B0020A8570020A85700204F
:10033000704700000FB4044910B503AA029800F0FA
:1003400077F910BC5DF814FB640000202DE9F04142
:100350000E460446002020622046E168884730B3FC
:10036000252805D0D4E901219047206A401CF2E7F6
:10037000E168204600278847050018D0A5F1410014
:10038000192802D820354FF4006732462946204606
:100390002760FFF733FF40B1012804D0F61D26F097
:1003A00007060836D8E7361DD6E72846DAE7206A7A
:1003B000BDE8F08170B50C460546012A05D02878C5
:1003C000800600D5EA69002302E0012305E05B1CFA
:1003D000934202D2E05C0028F9D1A869E618C01A5D
:1003E000A861286A184428622846AFF3008004E018
:1003F000D5E9012114F8010B9047B442F8D32846FF
:10040000AFF3008070BD00002DE9F04106460024E6
:1004100010687529314616A510D0AFF3008000286A
:1004200002DA404213A507E031688A0701D512A518
:1004300002E0490704D511A5012401E0AFF30080D3
:1004400000210A2206F1240709E0B0FBF2FCB0FB10
:10045000F2F302FB1C00303078541846491C002887
:10046000F3D123462A463046BDE8F04100F059B8A2
:10047000000000002D0000002B0000002000000004
:10048000032A40F2308010F0030C00F0158011F8C0
:10049000013BBCF1020F624498BF11F801CB00F898
:1004A000013B38BF11F8013BA2F1040298BF00F8EC
:1004B00001CB38BF00F8013B11F0030300F0CA8004
:1004C000083AC0F0088051F8043B083A51F804CBD0
:1004D000A0E80810F5E7121D5CBF51F8043B40F896
:1004E000043BAFF30080D20724BF11F8013B11F8A1
:1004F00001CB48BF11F8012B24BF00F8013B00F8E5
:1005000001CB48BF00F8012B704702F0FF0343EA1C
:10051000032242EA024200F0D1B8704770477047A8
:1005200070472DE9F0470D4699469246044600F182
:1005300024080168880604D5E06921F010012160D3
:1005400000E00120A84201DD471B00E00027A1696F
:100550007A1902EB0900081AA0612078C00602D4BB
:100560002046AFF30080002608E0D4E901211AF804
:1005700006009047206A401C761C20624E45F4DB42
:100580002078C0060AD52046AFF3008006E0D4E903
:10059000012130209047206A401C2062381EA7F1BC
:1005A0000107F4DC07E0D4E9012118F805009047C1
:1005B000206A401C2062281EA5F10105F3DC2046BC
:1005C000AFF300802078000602D50220BDE8F08756
:1005D0000120FBE701694A1C02610878704700B5F9
:1005E0008FB0CDE901310021059105497944CDE96C
:1005F000031011466846FFF7A9FE0FB000BD0000CA
:10060000E5FFFFFF10B5436913B1AFF3008001E0D0
:10061000FFF7D0FE012010BD127800F124010A700E
:1006200000224A700122EDE711684FF0FF32E9E73E
:10063000074B70B50D467B44FFF7D1FF04462846B3
:1006400000F05CF810B14FF0FF3070BD204670BD77
:100650000711000010B5203AC0F00B80B1E8185027
:10066000203AA0E81850B1E81850A0E81850BFF49C
:10067000F5AF5FEA027C24BFB1E81850A0E818503B
:1006800044BF18C918C0BDE810405FEA827C24BF8F
:1006900051F8043B40F8043B08BF7047D20728BF1D
:1006A00031F8023B48BF11F8012B28BF20F8023B6C
:1006B00048BF00F8012B70474FF000020429C0F03A
:1006C000128010F0030C00F01F80CCF1040CBCF180
:1006D000020F18BF00F8012BA8BF20F8022BA1EBD6
:1006E0000C0100F011B85FEAC17C24BF00F8012BB7
:1006F00000F8012B48BF00F8012B7047007B00F089
:10070000800070474FF0000200B5134694469646AD
:10071000203922BFA0E80C50A0E80C50B1F1200114
:10072000BFF4F7AF090728BFA0E80C5048BF0CC0C2
:100730005DF804EB890028BF40F8042B08BF704720
:1007400048BF20F8022B11F0804F18BF00F8012B92
:100750007047754600F02CF8AE46050069465346D2
:1007600020F00700854618B020B5FFF7CFFDBDE8A3
:1007700020404FF000064FF000074FF000084FF008
:10078000000B21F00701AC46ACE8C009ACE8C00999
:10079000ACE8C009ACE8C0098D46704710B5044606
:1007A000AFF300802046BDE81040FFF73EBD0000DB
:1007B0000048704748550020FEE7000010B50B4C7C
:1007C00086B00221204600F061F900280BD06A466D
:1007D0000021204600F02AFA684600F0F3FF0221CB
:1007E000204600F09BF806B010BD000000640040F9
:1007F00010B5074C0121204600F048F9002806D02A
:100800000121204600F08AF802490120087010BD3D
:10081000006400403000002070B501218AB0084615
:1008200000F06EFC0121480600F076FC394C0922EC
:100830000B21204600F015FB09220C21204600F078
:1008400010FB4FF4C051089102218DF8241008A923
:10085000204600F0CAFA304E304600F09BF8684659
:1008600000F02BFA00248DF806408DF80740082090
:100870008DF8084001258DF802408DF80400032111
:100880008DF809508DF803408DF80A408DF8051059
:10089000ADF800108DF80B406946304600F052F973
:1008A0008DF816408DF817408DF81850ADF80C40B3
:1008B000ADF81040ADF80E40ADF81240ADF8144060
:1008C0008DF8195003A800F07BF814208DF81C0057
:1008D0008DF81D508DF81E408DF81F5007A800F0B0
:1008E00023FB13208DF81C008DF81D508DF81E5031
:1008F0008DF81F5007A800F017FB01220221304697
:1009000000F018F901221146304600F013F90AB040
:1009100070BD0000000002400064004030B50823B4
:1009200010240422B1F5007F1DD010DC202929D02D
:1009300007DC012921D0042922D0082900D1C46074
:1009400030BD402920D0B1F5807FF9D10BE00025E2
:10095000B1F5004F06D008DCB1F5806F03D0B1F5DA
:10096000006FEDD18561426030BDB1F5803F0DD0A3
:10097000B1F5003FF8D1446030BD0549816030BD1C
:10098000C36030BD036130BD046130BD436030BD24
:1009900001010100094910B588424FF0010101D160
:1009A0004C0601E04FF08064204600F0C1FB204679
:1009B000BDE81040002100F0BBBB00000064004017
:1009C000F0B5827A2F4D012191402A6842F0010250
:1009D0002A602C4E1C3632688A433260294A047BD6
:1009E000294B0C32A4B914688C4314604488C7881E
:1009F00044EA0744877A03EBC707C7F840460488F0
:100A0000878844EA0744877A03EBC707C7F8444658
:100A1000047B012C12D114680C431460847A0268A0
:100A200003EBC4044FEA3242C4F84026847A426899
:100A300003EBC4034FEA3242C3F84426114AC37A97
:100A4000121D002B136806D00B4313600D4A038957
:100A5000143213B104E08B43F7E713688B43136040
:100A60000389012B02D113680B431360407B0128DB
:100A700002D1306808433060286820F00100286007
:100A8000F0BD00000066004000600040024600200B
:100A900053690B424AD0B1F5807F3BD013DC082963
:100AA0002ED007DC012926D0022927D004293DD1E8
:100AB000D0682BE0102925D0202926D0402935D117
:100AC0001069102130E0B1F5004F2BD00BDCB1F5EF
:100AD000007F22D0B1F5806F22D0B1F5006F25D113
:100AE0009069702120E0B1F5803F11D0B1F5003F51
:100AF0001CD15068E5E790680D4915E0D06802E028
:100B0000D068DEE7106903210EE0106908210BE0D0
:100B10005068FBE79069012106E09069022103E03B
:100B2000906900E05068042100F058B97047000057
:100B300001010100002A426901D00A4300E08A4312
:100B40004261704710B50368002223F0020303607E
:100B5000036843F0010303604FF6FF7300E0521C8B
:100B60004468E40701D19A42F9D14268D2073ED0E5
:100B70008A79012A02683CD022F080020260CA7998
:100B8000012A026838D022F0400202600A7A012A63
:100B9000026834D022F0200202604A7A012A0268F8
:100BA00030D022F0100202608A7A012A02682CD02A
:100BB00022F008020260CA7A012A026828D022F0D4
:100BC000040202608A78CC78920742EA04620C79C7
:100BD00042EA04424C79098842EA0452491E0A4317
:100BE000C261016821F001010160002114E00020D0
:100BF00010BD42F08002C1E742F04002C5E742F07A
:100C00002002C9E742F01002CDE742F00802D1E726
:100C100042F00402D5E7491C4268D20701D099424C
:100C2000F9D14068C007E2D1012010BD10B500EB3A
:100C30000113D3F8B04114F004041472D3F8B04196
:100C400033D0E4085460D3F8B04104F00204547285
:100C5000D3F8B44104F00F049472D3F8B441240AD9
:100C6000D474D3F8B841D472D3F8B841240A1473B9
:100C7000D3F8B841240C5473D3F8B841240E9473BC
:100C8000D3F8BC41D473D3F8BC41240A1474D3F80C
:100C9000BC41240C5474D3F8BC311B0E937439B18D
:100CA000016941F02001016110BD640D1460CAE7C3
:100CB000C16841F02001C16010BD00218171C17186
:100CC000017241728172C1728170C1700321017120
:100CD0000221417101210180704730B50246002098
:100CE00093685B0108D49068000101D5012003E0FE
:100CF0009068C00044D5022002EB0012D2F8803187
:100D000003F00103C2F880310B7AC3B3D2F88041FB
:100D10004D681C434B7A43EAC5031C43C2F880412B
:100D20008B7A03F00F038B72D2F8843123F00F0318
:100D3000C2F88431D2F884318C7A2343C2F88431EA
:100D4000CB7A8C7B0D7B43EA04634C7B240444EA1E
:100D500005242343C2F88831CB7B8C7C43EA0463AF
:100D60004C7C097C240444EA01210B43C2F88C31F9
:100D7000D2F8801141F00101C2F8801130BD01E0CC
:100D80000420FBE7D2F880314C7A23430C8843EAF5
:100D90004453C2F88031C3E710B5FFF73DFDBDE80D
:100DA00010409FED083ADFED082AB7EE002ADFED8C
:100DB000071A9FED071ADFED070AB2EE020A06488E
:100DC00000F012B90000FA4300409C4500606A46FA
:100DD000000000000AD7233C2C010020024600201E
:100DE0000A4200D0012070477047F0B50022012769
:100DF0004FF0030C0B6807FA02F52B40AB422CD1E5
:100E0000066853000CFA03F4A64306600E79D0F886
:100E100000E09E4046EA0E0606600E79012E01D0E3
:100E2000022E12D18668A64386604E79D0F808E07B
:100E30009E4046EA0E0686604668AE4346604568B8
:100E40008E799640B6B235434560C568A543C56006
:100E5000CC799C40C3681C43C460521C102AC9D37F
:100E6000F0BD4B07DB0E9A40C90810B500EB8100BE
:100E7000016A0F249C40A1430162016A114301628F
:100E800010BD01837047FEE71CB50121202000F052
:100E900037F9012003218DF8040000228DF8062087
:100EA0008DF80510064C00918DF807006946204624
:100EB000FFF79BFF03212046FFF7E3FF1CBD000067
:100EC0000014024000B585B000208DF808008DF8B0
:100ED000090008208DF80A00104980010090C88898
:100EE0008DF80C00020A8DF80B20C88A020A8DF8D2
:100EF0000D208DF80E00C88C8DF81000020A8DF8B8
:100F00000F20C88E010A8DF811108DF81200694665
:100F10000348FFF7E2FE05B000BD0000EC00002032
:100F200000640040FEE7704730B50F23C2780178B7
:100F30000125FAB1144A126801F1E02102F4E062DD
:100F4000C2F5E062C2F30722C2F10404D340427842
:100F5000A24084781C401443220181F800240078C8
:100F600000F01F018D404009800000F1E020C0F832
:100F7000005130BD01F01F0085404809800000F19C
:100F8000E020C0F8805130BD0CED00E0024908437C
:100F900002490860704700000000FA050CED00E00F
:100FA00000EE102AD1ED000AB8EEC00AF4EEC00A35
:100FB000F1EE10FA05DD00EE102AB8EEC00A81ED60
:100FC000000A504200EE100AD1ED000AB8EEC00A45
:100FD000F4EEC00AF1EE10FA05D200EE100AB8EEF7
:100FE000C00A81ED000A704780ED0A2AC0ED081A98
:100FF00000F10C0181EC030AB1EE610A80ED090AEF
:1010000080ED073A9FED060AC0ED062A80ED020A40
:1010100080ED010A80ED000A80ED0B0A70470000A8
:101020000000000030EE600A08B580ED000A90ED87
:10103000061A0346B5EEC01AF1EE10FA04D1D3ED4C
:10104000040A20EE800A10E0B5EEC00AF1EE10FAB4
:1010500002DDF0EE400A01E0F1EE400AF4EEC10AD2
:10106000F1EE10FAEBD39FED250A69468DED000AEB
:1010700093ED070ABDEEC00A10EE102AFFF790FFAD
:1010800093EC020AB0EE002AD3ED031ADDED002A3C
:1010900030EE601A21EE211AF0EE401A40EEC21A2C
:1010A00093ED022A32EE811A71EE821A93ED052A2F
:1010B00061EE821A93ED0B2A31EE211A32EE011AFB
:1010C00083ED0B1AC3ED020A83ED010A93ED080AC2
:1010D000B4EEC01AF1EE10FA01DD83ED0B0AD3ED88
:1010E0000B0A93ED090AF4EEC00AF1EE10FA02D3EE
:1010F000B0EE600A08BD83ED0B0A08BD00000000D9
:10110000044A0029116801D0014300E081431160C5
:101110007047000030380240044A0029116801D0AD
:10112000014300E0814311607047000040380240F5
:10113000044A0029116801D0014300E08143116095
:101140007047000020380240044A0029116801D08D
:10115000014300E0814311607047000044380240C1
:1011600070B5204B1968204C11F00C0104D06610AA
:10117000042903D0082903D004601BE0066019E0AD
:10118000184A121F1168C1F38055116801F03F0120
:1011900015B1B6FBF1F101E0B4FBF1F1146812688E
:1011A000C4F388146143C2F30142521C5200B1FBE4
:1011B000F2F1016019680F2202EA11110B4A545C26
:1011C0000168E14041601C68072505EA9424145D2C
:1011D00021FA04F484601B6805EA5333D25CD140E1
:1011E000C16070BD083802400024F400680000208F
:1011F0000B4C0C4D0C4E4FF4FA67B4F902002880EA
:101200002188012200EE101A3946B8EE400A86ED18
:10121000000A01F067F90A2001F030FBEDE7000059
:10122000EC00002014000020180000200CB5002263
:10123000274900920192086840F4803008604FF41A
:10124000A043086800F4003001900098401C009012
:10125000019810B900989842F3D10868800334D5FA
:10126000012001901A484030026842F0805202602A
:101270001848026842F4404202601548083002688B
:101280000260026842F400420260026842F4A05226
:101290000260031F104A1A600A6842F080720A60F6
:1012A0000A689201FCD50D4940F205720A60016896
:1012B00021F003010160016841F002010160016851
:1012C000C1F381010229FAD10CBD01920CBD0000CD
:1012D000003802400070004008544007003C0240C3
:1012E0002DE9F04707462DED0A8B0C46104602F01B
:1012F0007EFB8946054649EC190B204602F077FB38
:10130000884648EC100B04469FED668B51EC100BA1
:1013100053EC182B02F082FB41EC1A0B784202F0DE
:1013200066FB8A464AEC100B064653EC182B51EC30
:10133000100B02F073FB53EC1A2B02F081FA53EC02
:10134000192B02F07DFA02F023FB48EC104B0AEE59
:10135000100A49EC195B53EC182B51EC100B02F0FE
:101360005DFB4AEC106B41EC1B0B53EC182B51EC62
:10137000100B02F053FB53EC1B2B02F04DFC53EC13
:10138000192B02F05DFA02F003FB48EC104B0AEE59
:10139000900A49EC195B53EC182B51EC100B02F03E
:1013A0003DFB41EC1B0B384602F021FB0F4647EC9E
:1013B000100B064653EC182B51EC100B02F02EFBD1
:1013C00053EC1B2B02F028FC53EC192B02F038FADB
:1013D00002F0DEFA48EC104B0CEE100A49EC1B5BF5
:1013E00053EC182B51EC100B02F018FB47EC106B70
:1013F00041EC190B53EC182B51EC100B02F00EFBC7
:1014000053EC192B02F01CFA53EC1B2B02F018FAC8
:1014100002F0BEFA254C08EE100AB4F9020000EE04
:10142000100A2348F8EEC00AB8EECA0AFFF7FAFD20
:10143000BDEEC00A10EE100AE080B4F9120000EE12
:10144000100A1B48F8EEC00AB8EEEA0A3030FFF77F
:10145000E9FDBDEEC00A10EE100AE082B4F9020008
:1014600000EE100A1248F8EEC00AB8EECC0AFFF7F8
:10147000D9FDBDEEC00A10EE100AE084B4F90200F6
:1014800000EE100A0A48F8EEC00AB8EEC80AFFF7E4
:10149000C9FDBDEEC00A10EE100AE086BDEC0A8B55
:1014A000BDE8F087A4C519C39CA0E63FEC0000206E
:1014B0002C010020054810B5828841880088FFF77C
:1014C0000FFFBDE81040FFF7FDBC00003200002018
:1014D0004FF0E0210428086903D020F004000861DF
:1014E000704740F00400FAE710B501F04DFF012805
:1014F00003D0BDE8104001F03BBC10BD124810B550
:10150000016841F4700101601048016841F0010177
:1015100001600E4A00210832116002680C4B1A402B
:101520000260031D0B4A1A60026822F480220260E6
:1015300006480C300160FFF779FE03494FF0006068
:101540008039086010BD000088ED00E000380240DE
:10155000FFFFF6FE1030002470B50B4D40F225540D
:101560002146284600F024F800280BD0074A02F153
:101570001F01081F00F034FF21462846BDE87040D7
:1015800000F006B870BD0000001001403D000020D2
:101590000A0A01219140C9430180704700298189CD
:1015A00002D041F4005101E021F4005181817047E3
:1015B00070B501F01F0501260024C1F3421306FA9D
:1015C00005F2012B0FD0022B0FD0838A4FEA112195
:1015D0000088134206FA01F600EA060001D000B1C5
:1015E0000124204670BD8389F0E7038AEEE710B539
:1015F000C1F3421301F01F040121A140012B07D0C8
:10160000022B07D01430002A026805D00A4304E0F8
:101610000C30F8E71030F6E78A43026010BD000096
:101620007FB50446008A0D46C98820F44050014326
:101630002182A08941F20C618843A9882A8911433B
:101640006A8902431143A181A08A20F44071A889CC
:101650000843A0826846FFF783FD1A48844202D0FF
:101660001948844201D1039800E00298A189090435
:1016700000EBC00101EB0010296801D5490000E032
:101680008900B0FBF1F06422B0FBF2F109010B0913
:101690006FF018056B4300EB8300A3891D044FF026
:1016A000320306D503EBC000B0FBF2F000F00700F8
:1016B00005E003EB0010B0FBF2F000F00F00084370
:1016C00020817FBD00100140001401408088C0F3DC
:1016D00008007047FEE7000030B5094D074A2B6946
:1016E00007E014882406FCD510F8014B94805B1C9D
:1016F0002B618B42F5DB0020286130BD00100140DA
:10170000380000207047000010B504460420FFF7A1
:10171000DFFE0A484FF47A71047014FB01F10122D4
:1017200042804FF0E020026942F002020261416112
:10173000016941F00101016110BD0000600000205D
:1017400003490A885206FCD5C2B28A80704700005D
:101750000010014030B5034600208C240DE013F842
:10176000012B50400022C50702D084EA500000E05F
:101770004008521CD2B2082AF5D3491E89B2EED2D3
:1017800030BD0000054C4FF4FA75D4F88002C14317
:10179000C4F88012284601F071F8F6E70080424252
:1017A0000025074C01264FF44877C4F88452C8201E
:1017B00001F064F8C4F88462384601F05FF8F4E799
:1017C0000080424201681B4AA1F50071013910D026
:1017D000012919D0022922D0032909D130F80B1F81
:1017E00049BA1186418849BA5186808840BA9086A4
:1017F000704730F80B1F49BA1180418849BA5180AF
:10180000808840BA9080704730F80B1F49BA118227
:10181000418849BA5182808840BA9082704730F836
:101820000B1F49BA1184418849BA5184808840BA53
:1018300090847047EC0000201CB54FF44070FFF717
:10184000A5FBA820FFF760FF4FF4E13000F072FD28
:10185000FFF71AFB0A494FF47A700880FFF79CFAE9
:1018600000F0FEFC07490120CDE9000100238022A1
:1018700005A1084801F05CFD01F060F900201CBDE5
:10188000320000200000002073746172745F746184
:10189000736B000081220008FFF70CFE052000F0AA
:1018A000EDFFF9E72DE9F041184E0F460446F568C3
:1018B0003068001D00F058FE38B9306890F82C10E0
:1018C00001208840316981433161601C07D137B103
:1018D0003168BDE8F0410E48091D00F07DBE30685A
:1018E0002C44AC424460316805D2B06BBDE8F04195
:1018F000091D00F059BE706B091D00F055FEB06A5D
:10190000844200D2B462BDE8F0810000780000207B
:101910000C0500202DE9F041054600F069FE2D4E32
:10192000B068401CB06030682B4F10B1706930B3A4
:101930002BE03560B068012827D1002404EB840037
:1019400007EB800000F022FE641C202CF6D3234815
:1019500000F01CFE2148143000F018FE1F4828300B
:1019600000F014FE1D483C3000F010FE1B485030C3
:1019700000F00CFE194870631430B06305E0306865
:10198000E96AC06A884200D83560706A0121401C4B
:1019900070626864E86A326981401143316100EB2A
:1019A000800007EB8000291D00F016FE00F05CFEB1
:1019B000706900280CD03068E96AC06A884207D292
:1019C00007494FF080500860BFF34F8FBFF36F8F10
:1019D000BDE8F081780000203C020020BC0400201B
:1019E00004ED00E010B500F003FE0E4C2068A0B935
:1019F0000D4800F0CBFD0C48143000F0C7FD0A483C
:101A0000E0601430206100221021052001F0C6F9A9
:101A1000206010B105A100F0FDFEBDE8104000F00F
:101A200023BE0000B400002020050020546D725138
:101A30000000000070B5124E124D1CE001F0C8F815
:101A4000306820B1002401F0CDFDA4B901E00124EB
:101A5000F9E700F0CDFDF068C468201D00F084FDBA
:101A6000A868401EA8606868401E686000F0FCFD21
:101A7000204600F052F868680028DFD170BD0000F1
:101A8000F80400207800002030B4026C0B46002AD5
:101A90000BD0C1681144C1604468A14201D3016800
:101AA000C16030BC1846FEF7EBBC30BC70472DE976
:101AB000F041856B174604460026026C82B1C7B11F
:101AC000E068FEF7DDFCE168206C091AE16022683D
:101AD000914202D26168081AE060022F16D017E026
:101AE0002068A8B9606801F0D7FC06460020606055
:101AF0000EE0A068FEF7C4FC216CA0680844A0605A
:101B00006168884204D32068A06001E005B16D1EC1
:101B10006D1CA5633046BDE8F08110B50446006B2E
:101B200000F0D4FD2046BDE8104000F0CFBD00001D
:101B300010484FF4A041420706D0C01D0D4920F0C7
:101B40000700411AC1F5A0410B4A00230144C2E934
:101B500000030839103A21F0070111604B600B6057
:101B60000B1AC0E9001393604FF000405360D0603F
:101B70007047000048050020E4000020074E4FF0A9
:101B80008054074DFFF756FF30680128FAD92C60C2
:101B9000BFF34F8FBFF36F8FF4E700003C020020CC
:101BA00004ED00E02DE9F047DDE909840E46174613
:101BB000824691009946089DA522206BFEF7A5FC60
:101BC0006FF00301206B01EB8701084420F0070749
:101BD000780705D040F22B3219A11EA0FEF7AAFB10
:101BE00000202218315C82F83410315C11B1401CA5
:101BF0001028F6D3002684F84360202D00D31F253B
:101C0000E562C4E91356201D00F0CBFC04F1180076
:101C100000F0C7FC2461C5F120006462A061666524
:101C200084F858604A465146384600F003FB20606D
:101C3000B8F1000F01D0C8F80040BDE8F0870000FF
:101C40002E2E5C4672656552544F535C7461736B03
:101C5000732E63004572726F723A25732C25640DE2
:101C60000A00000030B5114900E011460A688242BE
:101C7000FBD34B685C18844203D140681844486029
:101C8000084643681C18944209D1084C103C24684B
:101C9000A24209D052681A4442600A68126802607F
:101CA000814200D0086030BD0460F9E7E400002004
:101CB00070B5002441600B4D0061914206D8D11AE5
:101CC0008269914206D2011D286907E09A4203D237
:101CD000994201D3012403E0011DE86800F064FC8F
:101CE000204670BDB400002010B5044600F080FC12
:101CF000A06B20B1002400F0B7FC204610BD0124E9
:101D0000F9E700002DE9F34100980F460026846CA6
:101D10002CB940F6CE1216A11AA0FEF70BFBA06B51
:101D2000E16B884205D340F6CF1211A115A0FEF752
:101D300001FBA06BE16B88420CD294F945503A4606
:101D400069462046FFF7B3FE0646681C05D06D1CA9
:101D500084F845503046BDE8FC81606A0028F9D01F
:101D600004F1240001F0F2FB0028F3D00126F1E792
:101D70002E2E5C4672656552544F535C71756575C5
:101D8000652E63004572726F723A25732C25640DBF
:101D90000A000000F8B5054614480E46C068C06841
:101DA000C468201D00F0E0FBE069012817D1A0699C
:101DB0002B46411932462046FFF77AFF78B10020C2
:101DC0000346014600902A46204601F0F1FC30B956
:101DD00007494FF4027201F11800FEF7ABFA616A8D
:101DE00001B02046BDE8F04008470000B4000020E4
:101DF0001437000870B586B02F4E53E001980028C4
:101E000006DADDE90301029A90470198002849DBD0
:101E1000039C606910B1201D00F0A6FB05A800F02E
:101E2000A7F8054601980A283CD2DFE800F005052E
:101E3000053B273805053B270298A1690346014465
:101E40002A462046FFF734FF00282BD0616A20463F
:101E50008847E069012825D1002000900298A169F7
:101E6000002342181946204601F0A2FCD0B940F2E6
:101E7000213212A117A0FEF75DFA13E00298A061CB
:101E800028B94FF44E720DA112A0FEF753FAA069C3
:101E90002B4641191A462046FFF70AFF02E020466A
:101EA00000F014FC00231A4601A9306800F0B2FFCC
:101EB0000028A3D106B070BDB40000202E2E5C46D1
:101EC00072656552544F535C74696D6572732E630D
:101ED000000000004572726F723A25732C25640D64
:101EE0000A000000F8B50D46064600F071FE68468F
:101EF00000F03EF80446009810B101F073FBF8BD05
:101F00001148ADB101690968D9B10025311B2A46D4
:101F1000006800F091FC01F065FB0028EFD10B494F
:101F20004FF080500860BFF34F8FBFF36F8FF8BD45
:101F3000A642EBD801F056FB21463046FFF72AFFB8
:101F4000F8BD0125E2E70000B400002004ED00E048
:101F50000648416B096829B1416BC968C96849687D
:101F6000816270474FF0FF31FAE7000078000020EF
:101F700070B5054601F016FA064E0446B068844274
:101F800003D200F009F8012000E00020286020467C
:101F9000B46070BDB4000020F8B5184E26E0C068EB
:101FA000C4680568201D00F0DFFA616A2046884792
:101FB000E06901281AD1A0692844A84206D9246101
:101FC0006060211DF06800F0EFFA0FE0002003468A
:101FD000014600902A46204601F0EAFB30B9084944
:101FE00040F2923201F11800FEF7A4F9F06801689E
:101FF0000029D4D13169C6E90310F8BDB40000202E
:102000001437000808484068401C05D040F20F1201
:1020100006A111A0FEF78EF9502080F31188BFF3BE
:102020004F8FBFF36F8FFEE7C80000202E2E5C4657
:1020300072656552544F535C706F727461626C6567
:102040005C525644535C41524D5F434D34465C7084
:102050006F72742E630000004572726F723A2573BE
:102060002C25640D0A000000084CE068016839B1B5
:10207000002139B10020FFF735FFFFF7BBFEF4E781
:102080000121F6E7C0680068F5E70000B400002011
:102090002DE9F041044600F0ABFA94F9455004F103
:1020A000240610E0A06C20B100212046FFF72AFE94
:1020B00004E0606A48B1304601F048FA08B100F027
:1020C00079FC6D1E6DB2002DECDC4FF0FF3684F80C
:1020D000456000F0C9FA00F08BFA94F9445004F11D
:1020E000100709E0206948B1384601F02FFA08B11D
:1020F00000F060FC6D1E6DB2002DF3DC84F84460CE
:10210000BDE8F04100F0B0BA2DE9F04105460026E7
:1021100000F05EFD324F386808B9FFF709FDF86836
:1021200005424FD1002D4DD0083568070BD005F082
:102130000700C0F108000544680704D0BF2229A1A8
:1021400032A0FEF7F7F8002D3CD07868854239D8E8
:10215000234910310846046801E0214604466068BE
:10216000A84202D220680028F7D13868B8468442D5
:1021700028D00E682068086060680836401B102868
:102180000ED96719780704D0EC2216A11FA0FEF71C
:10219000D1F86068401B786038466560FFF762FDE3
:1021A0006168D8F804004246401AC8F80400D8F81C
:1021B0000830984200D29060D8F80C00014300200B
:1021C000C4E9000101F00EFA700705D04FF49672D1
:1021D00004A10EA0FEF7AEF83046BDE8F081000085
:1021E000D40000202E2E5C4672656552544F535C1D
:1021F000706F727461626C655C4D656D4D616E6788
:102200005C686561705F342E630000004572726F18
:10221000723A25732C25640D0A00000004490868F1
:1022200018B10868026D521C02650868704700000A
:102230007800002010B5031F4FF080741C601B1F36
:1022400021F001011960191F044B0B6014390A6059
:10225000091F6FF0020244380A6010BD0520000813
:1022600006489FED050A054980ED000A80ED010A48
:1022700000202039487170470000000058000020FD
:102280001CB500F0B5F91A490220CDE90001002380
:10229000362218A11A4801F04BF815490320091DF0
:1022A000CDE900010023362216A1194801F040F8BB
:1022B0000F4904200831CDE900010023802215A137
:1022C000174801F035F80A4905200C31CDE9000125
:1022D00000234FF4807213A1154801F029F8044837
:1022E000001F006800F000FBBDE81C4000F0BCB916
:1022F000040000206C6564305F7461736B00000043
:10230000851700086C6564315F7461736B000000B1
:10231000A117000875736172745F7461736B0000BC
:10232000F11100086D6F76655F7461736B000000DA
:1023300099180008F0B50646012187B00846FEF757
:10234000DFFE01211020FEF7FFFE234D07220921A9
:102350002846FEF786FD07220A212846FEF781FD62
:1023600002218DF814108DF815104FF4C060002470
:1023700004908DF8164001278DF8177004A928469F
:10238000FEF733FDADF80440ADF80640ADF8084067
:10239000ADF80C400C20114CADF80A0000966946CF
:1023A0002046FFF73DF901212046FFF7F7F801220B
:1023B00040F225512046FFF71AF925208DF8180024
:1023C00003208DF819008DF81A008DF81B7006A8EF
:1023D000FEF7AAFD07B0F0BD00000240001001406A
:1023E0002DE9F0478046924689463B48FFF76EF953
:1023F0003A4CC0B2002220702179394D112909D000
:10240000A178012399B1012915D0022921D00329EE
:102410005ED132E0AA2801D0E07059E0E178552978
:1024200056D1227129706870A270627050E0A87055
:102430006081A3704CE0B4F906106B18491CD87089
:1024400008B2E080B4F90A10884241DBE280022041
:1024500011E0B4F90A106A18C91CD07089B220487A
:10246000FFF778F96070B4F90A102944C9788142FD
:102470002ED1A078401CA0702AE0B4F9080010B159
:10248000012802D024E0238122E0144B228118335A
:102490001E1DB4F908002918CF781F54C97931548A
:1024A000401C00B220810428F3DB93ED000A1120C8
:1024B00088ED000A96ED000A89ED000AE97A8AF8AB
:1024C0000010A270E270207162706281E28022814D
:1024D0000020BDE8F0870000001001403800002017
:1024E000EC010020FFB51E4E6D46A6F1080786EDF3
:1024F000000AA6F1060C3880ACF80010194900203B
:102500000B5C2B54401C0228FADB09248DF8024096
:1025100000202B18395CD9701CF80010401C597130
:102520000228F6DB00202B18315C401CD9710428EE
:10253000F9DB2E19E11CB2702846FFF70BF9F07099
:1025400008490020891C23180A5C2B44401C1A717E
:102550000228F8DB0F216846FFF7BEF8FFBD000038
:102560004C000020F63D0008D0E9013201699A6074
:10257000D0E901235A604A68824201D182684A60E8
:10258000002202610868401E0860704700F10801DF
:102590004FF0FF32C0E90112C1600161002101600A
:1025A000704700210161704730B50C68621C02D091
:1025B00000F1080202E0026904E01A4653681D684F
:1025C000A542FAD953684B6099608A6051600861EE
:1025D0000168491C016030BD42684A6093688B60A5
:1025E00093685960916008610168491C01607047F7
:1025F000502080F31188BFF34F8FBFF36F8F0949CD
:102600004868401C486001280AD10748006810F05B
:10261000FF0F05D040F2B91204A10FA0FDF78ABE4A
:1026200070470000C800002004ED00E02E2E5C463C
:1026300072656552544F535C706F727461626C6561
:102640005C525644535C41524D5F434D34465C707E
:102650006F72742E630000004572726F723A2573B8
:102660002C25640D0A00000010B5084C606828B9DC
:102670004FF4E07206A111A0FDF75CFE6068401EF9
:10268000606001D180F3118810BD0000C8000020F7
:102690002E2E5C4672656552544F535C706F727497
:1026A00061626C655C525644535C41524D5F434DD0
:1026B00034465C706F72742E630000004572726F56
:1026C000723A25732C25640D0A00000070B50028AD
:1026D0002AD0164DA0F108046068E968084205D1C7
:1026E0004FF4A07212A11CA0FDF724FE206828B1AF
:1026F00040F241120EA118A0FDF71CFE6068E968C7
:10270000084211D02268002A0ED18843606000F090
:102710005FFA60686968084468602046FFF7A2FABB
:10272000BDE8704000F05EBF70BD0000D400002026
:102730002E2E5C4672656552544F535C706F7274F6
:1027400061626C655C4D656D4D616E675C6865616D
:10275000705F342E630000004572726F723A257309
:102760002C25640D0A00000006484FF47A710068B9
:10277000B0FBF1F14FF0E020491E416107210161FA
:10278000704700001C00002010B5FDF7ADFD104C97
:1027900010280CD300F1E02090F8F0032178884253
:1027A00005D24FF440720BA115A0FDF7C3FD1848E8
:1027B0000068A16800F4E060884207D9BDE81040D5
:1027C0004FF4447203A10EA0FDF7B4BD10BD00008C
:1027D000C80000202E2E5C4672656552544F535C33
:1027E000706F727461626C655C525644535C415206
:1027F0004D5F434D34465C706F72742E6300000071
:102800004572726F723A25732C25640D0A00000020
:102810000CED00E010B5074B002253F832401CB11C
:10282000521C082AF9D310BD43F8321003EBC20141
:10283000486010BDFC01002070B515460E460446E8
:10284000FFF7D6FE94F944100020491C01D184F80A
:10285000440094F94510491C01D184F84500FFF764
:1028600003FFA06B28B92A46314604F1240000F08A
:10287000D1F82046BDE87040FFF70ABC10B504004F
:1028800012D00E49096B29B140F2CF420CA111A020
:10289000FDF750FD00F09CF900212046FFF702F8FB
:1028A00000F0A0FE002807D10E494FF080500860CC
:1028B000BFF34F8FBFF36F8F10BD00007800002073
:1028C0002E2E5C4672656552544F535C7461736B77
:1028D000732E63004572726F723A25732C25640D56
:1028E0000A00000004ED00E070B50446FFF780FE2A
:1028F000234D04B92C68201DFFF736FE58B9E06A55
:10290000204A00EB800152F8211021B901218140B9
:10291000286988432861A06A18B104F11800FFF7FC
:1029200023FE686A401C68622868844207D1211D22
:102930001548FFF751FE6868401C686007E0A8680A
:10294000401EA8602046FFF7E8F8FFF701FBFFF7FD
:102950008BFE6869002812D0286884420FD1286B4A
:1029600028B140F2654209A10DA0FDF7E3FC104932
:102970004FF080500860BFF34F8FBFF36F8F70BD73
:10298000780000203C020020F80400202E2E5C4637
:1029900072656552544F535C7461736B732E6300A0
:1029A0004572726F723A25732C25640D0A0000007F
:1029B00004ED00E001490120C86170477800002063
:1029C00070B50D46040005D140F6063207A10CA0F3
:1029D000FDF7B0FC0E48016820461831FFF7E4FD12
:1029E0002846BDE870400121FEF75CBF2E2E5C46F4
:1029F00072656552544F535C7461736B732E630040
:102A00004572726F723A25732C25640D0A0000001E
:102A10007800002070B514460E46050005D140F63A
:102A2000313209A10DA0FDF785FC10480168284648
:102A30001831FFF7D1FD0CB14FF0FF36214630467B
:102A4000BDE87040FEF72EBF2E2E5C4672656552C3
:102A5000544F535C7461736B732E63004572726FD5
:102A6000723A25732C25640D0A00000078000020BE
:102A700070B5040039D01D4DE06A2968C96A8842E2
:102A800033D2A069002804DB2868C06AC0F12000A6
:102A9000A061E06A164E00EB8000616906EB8000E1
:102AA00081421FD1201DFFF75FFD012150B9E06A6F
:102AB00000EB800256F8222022B92A6901FA00F0C0
:102AC00082432A612868C06AE0622A698140114312
:102AD000296100EB800006EB8000211DBDE87040FD
:102AE000FFF77ABD2868C06AE06270BD78000020F8
:102AF0003C02002010B5040005D140F6C13205A10A
:102B000009A0FDF717FC0C48016A2160C0686060ED
:102B100010BD00002E2E5C4672656552544F535C0A
:102B20007461736B732E63004572726F723A257312
:102B30002C25640D0A000000780000201CB5174801
:102B40000024CDE900402346822215A1164800F05A
:102B5000EFFB012803D100F0F1FD01280AD0401C51
:102B60001BD102B040F28472BDE810400FA114A046
:102B7000FDF7E0BB502080F31188BFF34F8FBFF308
:102B80006F8F06484FF0FF312C388162012141617F
:102B9000C460BDE81C4000F061B81CBDA40000206A
:102BA00049444C45000000007D1B00082E2E5C4669
:102BB00072656552544F535C7461736B732E63007E
:102BC0004572726F723A25732C25640D0A0000005D
:102BD0000248016B491C0163704700007800002027
:102BE00070B5134D286B10B10120E86170BD002055
:102BF000E86128690F4EB0FA80F0C0F11F0000EBC9
:102C0000800456F8240028B940F6F6220AA10FA045
:102C1000FDF790FB06EB840000F10802416849686B
:102C20004160914201D149684160C868286070BD27
:102C3000780000203C0200202E2E5C467265655212
:102C4000544F535C7461736B732E63004572726FE3
:102C5000723A25732C25640D0A0000001CB5304C17
:102C600020683049884205D140F259122EA139A07E
:102C7000FDF760FB20682B49491E884205D14FF4BF
:102C8000AD7229A133A0FDF755FB364C2078019099
:102C9000FF20207020788DF800009DF800009DF83E
:102CA000001000F0F000884205D040F273121EA11F
:102CB00028A0FDF73FFB9DF800002B4A00F05000D4
:102CC00010700720906007E09068401E90609DF8AB
:102CD000000040008DF800009DF800000006F3D4CD
:102CE000107A000200F4E0609060019820700C48B7
:102CF0002030016841F470010160016841F07041C9
:102D00000160FFF731FD00205060FDF7B5FA17486C
:102D1000016841F040410160FDF79EFA00201CBDB2
:102D200000ED00E071C20F412E2E5C4672656552C7
:102D3000544F535C706F727461626C655C525644A0
:102D4000535C41524D5F434D34465C706F72742E3C
:102D5000630000004572726F723A25732C25640D72
:102D60000A00000000E400E0C800002034EF00E0AA
:102D700010B5502080F31188BFF34F8FBFF36F8FD2
:102D800000F016FB18B104494FF080500860002095
:102D900080F3118810BD000004ED00E02DE9F04142
:102DA00017460E46050005D14FF4C47210A115A0B8
:102DB000FDF7C0FABEB105FB06F05430FFF7A4F9E9
:102DC00004000ED004F154007EB12060C4E90F5617
:102DD0002046012100F0E0F884F8507000212046E0
:102DE000A164BDE8F0810020E7E72460EEE7000081
:102DF0002E2E5C4672656552544F535C7175657535
:102E0000652E63004572726F723A25732C25640D2E
:102E10000A0000002DE9FF4F83B09B468A4604005C
:102E20004FF0000605D140F2DC4251A155A0FDF75C
:102E300081FABAF1000F07D1206C28B140F2DD42CF
:102E40004BA150A0FDF776FA00F09EFA38B905982C
:102E500028B14FF49C6246A14AA0FDF76BFA4FF0EF
:102E600000094FF08057DFF82C81FFF7C1FBA56BFD
:102E700045B351462046E668FEF706FEBBF1000F5B
:102E800013D0E660606A50B104F1240000F05EFBEC
:102E900028B1C8F80070BFF34F8FBFF36F8FFFF7F3
:102EA000E3FB012007B0BDE8F08F6D1EA56320682D
:102EB00010B9FFF7B3F9606020690028EFD004F182
:102EC0001000E3E7059808B11EB106E0FFF7CCFB60
:102ED00027E06846FFF70EFE0126FFF7C5FBFFF768
:102EE00077FEFFF785FB94F94400401C01D184F87C
:102EF000449094F94500401C01D184F84590FFF7B7
:102F0000B3FB05A9684600F0CFF9002820460AD097
:102F1000FFF7BEF800F066FB2046FEF7E5FE00284E
:102F2000A3D00020BEE7FEF7DFFED8B1206830B99D
:102F3000FFF75EFB6068FFF79BFDFFF795FB04F171
:102F400024000599FFF73CFD2046FFF7A1F800F0AB
:102F500049FB002889D1C8F80070BFF34F8FBFF339
:102F60006F8F82E72046FFF793F800F03BFB7CE78A
:102F70002E2E5C4672656552544F535C71756575B3
:102F8000652E63004572726F723A25732C25640DAD
:102F90000A00000004ED00E070B50D46040005D104
:102FA00040F21B121CA121A0FDF7C4F9FFF720FB82
:102FB000D4E90F20216802FB001161600021A163A8
:102FC0002168A1600A46D4E90F01401E00FB0121DF
:102FD000E16021464FF0FF3001F8440F487004F1E2
:102FE00010004DB1FFF7D2FA04F12400FFF7CEFA3A
:102FF000FFF73AFB012070BD21690029F8D000F0ED
:10300000A5FA0028F4D00D494FF080500860BFF3B6
:103010004F8FBFF36F8FEBE72E2E5C4672656552C4
:10302000544F535C71756575652E63004572726F00
:10303000723A25732C25640D0A00000004ED00E0AF
:103040002DE9FF4F83B099468B4604004FF00006F0
:1030500005D140F2D92252A156A0FDF76BF9BBF180
:10306000000F07D1206C28B140F2DA224CA151A008
:10307000FDF760F9B9F1020F08D1E06B012805D026
:1030800040F2DB2246A14BA0FDF754F900F07CF999
:1030900038B9059828B140F2DE2241A145A0FDF7DC
:1030A00049F94FF0000A4FF08057DFF81881FFF719
:1030B0009FFAA06BE16B884206D3B9F1020F03D0EF
:1030C000059800B316B325E04A4659462046FEF758
:1030D000EEFCA16C21B149462046FEF713FE05E047
:1030E000616A19B104F1240000F030FA28B1C8F87F
:1030F0000070BFF34F8FBFF36F8FFFF7B5FA01205A
:1031000007B0BDE8F08FFFF7AFFA21E06846FFF7A0
:10311000F1FC0126FFF7A8FAFFF75AFDFFF768FA5E
:1031200094F94400401C01D184F844A094F945006E
:10313000401C01D184F845A0FFF796FA05A968461E
:1031400000F0B2F830B12046FEF7A2FF00F04AFAD4
:103150000020D5E7FFF74CFAA06BE16B884201D164
:10316000012500E00025FFF77FFA95B104F110007A
:103170000599FFF725FC2046FEF78AFF00F032FA9A
:10318000002894D1C8F80070BFF34F8FBFF36F8F42
:103190008DE72046FEF77CFF00F024FA87E7000069
:1031A0002E2E5C4672656552544F535C7175657581
:1031B000652E63004572726F723A25732C25640D7B
:1031C0000A00000004ED00E02DE9F047984615469E
:1031D0008946040005D140F29F322AA12EA0FDF7B6
:1031E000A9F8B9F1000F07D1206C28B14FF468722B
:1031F00024A129A0FDF79EF8B8F1020F08D1E06BD9
:10320000012805D040F2A1321EA123A0FDF792F8BB
:10321000FFF7BAFA5020EFF3118780F31188BFF35C
:103220004F8FBFF36F8FA06BE16B884207D3B8F16C
:10323000020F04D0002087F31188BDE8F08794F9CD
:103240004560424649462046FEF731FC701C04D0DA
:10325000761C84F845600120EDE7A06C012620B1C2
:1032600041462046FEF74EFD06E0606A0028F2D097
:1032700004F1240000F06AF90028ECD0002DEAD017
:103280002E60E8E72E2E5C4672656552544F535C03
:1032900071756575652E63004572726F723A25739C
:1032A0002C25640D0A00000070B50D46040005D100
:1032B00040F6CB3214A119A0FDF73CF82DB940F629
:1032C000CC3211A115A0FDF735F8FFF791F9174A97
:1032D000D06829684B1C0FD02368126A934202D031
:1032E000626882420AD96268801A884206D2081A45
:1032F00028602046FFF7FEFB002400E00124FFF7D2
:10330000B3F9204670BD00002E2E5C4672656552F2
:10331000544F535C7461736B732E63004572726F0C
:10332000723A25732C25640D0A00000078000020F5
:103330002DE9FF5F8346DDE90E87994616468A46EA
:103340009000FEF7E1FE05001AD05C20FEF7DCFEDF
:10335000040012D025630021CDE90241CDE90087A8
:103360004B46324651465846FEF71CFC2046FEF7B7
:10337000D1FA012004B0BDE8F09F2846FFF7A6F976
:103380004FF0FF30F6E700000548416919B1006BC6
:1033900018B10020704701207047022070470000DC
:1033A000780000200148C0687047000078000020C5
:1033B0002DE9F0412D4F0026386B40B1B869401C13
:1033C000B861F86900B101263046BDE8F081FD68BA
:1033D0006D1CFD6011D1786B006828B140F6D912E0
:1033E00023A128A0FCF7A6FF786BB96B7963B863BB
:1033F000386A401C3862FEF7ABFDB86ADFF894808B
:10340000854209D3786B006880B1786BC068C46866
:10341000606885420DD2B8623868C06A00EB8001EE
:1034200058F821000128CCD90126CAE74FF0FF3017
:10343000F1E7201DFFF798F8A06A18B104F1180011
:10344000FFF792F8E06A01213A698140114339613E
:1034500000EB800108EB8100211DFFF7BDF8E06A59
:103460003968C96A8842CDD30126CBE778000020AD
:103470002E2E5C4672656552544F535C7461736BBB
:10348000732E63004572726F723A25732C25640D9A
:103490000A0000003C02002070B504004FF0000656
:1034A0003CD01F4D2868844205D040F6C7621DA15C
:1034B00021A0FCF73FFF206D28B940F6C96219A191
:1034C0001DA0FCF737FF206D401E2065E26CE16A0D
:1034D000914223D010BB201DFFF746F81A49012264
:1034E00050B9E06A00EB800351F8233023B92B690F
:1034F00002FA00F083432B61E06CE062C0F120002F
:10350000A061E06A2B6982401A432A6100EB8000C7
:1035100001EB8000211DFFF75FF80126304670BDEA
:10352000780000202E2E5C4672656552544F535C25
:103530007461736B732E63004572726F723A2573F8
:103540002C25640D0A0000003C0200202DE9F0410A
:10355000C068C4682CB940F6613216A11AA0FCF705
:10356000E9FE04F118000746FEF7FEFF1A4D286B2E
:10357000012660B139461948FFF72EF8E06A29683C
:10358000C96A884213D90120EE61BDE8F081201D8F
:10359000FEF7EAFFE06A2A6906FA00F111432961A1
:1035A0000F4900EB800001EB8000211DE4E70020C3
:1035B000EBE700002E2E5C4672656552544F535C5B
:1035C0007461736B732E63004572726F723A257368
:1035D0002C25640D0A00000078000020E40400207F
:1035E0003C0200202DE9F0472B4D00242746286B94
:1035F00028B94FF4FD6229A12DA0FCF79BFEFEF730
:10360000F7FF286B401E2863286BE8BBA8682C498D
:103610000126C8B3A1F52A798846D8F80010E9B187
:10362000D8F80C00C46804F11800FEF79DFF201DB7
:10363000FEF79AFFE06A2A6906FA00F11143296150
:1036400000EB800109EB8100211DFEF7C5FFE06A58
:103650002968C96A8842E0D3EE61DEE70CB1FEF763
:1036600077FCAC693CB1FFF7A3FE00B1EE61641ECC
:10367000F9D10020A861E86930B112490127380763
:103680000860BFF34F8F00E001E0BFF36F8FFEF7DC
:10369000EBFF3846BDE8F087780000202E2E5C4610
:1036A00072656552544F535C7461736B732E630083
:1036B0004572726F723A25732C25640D0A00000062
:1036C000E404002004ED00E02DE9F04707469946A8
:1036D00016460D462C20DDF820A0FEF715FD04004F
:1036E00014D0B8464F46D1462DB94FF4C67209A141
:1036F0000EA0FCF71FFEFEF775F904F11801C4F8DF
:10370000008081E8E002201DFEF74BFF2046BDE867
:10371000F08700002E2E5C4672656552544F535C54
:1037200074696D6572732E63000000004572726FDC
:10373000723A25732C25640D0A0000001CB5002484
:10374000FEF750F90C48006868B10B491F20091DAD
:10375000CDE9000100234FF4827208A10948FFF768
:10376000E7FD040005D140F2331207A10CA0FCF7DD
:10377000E1FD20461CBD0000B4000020546D722005
:1037800053766300692000082E2E5C4672656552F0
:10379000544F535C74696D6572732E6300000000B2
:1037A0004572726F723A25732C25640D0A00000071
:1037B0002DE9FF47DDF830A0994690460D460600FA
:1037C0004FF0000705D14FF4D37212A117A0FCF7F8
:1037D000B1FD1A4C206880B1CDE900580296062D43
:1037E00011DAFFF7D1FD02284FF0000309D00022C3
:1037F00069462068FFF724FC074604B03846BDE858
:10380000F0875246F4E700234A466946FFF7DCFC9E
:10381000F2E700002E2E5C4672656552544F535CF1
:1038200074696D6572732E63000000004572726FDB
:10383000723A25732C25640D0A000000B4000020A4
:1038400010B591EA030F48BF83F0004300F1EC810B
:10385000841A71EB030C05D2121943EB0C03001B05
:1038600061EB0C01DFF824E14FEA1154A4EB135C87
:103870001EEA430F18BF9EEA445F73D023EA0E038B
:10388000DCF1200E21EA045143F4801332D322FAF2
:103890000CFE10EB0E0023FA0CFE41EB0E01CCF1F6
:1038A000200E03FA0EFE10EB0E0051F10001B1F5EF
:1038B000801FCCF1200E32D201EB045112FA0EF22D
:1038C000BDE8104058BF7047401C38BF5FEA420255
:1038D00018BF7047002814BF20F0010041F100011B
:1038E0004FEA410313F5001F38BF7047A1F1C041F3
:1038F00000F08CB9012A43EB0302ACF1200CDCF19F
:103900001F0E32BF4FF0000E23FA0CF310EB030032
:1039100041EB0451B4EB115FD0D0A1EB045101F5A0
:10392000801149085FEA300001EB04510ED350F1D9
:10393000000038BF12FA0EFE08D1BDE81040C9E7FA
:10394000401C38BF5FEA4202CAD1C3E7BDE810405D
:103950004FEA410313F5001F38BF7047A1F1C04182
:1039600000F054B99EEA445F08D011EA5E0FBDE84A
:10397000104004BF01F0004100207047BDE8104036
:1039800070B500F0F5F800BF64FBBE3E0000E0FF3C
:103990004FEA41034FEA5353A3F58063D3F11E036B
:1039A000C8BFD3F1210C0CDD4FF0004242EAC12226
:1039B00042EA505232FA03FC8CEAE17CACEBE17053
:1039C0007047102BC4BF0020704703F5787CBCF112
:1039D000FF3F04D06FF0004282EA2100704770B5CB
:1039E00000F0C6F84992248000207047F2E710F0FA
:1039F000004248BF4042B0FA80F310FA03F10AD007
:103A0000C3F11D0303F580634FEA415002EB0352FB
:103A100002EBD12170474FF000007047DFF848C13A
:103A200070B51CEA111E1EBF1CEA13159EEA0C0F8E
:103A300095EA0C0F00F06F8081EA030423EA4C132F
:103A40004EEAD47E21EA4C1141F4801143F48013F4
:103A5000AE44A1FB024CA0FB0365AEF17F7E36199C
:103A600055EB0C05A1FB034C4CF10003A0FB021C21
:103A700016EB0C06654153F10003094218BF46F0EE
:103A8000010613F4007F0BD14FEA03314FEA0530F2
:103A9000340341EA155140EA16506FF003020AE080
:103AA0004FEAC3214FEAC520F40241EA555140EAEA
:103AB00056506FF0020202EB2E4201EB025585EAEE
:103AC000CE710AD05FEA440C18BF24F0004450F1D4
:103AD000000041F1000120EAD47040F2FE7C624512
:103AE00000D270BDA84214BF4FF080444FF0404454
:103AF000002E08BF0024BEF1806FA8BFA1F1C04115
:103B0000BDE8704080F282804FF0000001F1C041BA
:103B100001F0004170479EEA0C0F0CEA131518BF24
:103B200095EA0C0F06D04FF0000081EA030E0EF06C
:103B3000004170BD00F01CF88900013E00F007B89C
:103B400000F009B84FEA430C5FEA5C5C08D081EAF8
:103B5000030100F05BB84FEA410C5FEA5C5CF6D110
:103B60004FF00000014970470000FF070000F87F98
:103B70000EF1020E2EF0030E5EF8046B364205D4F1
:103B8000012A43EB030515F5001F12D8012841EB6C
:103B9000010C1CF5001F0CD80ED14FEAD17C15F595
:103BA000001F0CEB4C0C0CF1020C08BF4CEBD37C4F
:103BB00004E04FF0080C01E04FEAD37C0CEB4C051D
:103BC00026FA05F606F00706B6F1040C06D20EEB4F
:103BD000860CBDE870404CF0010C6047DFE80CF04B
:103BE000090B02024FF000414FF00000A1F5002147
:103BF00070BD19461046012851EB010418BFD4F5D9
:103C0000001484BF002001F0004170BD0808A0F539
:103C100000114FEA3101704710B591EA030F48BF18
:103C200083F000433FF514AE841A71EB030C07D206
:103C300012198CF0004C43EB0C03001B61EB0C01E0
:103C4000DFF8A4E14FEA1154A4EB135C1EEA430F22
:103C500018BF9EEA445F00F0B08023EA6E03524230
:103C600021EA0451C3EB6E0338BF5B1EDCF1200E6A
:103C700025D322FA0CFE10EB0E0043FA0CFE41EBAA
:103C80000E01CCF1200E03FA0EFE10EB0E0051F1E6
:103C90000001CCF1200E29D412FA0EF201EB0451EE
:103CA000BDE8104058BF7047401C1CBFB2F1004F28
:103CB000704700280CBF491C20F00100704712EB30
:103CC000020E43EB030218BF4FF0010E4EEA420210
:103CD000ACF1200CDCF11E0E54D943FA0CFE10EBB3
:103CE0000E0051F1FF31CCF11E0ED5D50EF1010EB3
:103CF00012FA0EFE404141EB010101EB445C5FEA28
:103D00005C5C10D910EBDE7001EB045138BFBEF1E2
:103D1000004FBDE8104018BF704700280CBF491C79
:103D200020F00100704730D24FEAD42C11F5001179
:103D300024F400641BD0B1FA81F20B3AA41AA41E39
:103D4000D2F12003914030FA03F31943904001EB84
:103D5000CC71002C01EB0451BDE81040A8BF7047A6
:103D600001F1C0414FF0000001F000417047B0FA8E
:103D700080F310FA03F100D110BDE41A173C480596
:103D8000C90AE4E701EB045110BD491001EB0451ED
:103D9000BDE810404FEA300002E04FF000017047EC
:103DA0004A0008BF0042F8D0B2F5001F28BF704794
:103DB00001F000414FF0000070479EEA445F07D0D9
:103DC00011EA5E0FBDE8104004BF002100207047DB
:103DD000BDE8104070B5FFF7CBFE00BF40DFF63EF8
:103DE00083F00041104670470000E0FF4FF0407044
:103DF000E1EE100A704755AA0D0A00001C3E0008AB
:103E000000000020EC000000C4010008083F00088A
:103E1000EC000020BC5A0000E00100080000000097
:103E20000000000000000000000000000000000092
:103E30000000000000000000007A030A00000000FB
:103E4000000000000102030406070809000000004A
:103E50000000000000000000110000000000000051
:103E60000000000000000000000000000000000052
:103E70000000000000000000000000000000000042
:103E8000000000000000000001020304010203041E
:103E90000607080900000000000000000000000004
:103EA0000000000000000000000000000000000012
:103EB0000000000000000000000000000000000002
:103EC00000000000000000000000000000000000F2
:103ED00000000000000000000000000000000000E2
:103EE0000000000000000000AAAAAAAA000000002A
:103EF00000000000000000000000000000000000C2
:083F00000000000000000000B9
:040000050800018965
:00000001FF
