:020000040800F2
:10000000285F0020F1020008971300084D11000836
:1000100095130008FD070008111F000800000000EC
:10002000000000000000000000000000390200088D
:100030008D0F0008000000008D020008FD19000867
:100040000B0300080B0300080B0300080B03000858
:100050000B0300080B0300080B0300080B03000848
:100060000B0300080B0300080B0300080B03000838
:100070000B0300080B0300080B0300080B03000828
:100080000B0300080B0300080B03000871080008AD
:10009000010800080B0300080B030008910F00087B
:1000A0000B0300080B0300080B0300080B030008F8
:1000B000C91A00080B0300080B0300080B03000813
:1000C0000B0300080B0300080B0300080B030008D8
:1000D0000B0300088D1C00080B0300080B0300082D
:1000E0000B0300080B0300080B0300080B030008B8
:1000F0000B0300080B0300080B0300080B030008A8
:100100000B0300080B0300080B0300080B03000897
:10011000F51B00080B0300080B0300080B03000885
:100120000B0300080B0300080B0300080B03000877
:100130000B0300080B0300080B0300080B03000867
:100140000B0300080B0300080B0300080B03000857
:100150000B0300080B0300080B0300080B03000847
:100160000B0300080B0300080B0300080B03000837
:100170000B0300080B0300080B0300080B03000827
:100180000B0300080B03000800F002F800F044F82D
:100190000AA090E8000C82448344AAF10107DA45E2
:1001A00001D100F039F8AFF2090EBAE80F0013F0F0
:1001B000010F18BFFB1A43F001031847AC560000AB
:1001C000CC560000103A24BF78C878C1FAD852073C
:1001D00024BF30C830C144BF04680C6070470000C1
:1001E0000023002400250026103A28BF78C1FBD840
:1001F000520728BF30C148BF0B607047642900F028
:100200000381732900F04E82002070471FB505F06E
:1002100090FA1FBD10B510BD00F0B0FA1146FFF7FF
:10022000F5FF02F01DFC00F0CEFA03B4FFF7F2FF79
:1002300003BC02F065FB00002A4B19680868B0E8AF
:10024000F04F80F30988BFF36F8F4FF0000080F309
:10025000118870470000000006480068006880F3BD
:10026000088862B661B6BFF34F8FBFF36F8F00DFB0
:1002700000BF00BF08ED00E0DFF80C00016841F4AA
:1002800070010160704700BF88ED00E0EFF3098066
:10029000BFF36F8F134B1A681EF0100F08BF20EDCD
:1002A000108A20E9F04F106008B44FF0500080F33E
:1002B0001188BFF34F8FBFF36F8F03F00DFF4FF027
:1002C000000080F3118808BC19680868B0E8F04F96
:1002D0001EF0100F08BFB0EC108A80F30988BFF33E
:1002E0006F8F7047A0000020EFF30580704700007B
:1002F0000948804709480047FEE7FEE7FEE7FEE7BA
:10030000FEE7FEE7FEE7FEE7FEE7FEE704480549F5
:10031000054A064B70470000111A000889010008C1
:1003200028590020285F0020285B0020285B00203F
:10033000704700000FB4044910B503AA029800F0FA
:10034000B5F910BC5DF814FB8C0000202DE9F041DC
:100350000E460446002020622046E168884730B3FC
:10036000252805D0D4E901219047206A401CF2E7F6
:10037000E168204600278847050018D0A5F1410014
:10038000192802D820354FF4006732462946204606
:100390002760FFF733FF40B1012804D0F61D26F097
:1003A00007060836D8E7361DD6E72846DAE7206A7A
:1003B000BDE8F08170B50C460546012A05D02878C5
:1003C000800600D5EA69002302E0012305E05B1CFA
:1003D000934202D2E05C0028F9D1A869E618C01A5D
:1003E000A861286A184428622846AFF3008004E018
:1003F000D5E9012114F8010B9047B442F8D32846FF
:10040000AFF3008070BD00002DE9F04106460024E6
:1004100010687529314616A510D0AFF3008000286A
:1004200002DA404213A507E031688A0701D512A518
:1004300002E0490704D511A5012401E0AFF30080D3
:1004400000210A2206F1240709E0B0FBF2FCB0FB10
:10045000F2F302FB1C00303078541846491C002887
:10046000F3D123462A463046BDE8F04100F096B865
:10047000000000002D0000002B0000002000000004
:10048000032A40F2308010F0030C00F0158011F8C0
:10049000013BBCF1020F624498BF11F801CB00F898
:1004A000013B38BF11F8013BA2F1040298BF00F8EC
:1004B00001CB38BF00F8013B11F0030300F02580A9
:1004C000083AC0F0088051F8043B083A51F804CBD0
:1004D000A0E80810F5E7121D5CBF51F8043B40F896
:1004E000043BAFF30080D20724BF11F8013B11F8A1
:1004F00001CB48BF11F8012B24BF00F8013B00F8E5
:1005000001CB48BF00F8012B704710B5203AC0F06E
:100510000B80B1E81850203AA0E81850B1E8185004
:10052000A0E81850BFF4F5AF5FEA027C24BFB1E841
:100530001850A0E8185044BF18C918C0BDE81040B2
:100540005FEA827C24BF51F8043B40F8043B08BFBB
:100550007047D20728BF31F8023B48BF11F8012B82
:1005600028BF20F8023B48BF00F8012B704702F07B
:10057000FF0343EA032242EA024200F0ABB87047AD
:1005800070477047704710B500F0C4F8006810BDA0
:1005900010B5044600F0BEF8046010BD2DE9F04728
:1005A0000D4699469246044600F1240801688806E3
:1005B00004D5E06921F01001216000E00120A8428B
:1005C00001DD471B00E00027A1697A1902EB090051
:1005D000081AA0612078C00602D42046AFF300803C
:1005E000002608E0D4E901211AF806009047206AA5
:1005F000401C761C20624E45F4DB2078C0060AD5EC
:100600002046AFF3008006E0D4E901213020904776
:10061000206A401C2062381EA7F10107F4DC07E0C5
:10062000D4E9012118F805009047206A401C206297
:10063000281EA5F10105F3DC2046AFF300802078E9
:10064000000602D50220BDE8F0870120FBE700008C
:1006500001694A1C02610878704700B58FB0CDE986
:1006600001310021059105497944CDE90310114676
:100670006846FFF76BFE0FB000BD0000E5FFFFFF0F
:1006800010B5436913B1AFF3008001E0FFF792FEAC
:10069000012010BD127800F124010A7000224A7076
:1006A0000122EDE711684FF0FF32E9E7074B70B523
:1006B0000D467B44FFF7D1FF0446284600F02EF894
:1006C00010B14FF0FF3070BD204670BD9F2200007A
:1006D0004FF000020429C0F0128010F0030C00F06B
:1006E0002380CCF1040CBCF1020F18BF00F8012BE1
:1006F000A8BF20F8022BA1EB0C0100F015B85FEAAF
:10070000C17C24BF00F8012B00F8012B48BF00F882
:10071000012B704700487047C8580020007B00F04C
:10072000800070474FF0000200B51346944696468D
:10073000203922BFA0E80C50A0E80C50B1F12001F4
:10074000BFF4F7AF090728BFA0E80C5048BF0CC0A2
:100750005DF804EB890028BF40F8042B08BF704700
:1007600048BF20F8022B11F0804F18BF00F8012B72
:100770007047000000487047C85800207546FFF7D2
:10078000F9FFAE4605006946534620F0070085464E
:1007900018B020B5FFF7BAFDBDE820404FF00006C5
:1007A0004FF000074FF000084FF0000B21F0070159
:1007B000AC46ACE8C009ACE8C009ACE8C009ACE89C
:1007C000C0098D46704710B50446AFF3008020463F
:1007D000BDE81040FFF729BD10B54FF4E13002F03D
:1007E00025FF05489FED030A80ED0A0A80ED0B0AFC
:1007F00010BD00006F12833A0C050020FEE70000D8
:1008000010B5184C86B00221204600F07FF9002870
:1008100025D06A460021204600F048FA684602F0DA
:10082000BBF8114800F094FC0F48403000F090FCF9
:100830000D48803000F08CFC0B48C03000F088FC84
:100840000A4800F0E3FC0948403000F081FC07480A
:10085000803000F07DFC0221204600F09FF806B0B9
:1008600010BD0000006400401401002014020020AC
:1008700010B5074C0121204600F048F9002806D0A9
:100880000121204600F08AF802490120087010BDBD
:10089000006400402000002070B501218AB00846A5
:1008A00000F06EFE0121480600F076FE394C092268
:1008B0000B21204600F03AFC09220C21204600F0D2
:1008C00035FC4FF4C051089102218DF8241008A97D
:1008D000204600F0EFFB304E304600F09BF86846B3
:1008E00000F02BFA00248DF806408DF80740082010
:1008F0008DF808408DF802408DF8040003218DF832
:1009000009408DF803408DF80A4001258DF8051047
:10091000ADF800108DF80B506946304600F052F9E2
:100920008DF816408DF817408DF81850ADF80C4032
:10093000ADF81040ADF80E40ADF81240ADF81440DF
:100940008DF8195003A800F07BF814208DF81C00D6
:100950008DF81D508DF81E408DF81F5007A800F02F
:100960001BFD13208DF81C008DF81D508DF81E50B6
:100970008DF81F5007A800F00FFD0122022130461C
:1009800000F018F901221146304600F013F90AB0C0
:1009900070BD0000000002400064004030B5082334
:1009A00010240422B1F5007F1DD010DC202929D0AD
:1009B00007DC012921D0042922D0082900D1C460F4
:1009C00030BD402920D0B1F5807FF9D10BE0002562
:1009D000B1F5004F06D008DCB1F5806F03D0B1F55A
:1009E000006FEDD18561426030BDB1F5803F0DD023
:1009F000B1F5003FF8D1446030BD0549816030BD9C
:100A0000C36030BD036130BD046130BD436030BDA3
:100A100001010100094910B588424FF0010101D1DF
:100A20004C0601E04FF08064204600F0C1FD2046F6
:100A3000BDE81040002100F0BBBD00000064004094
:100A4000F0B5827A2F4D012191402A6842F00102CF
:100A50002A602C4E1C3632688A433260294A047B55
:100A6000294B0C32A4B914688C4314604488C7889D
:100A700044EA0744877A03EBC707C7F8404604886F
:100A8000878844EA0744877A03EBC707C7F84446D8
:100A9000047B012C12D114680C431460847A026820
:100AA00003EBC4044FEA3242C4F84026847A426819
:100AB00003EBC4034FEA3242C3F84426114AC37A17
:100AC000121D002B136806D00B4313600D4A0389D7
:100AD000143213B104E08B43F7E713688B431360C0
:100AE0000389012B02D113680B431360407B01285B
:100AF00002D1306808433060286820F00100286087
:100B0000F0BD00000066004000600040024600208A
:100B100053690B424AD0B1F5807F3BD013DC0829E2
:100B20002ED007DC012926D0022927D004293DD167
:100B3000D0682BE0102925D0202926D0402935D196
:100B40001069102130E0B1F5004F2BD00BDCB1F56E
:100B5000007F22D0B1F5806F22D0B1F5006F25D192
:100B60009069702120E0B1F5803F11D0B1F5003FD0
:100B70001CD15068E5E790680D4915E0D06802E0A7
:100B8000D068DEE7106903210EE0106908210BE050
:100B90005068FBE79069012106E09069022103E0BB
:100BA000906900E05068042100F0EAB97047000045
:100BB00001010100002A426901D00A4300E08A4392
:100BC0004261704710B50368002223F002030360FE
:100BD000036843F0010303604FF6FF7300E0521C0B
:100BE0004468E40701D19A42F9D14268D2073ED065
:100BF0008A79012A02683CD022F080020260CA7918
:100C0000012A026838D022F0400202600A7A012AE2
:100C1000026834D022F0200202604A7A012A026877
:100C200030D022F0100202608A7A012A02682CD0A9
:100C300022F008020260CA7A012A026828D022F053
:100C4000040202608A78CC78920742EA04620C7946
:100C500042EA04424C79098842EA0452491E0A4396
:100C6000C261016821F001010160002114E000204F
:100C700010BD42F08002C1E742F04002C5E742F0F9
:100C80002002C9E742F01002CDE742F00802D1E7A6
:100C900042F00402D5E7491C4268D20701D09942CC
:100CA000F9D14068C007E2D1012010BD10B500EBBA
:100CB0000113D3F8B04114F004041472D3F8B04116
:100CC00033D0E4085460D3F8B04104F00204547205
:100CD000D3F8B44104F00F049472D3F8B441240A59
:100CE000D474D3F8B841D472D3F8B841240A147339
:100CF000D3F8B841240C5473D3F8B841240E94733C
:100D0000D3F8BC41D473D3F8BC41240A1474D3F88B
:100D1000BC41240C5474D3F8BC311B0E937439B10C
:100D2000016941F02001016110BD640D1460CAE742
:100D3000C16841F02001C16010BD00218171C17105
:100D4000017241728172C1728170C170032101719F
:100D50000221417101210180704730B50246002017
:100D600093685B0108D49068000101D5012003E07D
:100D70009068C00044D5022002EB0012D2F8803106
:100D800003F00103C2F880310B7AC3B3D2F880417B
:100D90004D681C434B7A43EAC5031C43C2F88041AB
:100DA0008B7A03F00F038B72D2F8843123F00F0398
:100DB000C2F88431D2F884318C7A2343C2F884316A
:100DC000CB7A8C7B0D7B43EA04634C7B240444EA9E
:100DD00005242343C2F88831CB7B8C7C43EA04632F
:100DE0004C7C097C240444EA01210B43C2F88C3179
:100DF000D2F8801141F00101C2F8801130BD01E04C
:100E00000420FBE7D2F880314C7A23430C8843EA74
:100E10004453C2F88031C3E710B52DED068BFFF7C0
:100E20003BFDDFED4E8AB0EE683A9FED4D9AB2EE93
:100E3000042AF0EE492ADFED4B9AF0EE691A9FED95
:100E40004A8AB1EE000A4948B0EE481AF0EE480A64
:100E500000F0DEFA4548B0EE683AF0EE492AB2EE0C
:100E6000042AF0EE691AB0EE481AF0EE480AB0EE25
:100E7000080A383000F0CCFA3C48B0EE683AF0EEA0
:100E8000492AB2EE042AF0EE691AB0EE481AF0EEE2
:100E9000480AB1EE000A703000F0BAFA3348B0EEFA
:100EA000683AF0EE492AB2EE042AF0EE691AB0EE82
:100EB000481AF0EE480AB0EE080AA83000F0A8FA86
:100EC0002A48B0EE683AF0EE492AB0EE482ADFED43
:100ED000281AB0EE481ADFED270AB2EE040AE03015
:100EE00000F096FA9FED24AAB0EE683AF0EE492A97
:100EF000B0EE482AF0EE4A1AB0EE481AF0EE480A70
:100F0000B2EE040A1D4800F083FA1C48B0EE683ABD
:100F1000F0EE492AB0EE482AF0EE4A1AB0EE481A2E
:100F2000F0EE480AB2EE040A383000F071FAB0EE82
:100F3000683AF0EE492AB0EE482AF0EE691AB0EEAF
:100F4000481AF0EE480ABDEC068BB7EE080A0B48CB
:100F5000BDE81040703000F05BBA000000401C4655
:100F600000007A4400007A460000000014030020CC
:100F700000007A45CDCCCC3D0080BB452C04002040
:100F8000024600200A4200D001207047704700004E
:100F900070B5802000F04CF8E0B1204C4FF080405C
:100FA00061692161426AE08840F27123584302EB93
:100FB00000106061E060401A80B2608163780025B3
:100FC000012140F69802012B09D0904202D36170B2
:100FD000A5702570BDE87040802000F023B89042D5
:100FE00003D36170A5702170F4E7A0F2B63140F22E
:100FF0004C42914210D80A4AA17822F81100491CAB
:10100000C8B2A0700828E5D30549420001F11400D8
:10101000FFF736FAA570DDE76570DBE75C000020BE
:10102000540500200149086070470000143C01404D
:10103000034A0146002012680A4200D0012070478E
:10104000143C014030B51A4A8379016853B31368E0
:101050008B431360111D0B680468A3430B60017977
:1010600011440B68046823430B60114B0833196863
:101070000468A14319601C1D21680568A94321600B
:101080004179102905D011440A68006802430A60BA
:1010900030BD196802681143196021680068014376
:1010A000216030BD0079104402688A43026030BD7F
:1010B000003C0140F0B5002201274FF0030C0B6803
:1010C00007FA02F52B40AB422CD1066853000CFA0C
:1010D00003F4A64306600E79D0F800E09E4046EA8D
:1010E0000E0606600E79012E01D0022E12D18668FE
:1010F000A64386604E79D0F808E09E4046EA0E0688
:1011000086604668AE43466045688E799640B6B2C2
:1011100035434560C568A543C560CC799C40C3682C
:101120001C43C460521C102AC9D3F0BD4B07DB0E10
:101130009A40C90810B500EB8100016A0F249C4059
:10114000A1430162016A1143016210BDFEE7000084
:1011500030B59FED2B0A90F838200188F2B3B0F932
:101160000220DFED280A002A428F9FED271A40F661
:10117000C214F3EE031A41F6FF73A1EB020205DB82
:1011800042F2E0451544A5420AD81A4400EE102A5E
:10119000B8EEC02A82EE200A20EE012A82EE210A51
:1011A000B5EEC00AF1EE10FA1ADC428F914224D952
:1011B0005B1A03F2E1451544A5420AD81A4400EE31
:1011C000102AB8EEC00A80EE202A62EE010A80EEF4
:1011D000A10AB5EEC00AF1EE10FA00E008E005D26F
:1011E000D0ED0D0A30EE800A80ED0D0A418730BD4A
:1011F0004187012180F8381030BD8A1ADFE70000EE
:101200000000000000F8FF450000B44330B59FED3A
:101210002B0A90F83820018842B3B0F90220DFEDA4
:10122000280A002ADFED271A428F40F6C214B3EED7
:10123000031A41F6FF731EDB9142A1EB020205D2B5
:1012400042F2E0451544A5420AD81A4400EE102A9D
:10125000B8EEC00A80EE202A62EE210A80EE810AF2
:10126000B5EEC00AF1EE10FA1DDC22E04187012143
:1012700080F8381030BD91421DD95B1A03F2E14568
:101280001544A5420AD81A4400EE102AB8EEC00A46
:1012900080EE202A62EE210A80EE810AB5EEC00AB5
:1012A000F1EE10FA05D2D0ED0D0A30EE800A80ED95
:1012B0000D0A418730BD8A1AE6E7000000000000F1
:1012C00000F8FF450000B44300B585B000208DF85C
:1012D00008008DF8090008208DF80A0011498001E6
:1012E0000090C8888DF80C00020A8DF80B20B1F828
:1012F0004600020A8DF80D208DF80E00B1F8860028
:101300008DF81000020A8DF80F20B1F8C600010A0E
:101310008DF811108DF8120069460348FFF71DFD86
:1013200005B000BD140100200064004000B585B088
:1013300000208DF808008DF8090008208DF80A00BB
:10134000124940F2FF100090B1F806018DF80C0030
:10135000020A8DF80B20B1F84601020A8DF80D2023
:101360008DF80E00B1F886018DF81000020A8DF894
:101370000F20B1F8C601010A8DF811108DF8120086
:1013800069460348FFF7E9FC05B000BD14010020E1
:1013900000640040FEE7704730B50F23C278017843
:1013A0000125FAB1144A126801F1E02102F4E06269
:1013B000C2F5E062C2F30722C2F10404D3404278CE
:1013C000A24084781C401443220181F80024007854
:1013D00000F01F018D404009800000F1E020C0F8BE
:1013E000005130BD01F01F0085404809800000F128
:1013F000E020C0F8805130BD0CED00E00249084308
:1014000002490860704700000000FA050CED00E09A
:1014100080ED0B2AC0ED091A00F1100181EC030ADE
:10142000B1EE610A80ED0A0A80ED083A9FED060AE6
:10143000C0ED072A80ED030A80ED020A80ED000A64
:1014400080ED0D0A704700000000000030EE600AD9
:10145000D0ED000A30EE601A80ED011A80ED000A2E
:10146000D0ED0C0A70EE801AC0ED0C1AD0ED080A0F
:10147000F4EEE01AF1EE10FA01DDC0ED0C0AD0ED49
:101480000C1AF1EE600AF4EEE01AF1EE10FA01D255
:10149000C0ED0C0AB5EEC00AF1EE10FA02DDF0EE76
:1014A000400A01E0F1EE400AD0ED0B1AF4EEE10A39
:1014B000F1EE10FA0EDDD0ED040AD0ED0C1A20EE9C
:1014C000800AD0ED050A00EEA10AD0ED060A00EE72
:1014D000810A01E09FED0E0A80ED0D0AF0EE400A50
:1014E00090ED090AF4EEC00AF1EE10FA01DD80ED8C
:1014F0000D0AD0ED0D0AB1EE400AF4EEC00AF1EE8D
:1015000010FA02D3B0EE600A704780ED0D0A704702
:101510000000000030B585B00121202000F030F837
:101520000121880300F050F80721052000F0A0F801
:1015300000248DF8104002208DF8130003A90F48F5
:10154000FFF7B8FD8020012500908DF806508DF83A
:10155000044008208DF805006846FFF773FD17204A
:101560008DF808008DF809408DF80A408DF80B5071
:1015700002A8FFF711FF05B030BD000000140240C3
:10158000044A0029116801D0014300E08143116041
:101590007047000030380240044A0029116801D029
:1015A000014300E081431160704700004038024071
:1015B000044A0029116801D0014300E08143116011
:1015C0007047000020380240044A0029116801D009
:1015D000014300E08143116070470000443802403D
:1015E00070B5204B1968204C11F00C0104D0661026
:1015F000042903D0082903D004601BE0066019E029
:10160000184A121F1168C1F38055116801F03F019B
:1016100015B1B6FBF1F101E0B4FBF1F11468126809
:10162000C4F388146143C2F30142521C5200B1FB5F
:10163000F2F1016019680F2202EA11110B4A545CA1
:101640000168E14041601C68072505EA9424145DA7
:1016500021FA04F484601B6805EA5333D25CD1405C
:10166000C16070BD083802400024F40090000020E2
:1016700010B58A0721F003040849120F21440F23F3
:10168000D1F8084893409C43C1F80848D1F808387D
:1016900090400343C1F8083810BD000000300140FD
:1016A0000CB50022274900920192086840F480306E
:1016B00008604FF4A043086800F4003001900098DF
:1016C000401C0090019810B900989842F3D1086826
:1016D000800334D5012001901A484030026842F05E
:1016E000805202601848026842F440420260154885
:1016F000083002680260026842F400420260026838
:1017000042F4A0520260031F104A1A600A6842F0B5
:1017100080720A600A689201FCD50D4940F2057298
:101720000A60016821F003010160016841F00201D3
:1017300001600168C1F381010229FAD10CBD019257
:101740000CBD000000380240007000400854400703
:10175000003C024070B56F482DED0A8B00680546CD
:1017600003F076FF41EC1A0B6B480068044603F067
:101770006FFF9FED6A8B53EC182B03F075FD41EC66
:10178000190B684890ED00BAB1EE4BCA1CEE100A76
:1017900003F05EFF53EC182B03F066FD53EC192B9E
:1017A00003F008FB53EC1A2B03F004FB03F0D0FA10
:1017B0000BEE900A284603F04BFF41EC1A0B204633
:1017C00003F046FF53EC182B03F04EFD41EC190BD0
:1017D0001CEE100A03F03CFF53EC182B03F044FD01
:1017E00053EC192B03F04AFE53EC1A2B03F0E2FAE8
:1017F00003F0AEFA0CEE100A284603F029FF41EC84
:101800001A0B204603F024FF53EC182B03F02CFD99
:1018100041EC190B1BEE100A03F01AFF53EC182BC6
:1018200003F022FD53EC192B03F028FE53EC1A2B86
:1018300003F0C0FA03F08CFA0CEE900A284603F08D
:1018400007FF41EC1A0B204603F002FF53EC182B64
:1018500003F00AFD41EC190B1BEE100A03F0F8FE31
:1018600053EC182B03F000FD53EC192B03F0A2FAF4
:1018700053EC1A2B03F09EFA03F06AFA2A4C08EE96
:10188000100AB4F9020000EE100A2848F8EEC00A67
:10189000B0EE6B0AFFF7DAFDBDEEC00A10EE100ADB
:1018A000E080B4F9420000EE100A2048F8EEC00AC9
:1018B000B0EE4C0A3830FFF7C9FDBDEEC00A10EE9D
:1018C000100AA4F84600B4F9820000EE100A174886
:1018D000F8EEC00AB0EE6C0A7030FFF7B7FDBDEE4F
:1018E000C00A10EE100AA4F88600B4F9C20000EE97
:1018F000100A0E48F8EEC00AB0EE480AA830FFF70A
:10190000A5FDBDEEC00A10EE100AA4F8C600BDEC9D
:101910000A8B70BD2C00002028000020A4C519C32C
:101920009CA0E63F240000201401002014030020A6
:1019300008B52148418800EE101A2349F8EE400A04
:101940009FED1E0A30EEC01ADFED1D0AC1EE201A0F
:101950009FED1C1A21EE811A81ED001A028801EE1A
:10196000102AB8EE411A31EE401AC1EE201A9FED4E
:10197000171A61EE811AC1ED011AC08801EE900AB2
:10198000F8EE611A31EEC00AC0EE201A21EE810A8B
:1019900081ED020AFFF7DEFEFFF796FC0C48B0F976
:1019A000C2100091B0F98230B0F94220B0F90210B3
:1019B00008A0FEF7BFFC08BD680500200080BB44FE
:1019C0000000FA4300C0DAC52400002000C0DA4558
:1019D0001401002025642C25642C25642C25640A20
:1019E000000000004FF0E0210428086903D020F037
:1019F00004000861704740F00400FAE710B502F0F7
:101A00003FFF012803D0BDE8104002F02DBC10BDFF
:101A1000124810B5016841F4700101601048016876
:101A200041F0010101600E4A002108321160026894
:101A30000C4B1A400260031D0B4A1A60026822F424
:101A40008022026006480C300160FFF729FE03493E
:101A50004FF000608039086010BD000088ED00E0A4
:101A600000380240FFFFF6FE103000241FB50121B0
:101A70000846FFF791FD42F2107001905320ADF837
:101A800000000020ADF80200ADF808004FF08044DF
:101A90006946204600F070F801221146204600F009
:101AA00062F80121204600F048F81C208DF80C0057
:101AB00001208DF80D0003218DF80E108DF80F0018
:101AC00003A8FFF769FC1FBD10B501218C07204654
:101AD00000F03DF8002829D0154A02F11803D188FA
:101AE0001181491CD1809088401C81B29180642969
:101AF00014D3491C91805888401C80B258803C28DF
:101B00000CD3002159809888401C80B29880B0F591
:101B1000167F03D39980D888401CD880908818807D
:101B20002046BDE81040012100F004B810BD0000BF
:101B30005C000020C943018270470029018802D05F
:101B400041F0010101E021F00101018070470246EE
:101B50000020138A92890B4202EA010202D0002A75
:101B600000D001207047002A828901D00A4300E09A
:101B70008A4382817047000030B50288164C174DA9
:101B8000A0420DD0A8420BD0B0F1804F08D0144B2A
:101B9000984205D0134B984202D0134B984203D180
:101BA00022F070034A881A43104B984206D0104B1B
:101BB000984203D022F440730A891A4302804A688B
:101BC000C2620A880285A04201D0A84201D1897A66
:101BD00001860121818230BD0000014000040140E6
:101BE0000004004000080040000C004000100040CD
:101BF000001400402DE9F041214E40F225573946AE
:101C0000304600F06CF8012837D1304600F0F4F887
:101C10001C4DC0B2002428706978052920D2DFE865
:101C200001F003070F1A26000D2819D1012015E035
:101C30000A2802D00D2814D012E0AC7002200DE06A
:101C4000114AA9785054491CC8B2A870182808D362
:101C5000AC70032002E00A2802D10420687000E082
:101C60006C7039463046BDE8F04100F028B80D28C8
:101C7000F6D1054800F0C4F8F2E7BDE8F0810000B5
:101C8000004C00404C0000203C05002070B5094D80
:101C900040F225542146284600F021F8002807D0BC
:101CA00001F05AFE21462846BDE8704000F007B812
:101CB00070BD000000100140C943018070470A0A4E
:101CC00001219140C943018070470029818902D0D8
:101CD00041F4005101E021F400518181704770B559
:101CE00001F01F0501260024C1F3421306FA05F294
:101CF000012B0FD0022B0FD0838A4FEA11210088CD
:101D0000134206FA01F600EA060001D000B10124F0
:101D1000204670BD8389F0E7038AEEE710B5C1F372
:101D2000421301F01F040121A140012B07D0022B17
:101D300007D01430002A026805D00A4304E00C30B2
:101D4000F8E71030F6E78A43026010BD7FB504461D
:101D5000008A0D46C98820F4405001432182A089A1
:101D600041F20C618843A9882A8911436A89024398
:101D70001143A181A08A20F44071A8890843A08260
:101D80006846FFF72DFC1A48844202D01948844265
:101D900001D1039800E00298A189090400EBC00179
:101DA00001EB0010296801D5490000E08900B0FB73
:101DB000F1F06422B0FBF2F109010B096FF0180594
:101DC0006B4300EB8300A3891D044FF0320306D55B
:101DD00003EBC000B0FBF2F000F0070005E003EBFE
:101DE0000010B0FBF2F000F00F00084320817FBD2F
:101DF00000100140001401408088C0F308007047C3
:101E000070B53C4CDFED3C2A3C4D2DED048BD4ED00
:101E1000031A9FED3B9AC4ED061A94ED040ADFED18
:101E2000399A84ED070AD0ED000AC4ED000A90ED5E
:101E3000011A84ED011A90ED021A84ED021A90ED58
:101E4000031A81EE222A84ED032A90ED043A72EE01
:101E5000611A83EE221A84ED041AD0ED052A31EEC0
:101E6000400AC4ED052AC4ED081A84ED090A94ED70
:101E70000A1A31EE611A84ED0A1A94ED0B1A31EE4A
:101E8000400A84ED0B0AB1EE600A85ED030A60EEAC
:101E9000090A80EEA90A10EE100A03F0D9FB41EC02
:101EA000100B00F0B5F8A06A03F0D2FB9FED168B83
:101EB00053EC182B02F07EFF02F04AFF686095EDAC
:101EC000030A60EE090A80EEA90A10EE100A03F078
:101ED000BFFB41EC100B00F037F8E06A03F0B8FBF1
:101EE00053EC182B02F066FF02F032FFA860BDEC45
:101EF000048B70BD0C05002000007A444C000020CB
:101F0000DA0F4940000034430000000000000000E8
:101F1000FEE703B401984100009850EAC12018BFC1
:101F200004204A0D18BF40F0010040F2FF72B2EBEE
:101F3000515F08BF40F00200012808BF052002B031
:101F4000704700000000000010B52F499FED2C1BCA
:101F50002DED020B84B0059820F000408842D8BFD8
:101F60009DED040B2DDD2949884209D1049840B923
:101F70004FF00100FEF70CFB00F0A2FC06B010BD14
:101F800005DB9DED040B00F08FFC06B010BD68462C
:101F90009DED040B00F0A0F810F0030004BF9DEDD0
:101FA000021B9DED000B0CD001280ED09DED021BF5
:101FB0009DED000B022817D0012000F0DDFB06B0DC
:101FC00010BD00F0A5FA06B010BD9DED021B9DED01
:101FD000000B012000F0D0FB51EC100B02F0ACFE26
:101FE00006B041EC100B10BD00F092FA51EC100B52
:101FF00002F0A2FE06B041EC100B10BD0000000084
:102000000000000000000000FB21E93F0000F07F1D
:1020100010B52F499FED2C1B2DED020B84B00598B8
:1020200020F000408842DCBF00209DED040B32DD33
:102030002849884209D1049840B94FF00100FEF7C1
:10204000A7FA00F03DFC06B010BD05DB9DED040BCA
:1020500000F02AFC06B010BD68469DED040B00F0B0
:102060003BF810F0030011D0012818D09DED021BA1
:102070009DED000B02281AD000F04AFA51EC100B2B
:1020800002F05AFE06B041EC100B10BD9DED021B94
:102090009DED000B012000F06FFB06B010BD9DED23
:1020A000021B9DED000B00F033FA06B010BD0120BD
:1020B00000F062FB51EC100B02F03EFE06B041EC6A
:1020C000100B10BD00000000000000000000000028
:1020D000FB21E93F0000F07F2DE9F14F04462DED93
:1020E000020B2DED088B8AB09FEDE70B80ED020B04
:1020F000139EE74826F0004585420ADC9DED120B51
:10210000002084ED000B0AB0BDEC088B03B0BDE8E5
:10211000F08FE0489FEDE0AB9FEDE1BBA84247DDCB
:10212000E14F9FEDE39B9FEDE48B9DED120B53EC94
:102130001A2B51EC100B002E1CDD03F09FF941EC23
:10214000100BBD4208D053EC1B2B51EC100B03F0CD
:1021500095F9C4E900010BE053EC192B51EC100B7D
:1021600003F08CF953EC182B03F088F9C4E9000153
:102170000120C8E702F01EFE41EC100BBD4208D062
:1021800053EC1B2B51EC100B02F014FEC4E90001C0
:102190000BE053EC192B51EC100B02F00BFE53EC3F
:1021A000182B02F007FEC4E900014FF0FF30AAE748
:1021B000C348A84279DB9DED120B51EC100B00F0E7
:1021C000BDFB41EC180B9FEDC00B53EC102B03F043
:1021D0004BF89FEDBF1B53EC112B02F0EBFD02F00F
:1021E000E9FF074603F015F841EC190B53EC1A2BE5
:1021F00003F03AF853EC182B03F034F941EC180BC8
:1022000053EC1B2B51EC190B03F02EF8DFF8C8A28E
:1022100041EC100B4FEA15580125FA4453EC102BF2
:1022200051EC180B03F02AF9032DC4E900013DD04D
:10223000C1F30A5005EB4511A8EB000011398142AA
:1022400034DA0AEB051BB0EE48AA9BED000BF0EE6A
:1022500068AA53EC102B51EC190B03F005F841EC74
:102260001B0B51EC1A0B53EC1B2B03F007F941EC41
:10227000180B51EC1A0B53EC182B03F0FFF853EC2E
:102280001B2B03F0FBF89BED020B41EC1A0B53ECFC
:10229000102B51EC190B02F0E7FF53EC1A2B03F053
:1022A000EDF841EC100B6D1CB8E70EE0002EA8BF56
:1022B0003846BFF628AF94ED000B51EC100B02F03E
:1022C0003BFDC4E9000178421DE7C6F3130040F46A
:1022D000801EC6F30A50A0F2F530471100F01F052A
:1022E000C5F12000DDF848B0089000200690079066
:1022F0000520EC467949002D07EB0002794408BF20
:1023000051F8221009D051F8223001EB8201AB4084
:102310004A68089922FA01F11943A1FB0E26A1FB94
:102320000B131A449A4234BF0123002303EB06081F
:102330000CEB8003D3E901A60E448E4234BF012189
:10234000002192448A4411B1924502D903E092459A
:1023500001D2012100E00021C3E901A641444CF86B
:102360002010011EA0F10100C4DC029800F1005011
:10237000850F0298DDE903678000DDF8148002F024
:1023800048FF41EC1A0B304602F05AFF9FED541BF8
:1023900053EC112B02F068FF41EC1B0B384602F0A6
:1023A0004FFF9FED511B53EC112B02F05DFF41ECF1
:1023B000180B404602F044FF9FED4D1B53EC112BD0
:1023C00002F052FF41EC190B51EC180B53EC192B96
:1023D00002F0F0FC53EC1B2B02F0ECFC53EC1A2B3C
:1023E00002F0E8FCCDE90801002008909DED080B03
:1023F00053EC1A2B51EC100B03F040F853EC1B2B51
:1024000003F03CF853EC182B03F038F853EC192B7D
:1024100003F028F89FED381B53EC112B02F024FF3A
:102420009FED370B41EC180B53EC102B9DED080B77
:1024300051EC100B02F018FF53EC182B02F0BAFC11
:102440009FED310B41EC180B53EC102B9DED080B5D
:1024500051EC100B02F008FF53EC182B02F0AAFC11
:1024600041EC100B139810F0004F06D06D4251EC68
:10247000100B02F061FC41EC100B284684ED000BC0
:1024800041E6000000000000000000000000000025
:10249000FB21E93F7CD9024000004054FB21F93F79
:1024A0003163621A61B4D03DFB21F93F00000000A6
:1024B0000000601A61B4D03D7370032E8A19A33BEB
:1024C000FB2139410000000083C8C96D305FE43F43
:1024D000000000000000E03F5A350000A834000072
:1024E000000000000000103E000000000000103C52
:1024F000000000000000103A182D4454FB21F93D63
:102500003326A611460B113C00000054FB21F93D77
:1025100010B52DED040B2DED088B82B0B0EE419A75
:10252000F0EE619A0B9820F000449FED4BABB4F1B4
:10253000795F11DA9DED0A0B51EC100B02F03AFEB7
:10254000002801BFB0EE4A0AF0EE6A0A02B0BDEC04
:10255000088B04BF04B010BD9DED0A0B53EC102B8B
:1025600051EC100B02F080FE41EC180B3C480621A8
:10257000B0EE480AF0EE680A784400F081F853ECB7
:10258000182B51EC100B02F06FFE9DED0A0B41EC85
:102590001B0B53EC192B51EC100B02F065FE41ECB8
:1025A000190B53EC1B2B51EC180B02F05DFE53EC96
:1025B000192B02F063FF9FED2C0B41EC190B53EC30
:1025C000102B51EC180B02F04FFE41EC100B284879
:1025D000844210DA53EC192B51EC100B02F04EFF31
:1025E00053EC1A2B02F03EFF41EC100B02B0BDEC95
:1025F000088B04B010BD1F48A042BCBF9FED1E1B3E
:102600008DED001B06DBA4F500100190002000906A
:102610009DED001B51EC100B53EC112B02F02EFF23
:102620009DED000B41EC180B53EC102B51EC1A0BE9
:1026300002F024FF41EC1A0B53EC192B51EC180B50
:1026400002F01CFF53EC1A2B02F00CFF41EC100BB4
:10265000CCE7000000000000000000000000F03F98
:10266000CC31000000000000000000000000E03F4E
:102670003333D33F0000E93F000000000000D23FA9
:1026800070B504462DED028B4D1E00EBC500B0EE7B
:10269000408AF0EE608A90ED000B35F0060017D00E
:1026A00053EC182B51EC100B02F0DEFD41EC100B3B
:1026B0006D1E04EBC50090ED001B51EC100B53ECAC
:1026C000112B02F077FB41EC100B35F00600E7D13F
:1026D000022D36D0042D1CD0062D1CBFBDEC028B64
:1026E00070BD53EC182B51EC100B02F0BDFD94EDB6
:1026F0000A1B53EC112B02F05DFB53EC182B02F07C
:10270000B3FD94ED081B53EC112B02F053FB41EC8D
:10271000100B53EC182B51EC100B02F0A5FD94EDAF
:10272000061B53EC112B02F045FB53EC182B02F067
:102730009BFD94ED040B53EC102B02F03BFB41ECA2
:10274000100B53EC182B51EC100B02F08DFD94ED97
:10275000021B53EC112B02F02DFB53EC182B02F053
:1027600083FD94ED001B53EC112B02F023FBBDEC19
:10277000028B41EC100B70BD31B504462DED040BFE
:102780002DED0A8BB0EE41BAF0EE61BA0B989DEDDB
:102790000A0B20F00040B0F1795F0DDA51EC100B1C
:1027A000FFF7B7FB042808BF00F09AF89DED0A0B6D
:1027B000BDEC0A8B05B030BD53EC102B51EC100B67
:1027C00002F052FD41EC180B9DED0A0B53EC182B57
:1027D00051EC100B02F048FD41EC190B2C48B0EE07
:1027E000480AF0EE680A05217844FFF749FF9FED9B
:1027F0002ACBB0EE40AAF0EE60AA9CB353EC1C2B9F
:1028000051EC190B02F030FD41EC1C0B53EC1A2B70
:1028100051EC190B02F028FD9FED210B41EC190B37
:1028200053EC102B51EC1B0B02F01EFD53EC192B3B
:1028300002F024FE53EC182B02F016FD53EC1B2B78
:1028400002F01CFE53EC1C2B02F018FE9DED0A1B3F
:1028500053EC112B02F006FEBDEC0A8B05B041ECE7
:10286000100B30BDFFE753EC1A2B51EC180B02F0A4
:10287000FBFC53EC1C2B02F09DFA53EC192B02F0DD
:10288000F3FC9DED0A1B53EC112B02F093FAE3E7E6
:102890005430000000000000495555555555C5BF3E
:1028A000000000000000E03F10B553EC102B51EC8D
:1028B000100B02F07FFA41EC100B10BD000000007D
:1028C0009FED050B10B553EC102B51EC100B02F0E3
:1028D00019FB41EC100B10BD0000000000000000CF
:1028E0009FED050B10B553EC102B51EC100B02F0C3
:1028F000BBFC41EC100B10BD0000000000000010FC
:102900007047000010B504460420FFF76BF80A4832
:102910004FF47A71047014FB01F1012242804FF0F0
:10292000E020026942F0020202614161016941F066
:102930000101016110BD00008800002082B0CDE9D6
:10294000000121F0004001909DED000B02B051EC20
:10295000100B704703490A885206FCD5C2B28A8020
:10296000704700000010014030B5034600208C2461
:102970000DE013F8012B50400022C50702D084EA75
:10298000500000E04008521CD2B2082AF5D3491E7C
:1029900089B2EED230BD000002683049A2F20122B5
:1029A000082A21D2DFE802F004090F15212F3D4B40
:1029B00030F80B2F52BA0A8010E030F80B2F52BAC1
:1029C00021F8402F0AE030F80B2F52BA21F8802F5F
:1029D00004E030F80B2F52BA21F8C02F428852BAC7
:1029E0004A80808840BA8880704730F80B2F52BAEE
:1029F000A1F80021428852BAA1F80221808840BA89
:102A0000A1F80401704730F80B2F52BAA1F8402109
:102A1000428852BAA1F84221808840BAA1F8440104
:102A2000704730F80B2F52BAA1F88021428852BA71
:102A3000A1F88221808840BAA1F88401704730F85B
:102A40000B2F52BAA1F8C021428852BAA1F8C22174
:102A5000808840BAA1F8C40170470000140100202A
:102A60001CB54FF44070FEF7C9FCA820FFF74AFFE1
:102A70004FF4E13000F084FDFDF7AEFEFEF7CCF937
:102A8000FEF7F4FFFEF746FD06490120CDE90001FF
:102A90000023802204A1074801F0C6FE01F0CAFA13
:102AA00000201CBD0000002073746172745F7461AB
:102AB000736B0000ED340008154C164D164E174F81
:102AC000DFF85C80DFF85C90DFF85CA0DFF85CB0DA
:102AD000287810B101280BD016E0608818B920883A
:102AE00008B9E08880B1FEF723FF00F0FBFD0BE0A2
:102AF00096ED000A87ED000A98ED000A89ED000ABC
:102B00009AED000A8BED000A052001F033F9DFE7AA
:102B1000680500200800002040000020240000205C
:102B20004400002028000020480000202C00002045
:102B30002DE9F041184E0F460446F5683068001D37
:102B400000F08EFF38B9306890F82C1001208840D2
:102B5000316981433161601C07D137B13168BDE80B
:102B6000F0410E48091D00F0B3BF30682C44AC4260
:102B70004460316805D2B06BBDE8F041091D00F03A
:102B80008FBF706B091D00F08BFFB06A844200D2CA
:102B9000B462BDE8F0810000A00000208C08002095
:102BA0002DE9F041054600F09FFF2D4EB068401C16
:102BB000B06030682B4F10B1706930B32BE03560D6
:102BC000B068012827D1002404EB840007EB8000C3
:102BD00000F058FF641C202CF6D3234800F052FF6D
:102BE0002148143000F04EFF1F48283000F04AFF03
:102BF0001D483C3000F046FF1B48503000F042FFBB
:102C0000194870631430B06305E03068E96AC06A3F
:102C1000884200D83560706A0121401C7062686487
:102C2000E86A326981401143316100EB800007EBB3
:102C30008000291D00F04CFF00F092FF7069002811
:102C40000CD03068E96AC06A884207D207494FF061
:102C500080500860BFF34F8FBFF36F8FBDE8F081E6
:102C6000A0000020BC0500203C08002004ED00E08E
:102C700010B500F039FF0E4C2068A0B90D4800F0E7
:102C800001FF0C48143000F0FDFE0A48E0601430EB
:102C9000206100221021052001F0FCFA206010B113
:102CA00005A101F033F8BDE8104000F059BF000065
:102CB000DC000020A0080020546D725100000000CC
:102CC00070B5124E124D1CE001F0FEF9306820B1D3
:102CD000002401F003FFA4B901E00124F9E700F0AA
:102CE00003FFF068C468201D00F0BAFEA868401E0B
:102CF000A8606868401E686000F032FF204600F05F
:102D000052F868680028DFD170BD00007808002004
:102D1000A000002030B4026C0B46002A0BD0C16822
:102D20001144C1604468A14201D30168C16030BC54
:102D30001846FDF7A5BB30BC70472DE9F041856B07
:102D4000174604460026026C82B1C7B1E068FDF761
:102D500097FBE168206C091AE1602268914202D277
:102D60006168081AE060022F16D017E02068A8B941
:102D7000606801F00DFE0646002060600EE0A0686D
:102D8000FDF77EFB216CA0680844A0606168884262
:102D900004D32068A06001E005B16D1E6D1CA56321
:102DA0003046BDE8F08110B50446006B00F00AFF24
:102DB0002046BDE8104000F005BF000010484FF469
:102DC000A041420706D0C01D0D4920F00700411A5E
:102DD000C1F5A0410B4A00230144C2E900030839B0
:102DE000103A21F0070111604B600B600B1AC0E92B
:102DF000001393604FF000405360D06070470000B4
:102E0000C80800200C010020074E4FF08054074DE9
:102E1000FFF756FF30680128FAD92C60BFF34F8FB7
:102E2000BFF36F8FF4E70000BC05002004ED00E065
:102E30002DE9F047DDE909840E46174682469100E8
:102E40009946089DA522206BFDF791FB6FF00301C9
:102E5000206B01EB8701084420F00707780705D0B5
:102E600040F22B3219A11EA0FDF764FA00202218AF
:102E7000315C82F83410315C11B1401C1028F6D35B
:102E8000002684F84360202D00D31F25E562C4E9A5
:102E90001356201D00F001FE04F1180000F0FDFDA6
:102EA0002461C5F120006462A061666584F8586001
:102EB0004A465146384600F003FB2060B8F1000F47
:102EC00001D0C8F80040BDE8F08700002E2E5C4617
:102ED00072656552544F535C7461736B732E63005B
:102EE0004572726F723A25732C25640D0A0000003A
:102EF00030B5114900E011460A688242FBD34B68A5
:102F00005C18844203D1406818444860084643680E
:102F10001C18944209D1084C103C2468A24209D0E4
:102F200052681A4442600A6812680260814200D006
:102F3000086030BD0460F9E70C01002070B5002482
:102F400041600B4D0061914206D8D11A82699142CD
:102F500006D2011D286907E09A4203D2994201D3A3
:102F6000012403E0011DE86800F09AFD204670BDD1
:102F7000DC00002010B5044600F0B6FDA06B20B1C7
:102F8000002400F0EDFD204610BD0124F9E700000B
:102F90002DE9F34100980F460026846C2CB940F6C9
:102FA000CE1216A11AA0FDF7C5F9A06BE16B8842FD
:102FB00005D340F6CF1211A115A0FDF7BBF9A06B08
:102FC000E16B88420CD294F945503A466946204656
:102FD000FFF7B3FE0646681C05D06D1C84F845500B
:102FE0003046BDE8FC81606A0028F9D004F1240075
:102FF00001F028FD0028F3D00126F1E72E2E5C46D3
:1030000072656552544F535C71756575652E63002A
:103010004572726F723A25732C25640D0A00000008
:10302000F8B5054614480E46C068C068C468201D3F
:1030300000F016FDE069012817D1A0692B4641195F
:1030400032462046FFF77AFF78B10020034601465A
:1030500000902A46204601F027FE30B907494FF478
:10306000027201F11800FDF765F9616A01B02046AE
:10307000BDE8F04008470000DC0000200C4C0008D0
:1030800070B586B02F4E53E00198002806DADDE9CE
:103090000301029A90470198002849DB039C60696C
:1030A00010B1201D00F0DCFC05A800F0A7F80546D3
:1030B00001980A283CD2DFE800F00505053B2738D7
:1030C00005053B270298A169034601442A4620468C
:1030D000FFF734FF00282BD0616A20468847E0695B
:1030E000012825D1002000900298A16900234218F0
:1030F0001946204601F0D8FDD0B940F2213212A184
:1031000017A0FDF717F913E00298A06128B94FF452
:103110004E720DA112A0FDF70DF9A0692B464119C1
:103120001A462046FFF70AFF02E0204600F04AFD5B
:1031300000231A4601A9306801F0E8F80028A3D15D
:1031400006B070BDDC0000202E2E5C467265655214
:10315000544F535C74696D6572732E6300000000F8
:103160004572726F723A25732C25640D0A000000B7
:10317000F8B50D46064600F0A7FF684600F03EF899
:103180000446009810B101F0A9FCF8BD1148ADB19A
:1031900001690968D9B10025311B2A46006800F091
:1031A000C7FD01F09BFC0028EFD10B494FF0805088
:1031B0000860BFF34F8FBFF36F8FF8BDA642EBD807
:1031C00001F08CFC21463046FFF72AFFF8BD0125AF
:1031D000E2E70000DC00002004ED00E00648416B5F
:1031E000096829B1416BC968C9684968816270473B
:1031F0004FF0FF31FAE70000A000002070B505464F
:1032000001F04CFB064E0446B068844203D200F045
:1032100009F8012000E0002028602046B46070BD5D
:10322000DC000020F8B5184E26E0C068C4680568C8
:10323000201D00F015FC616A20468847E0690128DE
:103240001AD1A0692844A84206D924616060211DD2
:10325000F06800F025FC0FE00020034601460090D6
:103260002A46204601F020FD30B9084940F292324A
:1032700001F11800FDF75EF8F06801680029D4D16B
:103280003169C6E90310F8BDDC0000200C4C0008D1
:1032900008484068401C05D040F20F1206A111A05A
:1032A000FDF748F8502080F31188BFF34F8FBFF32C
:1032B0006F8FFEE7F00000202E2E5C46726565528F
:1032C000544F535C706F727461626C655C5256440B
:1032D000535C41524D5F434D34465C706F72742EA7
:1032E000630000004572726F723A25732C25640DDD
:1032F0000A000000084CE068016839B1002139B1CA
:103300000020FFF735FFFFF7BBFEF4E70121F6E7EA
:10331000C0680068F5E70000DC0000202DE9F041FE
:10332000044600F0E1FB94F9455004F1240610E056
:10333000A06C20B100212046FFF72AFE04E0606A5D
:1033400048B1304601F07EFB08B100F0AFFD6D1EC4
:103350006DB2002DECDC4FF0FF3684F8456000F0D4
:10336000FFFB00F0C1FB94F9445004F1100709E0A1
:10337000206948B1384601F065FB08B100F096FDC0
:103380006D1E6DB2002DF3DC84F84460BDE8F041A1
:1033900000F0E6BB2DE9F0410546002600F094FE62
:1033A000324F386808B9FFF709FDF86805424FD178
:1033B000002D4DD0083568070BD005F00700C0F18F
:1033C00008000544680704D0BF2229A132A0FCF7F9
:1033D000B1FF002D3CD07868854239D8234910319F
:1033E0000846046801E0214604466068A84202D20B
:1033F00020680028F7D13868B846844228D00E6883
:103400002068086060680836401B10280ED96719CC
:10341000780704D0EC2216A11FA0FCF78BFF606890
:10342000401B786038466560FFF762FD6168D8F838
:1034300004004246401AC8F80400D8F80830984200
:1034400000D29060D8F80C0001430020C4E90001CC
:1034500001F044FB700705D04FF4967204A10EA052
:10346000FCF768FF3046BDE8F0810000FC0000205A
:103470002E2E5C4672656552544F535C706F7274A9
:1034800061626C655C4D656D4D616E675C68656120
:10349000705F342E630000004572726F723A2573BC
:1034A0002C25640D0A0000000449086818B108685A
:1034B000026D521C0265086870470000A0000020E1
:1034C00010B5031F4FF080741C601B1F21F0010119
:1034D0001960191F044B0B6014390A60091F6FF043
:1034E000020244380A6010BD913200081CB500F099
:1034F000FBFA0A490520CDE9000100234FF4807250
:1035000007A10A4801F090F90448001F006800F084
:1035100067FCBDE81C4000F023BB00000400002055
:103520006D6F76655F7461736B000000B92A0008E7
:10353000084B884202DA4FF00000D88003DDD888BB
:1035400000F10100D880D888904201DB012070474B
:10355000002070477C000020084B884202DA4FF0C0
:103560000000988003DD988800F101009880988819
:10357000904201DB01207047002070477C00002052
:10358000F0B50646012187B00846FDF7F9FF012195
:103590001020FEF719F8234D072209212846FDF7D0
:1035A000C5FD07220A212846FDF7C0FD02218DF83E
:1035B00014108DF815104FF4C060002404908DF89D
:1035C000164001278DF8177004A92846FDF772FDF3
:1035D000ADF80440ADF80640ADF80840ADF80C4039
:1035E0000C20114CADF80A00009669462046FEF703
:1035F000ADFB01212046FEF768FB012240F2255178
:103600002046FEF78BFB25208DF8180003208DF84F
:1036100019008DF81A008DF81B7006A8FDF7BCFE86
:1036200007B0F0BD00000240001001402DE9F0415C
:10363000804688B001210420FDF7A2FF0121C804C3
:10364000FDF7AAFF254F08220A213846FDF76EFD37
:1036500008220B213846FDF769FD02258DF814502C
:103660004FF440608DF81550002404908DF81640FA
:1036700001268DF8176004A93846FDF71BFDADF84B
:103680000440ADF80640ADF80840ADF80C400C2001
:10369000134CADF80A00CDF8008069462046FEF7CD
:1036A00055FB01212046FEF710FB34208DF8180051
:1036B0008DF819608DF81A508DF81B6006A8FDF77B
:1036C0006BFE40212046FEF7F7FA012240F2255119
:1036D0002046FEF723FB08B0BDE8F0810008024059
:1036E000004C00402DE9F0478D4C2DED028B2078E9
:1036F0009FED8C8A8C498D4D01F1E00801F58C79A4
:1037000001F5A87A40F6B837002610B101284ED04E
:10371000E5E0B5F90401002800DA40421E224FF42A
:10372000FA61FFF719FF0028B5F9020100EE100A4F
:10373000F8EEC00A0DD0B0EE480A4046FDF786FE0E
:10374000BDEEC00A10EE100AA5F8060185ED4D8AFF
:103750000AE09FED770A4046FDF778FEBDEEC00A0D
:1037600010EE100AA5F80601B5F9820100EE100A64
:10377000F8EEC00A9FED6F0A4846FDF767FEBDEE02
:10378000C00A10EE100AA5F88601B5F9420100EE54
:10379000100AF8EEC00A9FED680A5046FDF756FE83
:1037A000BDEEC00A10EE100AA5F8460197E0D5ED6F
:1037B0004D0A9FED620A6248FDF748FEBDEEC01A51
:1037C00084ED021AB5F90201B8EEC10A00EE900AC2
:1037D0004046F8EEE00AFDF739FEFDEEC00A10EEB5
:1037E000900AA5F80601607810B1012823D04CE0BA
:1037F000B5F9820100EE100AF8EEC00A9FED510AF9
:103800004846FDF723FEBDEEC00A10EE100AA5F8EB
:103810008601B5F9420100EE100AF8EEC00A9FEDEC
:103820004A0A5046FDF712FEBDEEC00A10EE100A1D
:10383000A5F8460129E0B5F9820100EE100A4846D4
:10384000F8EEC00AB0EE480AFDF700FEFDEEC00A31
:1038500010EE900AA5F88601B5F9420100EE100AB3
:103860005046F8EEC00AB0EE480AFDF7EFFDBDEE97
:10387000C00A10EE100AA5F84601642000F07AFA9A
:10388000B5F98401B84200DA2670A078012826D163
:10389000B5F9820100EE100A4846F8EEC00A9FED25
:1038A0002B0AFDF7D3FDBDEEC00A10EE100AA5F8F5
:1038B0008601B5F9420100EE100A5046F8EEC00A42
:1038C0009FED230AFDF7C2FDBDEEC00A10EE100AFF
:1038D000A5F84601B5F98401B84200DA2670B5F9B9
:1038E0004401002800DC40421E223946FFF720FE3A
:1038F000012100B12170174A40F2DC505389834204
:1039000000D9A17000D2A6701289824200D26670DE
:1039100000D96170BDEC028BBDE8F047FDF706BD34
:103920007C0000200000000014030020140100208F
:103930000080BBC400800945008009C50080BB44ED
:103940009C04002000004844000048C400007AC5E0
:1039500000007A45680500202DE9F0413D48FEF75A
:103960004BFA3D4CC0B20023207021793B4D112908
:1039700009D0A178012299B1012915D0022921D0BD
:10398000032963D132E0AA2801D0E0705EE0E1783B
:1039900055295BD1237129706870A370637055E05D
:1039A000A8706081A27051E0B4F906106A18491C31
:1039B000D07008B2E080B4F90A10884246DBE38098
:1039C000022011E0B4F90A106A18C91CD07089B23B
:1039D0002248FEF7C9FF6070B4F90A102944C9787B
:1039E000814233D1A078401CA0702FE0B4F90800C8
:1039F00010B1012802D029E0228127E0174E23814F
:103A00001436B4F908002918CA7832543218CF791C
:103A10001771401CC97A00B2117220810428F0DBB2
:103A200096ED000A84ED040A96ED010A84ED050A7C
:103A300096ED020A84ED060AE87B6071A370E370DC
:103A40001120207163706381E38023810020BDE831
:103A5000F08100000010014030000020D40400205C
:103A6000D0E9013201699A60D0E901235A604A68BD
:103A7000824201D182684A60002202610868401EC9
:103A80000860704700F108014FF0FF32C0E90112F1
:103A9000C160016100210160704700210161704730
:103AA00030B50C68621C02D000F1080202E0026925
:103AB00004E01A4653681D68A542FAD953684B6062
:103AC00099608A60516008610168491C016030BDDD
:103AD00042684A6093688B6093685960916008619E
:103AE0000168491C01607047502080F31188BFF3C2
:103AF0004F8FBFF36F8F09494868401C4860012809
:103B00000AD10748006810F0FF0F05D040F2B91243
:103B100004A10FA0FCF70EBC70470000F0000020CD
:103B200004ED00E02E2E5C4672656552544F535CE6
:103B3000706F727461626C655C525644535C4152A2
:103B40004D5F434D34465C706F72742E630000000D
:103B50004572726F723A25732C25640D0A000000BD
:103B600010B5084C606828B94FF4E07206A111A0A6
:103B7000FCF7E0FB6068401E606001D180F31188B3
:103B800010BD0000F00000202E2E5C4672656552CC
:103B9000544F535C706F727461626C655C52564432
:103BA000535C41524D5F434D34465C706F72742ECE
:103BB000630000004572726F723A25732C25640D04
:103BC0000A00000070B500282AD0164DA0F10804A4
:103BD0006068E968084205D14FF4A07212A11CA0E8
:103BE000FCF7A8FB206828B140F241120EA118A0F2
:103BF000FCF7A0FB6068E968084211D02268002A3F
:103C00000ED18843606000F05FFA6068696808441C
:103C100068602046FFF76CF9BDE8704000F05EBFB9
:103C200070BD0000FC0000202E2E5C4672656552BF
:103C3000544F535C706F727461626C655C4D656D5E
:103C40004D616E675C686561705F342E63000000D3
:103C50004572726F723A25732C25640D0A000000BC
:103C600006484FF47A710068B0FBF1F14FF0E020A4
:103C7000491E416107210161704700000C000020CE
:103C800010B5FCF731FB104C10280CD300F1E020EC
:103C900090F8F0032178884205D24FF440720BA1CE
:103CA00015A0FCF747FB18480068A16800F4E06025
:103CB000884207D9BDE810404FF4447203A10EA01A
:103CC000FCF738BB10BD0000F00000202E2E5C4633
:103CD00072656552544F535C706F727461626C65AB
:103CE0005C525644535C41524D5F434D34465C70C8
:103CF0006F72742E630000004572726F723A257302
:103D00002C25640D0A0000000CED00E010B5074BF7
:103D1000002253F832401CB1521C082AF9D310BDBE
:103D200043F8321003EBC201486010BD7C0500204F
:103D300070B515460E460446FFF7D6FE94F94410BA
:103D40000020491C01D184F8440094F94510491C15
:103D500001D184F84500FFF703FFA06B28B92A467C
:103D6000314604F1240000F0D1F82046BDE870404F
:103D7000FFF7D4BA10B5040012D00E49096B29B16F
:103D800040F2CF420CA111A0FCF7D4FA00F09CF94C
:103D900000212046FEF7CCFE00F0A0FE002807D14F
:103DA0000E494FF080500860BFF34F8FBFF36F8F05
:103DB00010BD0000A00000202E2E5C4672656552EA
:103DC000544F535C7461736B732E63004572726F52
:103DD000723A25732C25640D0A00000004ED00E002
:103DE00070B50446FFF780FE234D04B92C68201DF2
:103DF000FFF736FE58B9E06A204A00EB800152F81E
:103E0000211021B901218140286988432861A06AD5
:103E100018B104F11800FFF723FE686A401C6862BD
:103E20002868844207D1211D1548FFF751FE6868B4
:103E3000401C686007E0A868401EA8602046FEF7A6
:103E4000B2FFFFF7CBF9FFF78BFE6869002812D0AD
:103E5000286884420FD1286B28B140F2654209A13D
:103E60000DA0FCF767FA10494FF080500860BFF3CF
:103E70004F8FBFF36F8F70BDA0000020BC050020E6
:103E8000780800202E2E5C4672656552544F535CB4
:103E90007461736B732E63004572726F723A25738F
:103EA0002C25640D0A00000004ED00E0014901200A
:103EB000C8617047A000002070B50D46040005D110
:103EC00040F6063207A10CA0FCF734FA0E48016850
:103ED00020461831FFF7E4FD2846BDE87040012177
:103EE000FEF726BE2E2E5C4672656552544F535C1B
:103EF0007461736B732E63004572726F723A25732F
:103F00002C25640D0A000000A000002070B51446A6
:103F10000E46050005D140F6313209A10DA0FCF78F
:103F200009FA1048016828461831FFF7D1FD0CB195
:103F30004FF0FF3621463046BDE87040FEF7F8BD31
:103F40002E2E5C4672656552544F535C7461736BE0
:103F5000732E63004572726F723A25732C25640DBF
:103F60000A000000A000002070B5040039D01D4DEB
:103F7000E06A2968C96A884233D2A069002804DB54
:103F80002868C06AC0F12000A061E06A164E00EB0C
:103F90008000616906EB800081421FD1201DFFF780
:103FA0005FFD012150B9E06A00EB800256F8222043
:103FB00022B92A6901FA00F082432A612868C06A9E
:103FC000E0622A6981401143296100EB800006EB21
:103FD0008000211DBDE87040FFF77ABD2868C06AE7
:103FE000E06270BDA0000020BC05002010B50400F8
:103FF00005D140F6C13205A109A0FCF79BF90C4898
:10400000016A2160C068606010BD00002E2E5C4611
:1040100072656552544F535C7461736B732E630009
:104020004572726F723A25732C25640D0A000000E8
:10403000A00000201CB517480024CDE9004023460D
:10404000822215A1164800F0EFFB012803D100F0F1
:10405000F1FD01280AD0401C1BD102B040F284724D
:10406000BDE810400FA114A0FCF764B9502080F304
:104070001188BFF34F8FBFF36F8F06484FF0FF31AA
:104080002C38816201214161C460BDE81C4000F010
:1040900061B81CBDCC00002049444C450000000024
:1040A000092E00082E2E5C4672656552544F535CF3
:1040B0007461736B732E63004572726F723A25736D
:1040C0002C25640D0A0000000248016B491C0163A5
:1040D00070470000A000002070B5134D286B10B190
:1040E0000120E86170BD0020E86128690F4EB0FA38
:1040F00080F0C0F11F0000EB800456F8240028B9BE
:1041000040F6F6220AA10FA0FCF714F906EB840092
:1041100000F10802416849684160914201D1496853
:104120004160C868286070BDA0000020BC05002068
:104130002E2E5C4672656552544F535C7461736BEE
:10414000732E63004572726F723A25732C25640DCD
:104150000A0000001CB5304C20683049884205D167
:1041600040F259122EA139A0FCF7E4F820682B493F
:10417000491E884205D14FF4AD7229A133A0FCF746
:10418000D9F8364C20780190FF20207020788DF8E7
:1041900000009DF800009DF8001000F0F00088423B
:1041A00005D040F273121EA128A0FCF7C3F89DF8B9
:1041B00000002B4A00F0500010700720906007E0CC
:1041C0009068401E90609DF8000040008DF800004F
:1041D0009DF800000006F3D4107A000200F4E060BD
:1041E0009060019820700C482030016841F4700103
:1041F0000160016841F070410160FFF731FD00206E
:104200005060FCF739F81748016841F040410160FF
:10421000FCF722F800201CBD00ED00E071C20F4148
:104220002E2E5C4672656552544F535C706F7274EB
:1042300061626C655C525644535C41524D5F434D24
:1042400034465C706F72742E630000004572726FAA
:10425000723A25732C25640D0A00000000E400E08A
:10426000F000002034EF00E010B5502080F31188FA
:10427000BFF34F8FBFF36F8F00F016FB18B10449E7
:104280004FF080500860002080F3118810BD0000BE
:1042900004ED00E02DE9F04117460E46050005D17A
:1042A0004FF4C47210A115A0FCF744F8BEB105FB91
:1042B00006F05430FFF76EF804000ED004F15400FD
:1042C0007EB12060C4E90F562046012100F0E0F8DD
:1042D00084F8507000212046A164BDE8F0810020E0
:1042E000E7E72460EEE700002E2E5C46726565521B
:1042F000544F535C71756575652E63004572726F1E
:10430000723A25732C25640D0A0000002DE9FF4F39
:1043100083B09B468A4604004FF0000605D140F268
:10432000DC4251A155A0FCF705F8BAF1000F07D106
:10433000206C28B140F2DD424BA150A0FBF7FAFF00
:1043400000F09EFA38B9059828B14FF49C6246A156
:104350004AA0FBF7EFFF4FF000094FF08057DFF85E
:104360002C81FFF7C1FBA56B45B351462046E6689B
:10437000FEF7D0FCBBF1000F13D0E660606A50B1CD
:1043800004F1240000F05EFB28B1C8F80070BFF310
:104390004F8FBFF36F8FFFF7E3FB012007B0BDE83E
:1043A000F08F6D1EA563206810B9FFF77DF860607F
:1043B00020690028EFD004F11000E3E7059808B168
:1043C0001EB106E0FFF7CCFB27E06846FFF70EFEC4
:1043D0000126FFF7C5FBFFF777FEFFF785FB94F992
:1043E0004400401C01D184F8449094F94500401CDD
:1043F00001D184F84590FFF7B3FB05A9684600F0AA
:10440000CFF9002820460AD0FEF788FF00F066FBAF
:104410002046FEF7AFFD0028A3D00020BEE7FEF740
:10442000A9FDD8B1206830B9FFF75EFB6068FFF7DF
:104430009BFDFFF795FB04F124000599FFF73CFD78
:104440002046FEF76BFF00F049FB002889D1C8F831
:104450000070BFF34F8FBFF36F8F82E72046FEF7E8
:104460005DFF00F03BFB7CE72E2E5C4672656552DB
:10447000544F535C71756575652E63004572726F9C
:10448000723A25732C25640D0A00000004ED00E04B
:1044900070B50D46040005D140F21B121CA121A0ED
:1044A000FBF748FFFFF720FBD4E90F20216802FB50
:1044B000001161600021A1632168A1600A46D4E96E
:1044C0000F01401E00FB0121E16021464FF0FF304B
:1044D00001F8440F487004F110004DB1FFF7D2FA13
:1044E00004F12400FFF7CEFAFFF73AFB012070BD7C
:1044F00021690029F8D000F0A5FA0028F4D00D4970
:104500004FF080500860BFF34F8FBFF36F8FEBE722
:104510002E2E5C4672656552544F535C71756575FD
:10452000652E63004572726F723A25732C25640DF7
:104530000A00000004ED00E02DE9FF4F83B099462A
:104540008B4604004FF0000605D140F2D92252A15B
:1045500056A0FBF7EFFEBBF1000F07D1206C28B18E
:1045600040F2DA224CA151A0FBF7E4FEB9F1020FB0
:1045700008D1E06B012805D040F2DB2246A14BA018
:10458000FBF7D8FE00F07CF938B9059828B140F265
:10459000DE2241A145A0FBF7CDFE4FF0000A4FF00F
:1045A0008057DFF81881FFF79FFAA06BE16B884214
:1045B00006D3B9F1020F03D0059800B316B325E076
:1045C0004A4659462046FEF7B8FBA16C21B1494640
:1045D0002046FEF7DDFC05E0616A19B104F1240014
:1045E00000F030FA28B1C8F80070BFF34F8FBFF366
:1045F0006F8FFFF7B5FA012007B0BDE8F08FFFF726
:10460000AFFA21E06846FFF7F1FC0126FFF7A8FAB0
:10461000FFF75AFDFFF768FA94F94400401C01D1F6
:1046200084F844A094F94500401C01D184F845A0C9
:10463000FFF796FA05A9684600F0B2F830B12046B7
:10464000FEF76CFE00F04AFA0020D5E7FFF74CFABF
:10465000A06BE16B884201D1012500E00025FFF746
:104660007FFA95B104F110000599FFF725FC20466B
:10467000FEF754FE00F032FA002894D1C8F800701A
:10468000BFF34F8FBFF36F8F8DE72046FEF746FED7
:1046900000F024FA87E700002E2E5C467265655212
:1046A000544F535C71756575652E63004572726F6A
:1046B000723A25732C25640D0A00000004ED00E019
:1046C0002DE9F047984615468946040005D140F289
:1046D0009F322AA12EA0FBF72DFEB9F1000F07D1C2
:1046E000206C28B14FF4687224A129A0FBF722FEA8
:1046F000B8F1020F08D1E06B012805D040F2A132D9
:104700001EA123A0FBF716FEFFF7BAFA5020EFF325
:10471000118780F31188BFF34F8FBFF36F8FA06BAA
:10472000E16B884207D3B8F1020F04D0002087F371
:104730001188BDE8F08794F9456042464946204615
:10474000FEF7FBFA701C04D0761C84F8456001204B
:10475000EDE7A06C012620B141462046FEF718FC8B
:1047600006E0606A0028F2D004F1240000F06AF943
:104770000028ECD0002DEAD02E60E8E72E2E5C4613
:1047800072656552544F535C71756575652E630093
:104790004572726F723A25732C25640D0A00000071
:1047A00070B50D46040005D140F6CB3214A119A016
:1047B000FBF7C0FD2DB940F6CC3211A115A0FBF7D7
:1047C000B9FDFFF791F9174AD06829684B1C0FD043
:1047D0002368126A934202D0626882420AD96268F0
:1047E000801A884206D2081A28602046FFF7FEFB8E
:1047F000002400E00124FFF7B3F9204670BD00005B
:104800002E2E5C4672656552544F535C7461736B17
:10481000732E63004572726F723A25732C25640DF6
:104820000A000000A00000202DE9FF5F8346DDE9BB
:104830000E87994616468A469000FEF7ABFD0500A6
:104840001AD05C20FEF7A6FD040012D025630021DB
:10485000CDE90241CDE900874B46324651465846E4
:10486000FEF7E6FA2046FEF79BF9012004B0BDE80A
:10487000F09F2846FFF7A6F94FF0FF30F6E700005B
:104880000548416919B1006B18B10020704701203B
:104890007047022070470000A00000200148C06857
:1048A00070470000A00000202DE9F0412D4F0026A8
:1048B000386B40B1B869401CB861F86900B1012695
:1048C0003046BDE8F081FD686D1CFD6011D1786B4C
:1048D000006828B140F6D91223A128A0FBF72AFDD1
:1048E000786BB96B7963B863386A401C3862FEF73D
:1048F00075FCB86ADFF89480854209D3786B00684C
:1049000080B1786BC068C468606885420DD2B862B7
:104910003868C06A00EB800158F821000128CCD922
:104920000126CAE74FF0FF30F1E7201DFFF798F8A6
:10493000A06A18B104F11800FFF792F8E06A0121AB
:104940003A6981401143396100EB800108EB810035
:10495000211DFFF7BDF8E06A3968C96A8842CDD3E6
:104960000126CBE7A00000202E2E5C467265655222
:10497000544F535C7461736B732E63004572726F96
:10498000723A25732C25640D0A000000BC05002036
:1049900070B504004FF000063CD01F4D28688442DB
:1049A00005D040F6C7621DA121A0FBF7C3FC206D16
:1049B00028B940F6C96219A11DA0FBF7BBFC206D08
:1049C000401E2065E26CE16A914223D010BB201D9D
:1049D000FFF746F81A49012250B9E06A00EB80035C
:1049E00051F8233023B92B6902FA00F083432B617D
:1049F000E06CE062C0F12000A061E06A2B698240B7
:104A00001A432A6100EB800001EB8000211DFFF7B3
:104A10005FF80126304670BDA00000202E2E5C46B7
:104A200072656552544F535C7461736B732E6300EF
:104A30004572726F723A25732C25640D0A000000CE
:104A4000BC0500202DE9F041C068C4682CB940F6CF
:104A5000613216A11AA0FBF76DFC04F1180007469D
:104A6000FEF7FEFF1A4D286B012660B13946194842
:104A7000FFF72EF8E06A2968C96A884213D9012035
:104A8000EE61BDE8F081201DFEF7EAFFE06A2A69C9
:104A900006FA00F1114329610F4900EB800001EB98
:104AA0008000211DE4E70020EBE700002E2E5C468D
:104AB00072656552544F535C7461736B732E63005F
:104AC0004572726F723A25732C25640D0A0000003E
:104AD000A000002064080020BC0500202DE9F0475C
:104AE0002B4D00242746286B28B94FF4FD6229A1DD
:104AF0002DA0FBF71FFCFEF7F7FF286B401E286375
:104B0000286BE8BBA8682C490126C8B3A1F52A790F
:104B10008846D8F80010E9B1D8F80C00C46804F150
:104B20001800FEF79DFF201DFEF79AFFE06A2A6934
:104B300006FA00F11143296100EB800109EB8100C5
:104B4000211DFEF7C5FFE06A2968C96A8842E0D3E3
:104B5000EE61DEE70CB1FEF741FBAC693CB1FFF75B
:104B6000A3FE00B1EE61641EF9D10020A861E869DE
:104B700030B11249012738070860BFF34F8F00E0BA
:104B800001E0BFF36F8FFEF7EBFF3846BDE8F0871B
:104B9000A00000202E2E5C4672656552544F535C77
:104BA0007461736B732E63004572726F723A257372
:104BB0002C25640D0A0000006408002004ED00E0CC
:104BC0002DE9F0470746994616460D462C20DDF89C
:104BD00020A0FEF7DFFB040014D0B8464F46D146B4
:104BE0002DB94FF4C67209A10EA0FBF7A3FBFEF787
:104BF0003FF804F11801C4F8008081E8E002201DAC
:104C0000FEF74BFF2046BDE8F08700002E2E5C46E5
:104C100072656552544F535C74696D6572732E638F
:104C2000000000004572726F723A25732C25640DE6
:104C30000A0000001CB50024FEF71AF80C480068B2
:104C400068B10B491F20091DCDE9000100234FF475
:104C5000827208A10948FFF7E7FD040005D140F280
:104C6000331207A10CA0FBF765FB20461CBD00001A
:104C7000DC000020546D722053766300F53200088A
:104C80002E2E5C4672656552544F535C74696D6597
:104C900072732E63000000004572726F723A2573C2
:104CA0002C25640D0A0000002DE9FF47DDF830A037
:104CB000994690460D4606004FF0000705D14FF487
:104CC000D37212A117A0FBF735FB1A4C206880B1F4
:104CD000CDE900580296062D11DAFFF7D1FD022822
:104CE0004FF0000309D0002269462068FFF724FC3A
:104CF000074604B03846BDE8F0875246F4E7002383
:104D00004A466946FFF7DCFCF2E700002E2E5C46BF
:104D100072656552544F535C74696D6572732E638E
:104D2000000000004572726F723A25732C25640DE5
:104D30000A000000DC00002081F00041704780F094
:104D40000040704721F00041704720F0004070475C
:104D500021F00042A2F16052B2F5801F01F0004341
:104D600028BFD2F17F6C0BD95FEA001C43EAC20274
:104D700042EB507018BF704728BF20F00100704709
:104D8000B2F5801FBCBF184670474FEA410C1CF5B6
:104D9000001F02D2084600F0D1BC70B500F00EFB37
:104DA00000000089FFF7F6BF4FF00040A0F580003B
:104DB0007047000010B591EA030F48BF83F000432D
:104DC00000F16483841A71EB030C05D2121943EBD2
:104DD0000C03001B61EB0C01DFF824E14FEA1154D6
:104DE000A4EB135C1EEA430F18BF9EEA445F73D026
:104DF00023EA0E03DCF1200E21EA045143F4801370
:104E000032D322FA0CFE10EB0E0023FA0CFE41EB1B
:104E10000E01CCF1200E03FA0EFE10EB0E0051F144
:104E20000001B1F5801FCCF1200E32D201EB04510C
:104E300012FA0EF2BDE8104058BF7047401C38BF50
:104E40005FEA420218BF7047002814BF20F001003B
:104E500041F100014FEA410313F5001F38BF7047CD
:104E6000A1F1C04100F0F8BA012A43EB0302ACF112
:104E7000200CDCF11F0E32BF4FF0000E23FA0CF3B2
:104E800010EB030041EB0451B4EB115FD0D0A1EB68
:104E9000045101F5801149085FEA300001EB04512B
:104EA0000ED350F1000038BF12FA0EFE08D1BDE853
:104EB0001040C9E7401C38BF5FEA4202CAD1C3E7CD
:104EC000BDE810404FEA410313F5001F38BF70479B
:104ED000A1F1C04100F0C0BA9EEA445F08D011EAD7
:104EE0005E0FBDE8104004BF01F000410020704794
:104EF000BDE8104070B500F061FA00BF64FBBE3E33
:104F00000000E0FF2DE9C04130B4DFF8A0C23CEA68
:104F1000111418BF3CEA131400F0EC8081EA030579
:104F20001CEA111444EAD57418BF1CEA131500F0EA
:104F3000C780A4EB05044FF0004545EAC12145EACE
:104F4000C32341EA505143EA525304F17F7499421A
:104F500004F500344FEAC0204FEAC22208BF904255
:104F600000F09C804FEA13650FF24016765D4FEA21
:104F7000134506FB05F7C7F1807706FB07F74FEAF5
:104F8000D737A7FB03687642C8F58038A7FB06CE63
:104F900038BFA8F1010807FB08E64FF0000EA6FB9A
:104FA000028CE6FB03CEDCF1000CCEF1004E38BFE4
:104FB000AEF1010EA6FB0C584FF000074FF00005B4
:104FC000E6FB0E87A1FB08C6A0FB07CE16EB0E067C
:104FD00045F10005E1FB076515F1E04E7EBFA4F544
:104FE00080345FEA46066D4116F1800745F1000501
:104FF0004FEA17274FEA066647EA0567A6F1DE463D
:10500000B6F1805F4FEA15251FD9384624F0010C10
:1050100005EBC471BCF1FE6F01EB0C1102D8F0BCC2
:10502000BDE8008124425CBF01F5801E9EEAC47F7A
:1050300002D4F0BCBDE80081244238D4F0BCA1F118
:10504000C041BDE8004100F007BA4FEAD22242EA6F
:1050500043524FEAD323A7FB02864FEAD02040EA0F
:10506000415007FB03661EEA0E0F4FEAD12105FBF4
:10507000026658BFA6EB0056B6EB00564FEA520E3A
:105080004EEAC37E18EB0E0E56EB530EBDD518EB51
:1050900002085E417F1C55F10005B6E74FF480150C
:1050A0004FF000074FF000064FF00008ADE7F0BCEE
:1050B0004FF0000001F1C04101F00041BDE8008166
:1050C00011EA0C1F0CEA131500D00CE013EA0C1FB8
:1050D00000F025804FF00000F0BC81EA030101F0F0
:1050E0000041BDE80081F0BCBDE8004181EA030158
:1050F00000F0B2B9F0BCBDE8004170B500F05EF957
:10510000097EFC3E00F007B881EA03014FF0000081
:1051100001F00041704781EA030100F09DB9F0BC45
:10512000BDE800414FF0000021497047FFFDFBF949
:10513000F7F5F4F2F0EEEDEBE9E8E6E4E3E1E0DECA
:10514000DDDBDAD8D7D5D4D3D1D0CFCDCCCBCAC83C
:10515000C7C6C5C4C2C1C0BFBEBDBCBBBAB9B8B763
:10516000B6B5B4B3B2B1B0AFAEADACABAAA9A8A856
:10517000A7A6A5A4A3A3A2A1A09F9F9E9D9C9C9B24
:105180009A999998979796959594939392919190CF
:105190008F8F8E8E8D8C8C8B8B8A89898888878760
:1051A0008685858484838382828181800000FF07D5
:1051B0000000F87F4FEA41034FEA5353A3F58063A1
:1051C000D3F11E03C8BFD3F1210C0CDD4FF0004218
:1051D00042EAC12242EA505232FA03FC8CEAE17CF4
:1051E000ACEBE1707047102BC4BF0020704703F593
:1051F000787CBCF1FF3F04D06FF0004282EA2100CE
:10520000704770B500F0DAF84992248000207047AA
:10521000F2E710F0004248BF4042B0FA80F310FAC3
:1052200003F10AD0C3F11D0303F580634FEA415037
:1052300002EB035202EBD12170474FF000007047A0
:10524000B0FA80F310FA03F10AD0C3F11D0303F59D
:1052500080634FEA41504FEA035202EBD12170477D
:105260004FF0000070470000DFF848C170B51CEA3D
:10527000111E1EBF1CEA13159EEA0C0F95EA0C0FB7
:1052800000F06F8081EA030423EA4C134EEAD47ED7
:1052900021EA4C1141F4801143F48013AE44A1FB88
:1052A000024CA0FB0365AEF17F7E361955EB0C0571
:1052B000A1FB034C4CF10003A0FB021C16EB0C06F7
:1052C000654153F10003094218BF46F0010613F48B
:1052D000007F0BD14FEA03314FEA0530340341EA36
:1052E000155140EA16506FF003020AE04FEAC3215D
:1052F0004FEAC520F40241EA555140EA56506FF09A
:10530000020202EB2E4201EB025585EACE710AD071
:105310005FEA440C18BF24F0004450F1000041F152
:10532000000120EAD47040F2FE7C624500D270BDDC
:10533000A84214BF4FF080444FF04044002E08BFF5
:105340000024BEF1806FA8BFA1F1C041BDE870404C
:1053500080F282804FF0000001F1C04101F0004175
:1053600070479EEA0C0F0CEA131518BF95EA0C0F54
:1053700006D04FF0000081EA030E0EF0004170BD30
:1053800000F01CF88900013E00F007B800F009B8F1
:105390004FEA430C5FEA5C5C08D081EA030100F04D
:1053A0005BB84FEA410C5FEA5C5CF6D14FF000005D
:1053B000014970470000FF070000F87F0EF1020E60
:1053C0002EF0030E5EF8046B364205D4012A43EB3F
:1053D000030515F5001F12D8012841EB010C1CF53F
:1053E000001F0CD80ED14FEAD17C15F5001F0CEB35
:1053F0004C0C0CF1020C08BF4CEBD37C04E04FF0DA
:10540000080C01E04FEAD37C0CEB4C0526FA05F6BC
:1054100006F00706B6F1040C06D20EEB860CBDE8CA
:1054200070404CF0010C6047DFE80CF0090B020201
:105430004FF000414FF00000A1F5002170BD19466A
:105440001046012851EB010418BFD4F5001484BFA5
:10545000002001F0004170BD0808A0F500114FEADE
:105460003101704791EA030F10B581F000413FF51B
:10547000A9AC83F0004300F009B8000010B591EA30
:10548000030F48BF83F000433FF59CAC841A71EBD7
:10549000030C07D212198CF0004C43EB0C03001BD9
:1054A00061EB0C01DFF8A4E14FEA1154A4EB135CAB
:1054B0001EEA430F18BF9EEA445F00F0B08023EA63
:1054C0006E03524221EA0451C3EB6E0338BF5B1EE8
:1054D000DCF1200E25D322FA0CFE10EB0E0043FA6D
:1054E0000CFE41EB0E01CCF1200E03FA0EFE10EB88
:1054F0000E0051F10001CCF1200E29D412FA0EF267
:1055000001EB0451BDE8104058BF7047401C1CBF60
:10551000B2F1004F704700280CBF491C20F0010079
:10552000704712EB020E43EB030218BF4FF0010E5F
:105530004EEA4202ACF1200CDCF11E0E54D943FAC3
:105540000CFE10EB0E0051F1FF31CCF11E0ED5D543
:105550000EF1010E12FA0EFE404141EB010101EB8A
:10556000445C5FEA5C5C10D910EBDE7001EB045127
:1055700038BFBEF1004FBDE8104018BF704700288B
:105580000CBF491C20F00100704730D24FEAD42CE8
:1055900011F5001124F400641BD0B1FA81F20B3A2A
:1055A000A41AA41ED2F12003914030FA03F3194348
:1055B000904001EBCC71002C01EB0451BDE8104090
:1055C000A8BF704701F1C0414FF0000001F0004159
:1055D0007047B0FA80F310FA03F100D110BDE41A5D
:1055E000173C4805C90AE4E701EB045110BD491016
:1055F00001EB0451BDE810404FEA300002E04FF0EB
:10560000000170474A0008BF0042F8D0B2F5001F01
:1056100028BF704701F000414FF0000070479EEA3C
:10562000445F07D011EA5E0FBDE8104004BF0021BF
:1056300000207047BDE8104070B5FFF7BFFE00BF07
:1056400040DFF63E83F00041104670470000E0FF67
:1056500043004FEAD30C4FEA3C0C43401FBF4007C6
:105660000CF1605113F0FE4F70471CF0006F03D136
:1056700000200CF0004170470CF0004343EA5070EA
:1056800010B540EACC0000F00EF800BF0000009218
:105690004FEA0001FFF7E0BE4FF000414FF000007D
:1056A000A1F5002170470EF1020E2EF0030E5EF8F8
:1056B000044B244204D44FEA4102B2F17F4F11D887
:1056C0004FEA4003B3F17F4F0CD80ED14FEAD07CA4
:1056D000B2F17F4F0CEB4C0C0CF1020C08BF4CEB01
:1056E000D17C04E04FF0080C01E04FEAD17C0CEBD8
:1056F0004C0324FA03F404F00704B4F1040C06D2BA
:105700000EEB840CBDE810404CF0010C6047DFE864
:105710000CF0070802024FF00040A0F5800010BD19
:105720000846420018BFD2F1807288BF00F00040E6
:1057300010BD4FF04070E1EE100A7047FF2141EAC2
:10574000D050C005704700004C5555555555A53FE4
:105750007751C1166CC156BF9015CB19A001FA3E06
:10576000AD529C804F7E92BEC4B1B4BD9EEE213E30
:10577000D43888BEE9FAA8BD00004054FB21F93FA7
:105780003163621A61B4D03D0000601A61B4D03D4B
:105790007370032E8A19A33B0000002E8A19A33BC5
:1057A000C14920259A837B390000000000000000D9
:1057B0006E83F9A22915444ED15727FCC0DD34F57C
:1057C000999562DB4190433CAB6351FE61C5BBDE02
:1057D0003A6E24B7E0D24D42EA2E49061C92D10916
:1057E0001CEB1DFE3EA729B1F53582E88444BB2E93
:1057F00026709CE9417E5FB439D69139F4395383E0
:105800008B5F849C3B28F9BDFF97F81F0F9805DE3E
:105810008B112FEF1F6D0A5ACF7E366DB709CB273C
:10582000663F464F2DEA5F9EC7BA27757BF1E5EBD1
:10583000F739073DEA92528AB15FFB6B085D8D1F15
:10584000A6F810111111813FD561C119A0012ABF1D
:105850007DFEB157E31DC73EEB9C2B8AE6E55ABEA1
:105860007CD5CF5A3AD9E53D885800080000002081
:1058700014010000C40100089C5900081401002014
:10588000145E0000E00100080000000000000000BD
:1058900000000000007A030A000000000000000081
:1058A00001020304060708090000000000000000D0
:1058B00000000000000000000000000011000000D7
:1058C00000000000000000000000000000000000D8
:1058D00000000000000000000000000000000000C8
:1058E00000000000000000000000000000000000B8
:1058F00000000000000000000000000000000000A8
:105900000000000000000000000000000000000097
:10591000000000000000000000000000010203047D
:10592000010203040607080900000000000000004F
:105930000000000000000000000000000000000067
:105940000000000000000000000000000000000057
:105950000000000000000000000000000000000047
:105960000000000000000000000000000000000037
:10597000000000000000000000000000AAAAAAAA7F
:105980000000000000000000000000000000000017
:0C5990000000000000000000000000000B
:040000050800018965
:00000001FF
