:020000040800F2
:10000000105C002061020008C9370008532E000868
:10001000DB3400080F060008D1470008000000008C
:10002000000000000000000000000000A101000826
:100030009507000800000000FD010008B14000081D
:100040007B0200087B0200087B0200087B0200089C
:100050007B0200087B0200087B0200087B0200088C
:100060007B0200087B0200087B0200080D070008E5
:100070007B0200087B0200087B0200087B0200086C
:100080007B0200087B0200087B020008350600089E
:10009000110600081D060008290600089707000839
:1000A0007B0200087B0200087B0200087B0200083C
:1000B000714100087D4100087B0200087B020008B6
:1000C0007B0200087B0200087B0200087B0200081C
:1000D0007B0200087B0200087B0200087B0200080C
:1000E0007B0200087B0200087B0200087B020008FC
:1000F0007B0200087B0200087B0200087B020008EC
:100100007B0200087B0200087B0200087B020008DB
:100110009D440008A94400087B0200087B020008F7
:100120007B0200087B0200087B0200087B020008BB
:100130007B0200087B0200087B02000865060008BD
:10014000410600084D060008590600087B02000819
:100150007B0200087B0200087B0200089D47000824
:100160007B0200087B0200087B0200087B0200087B
:100170007B0200087B0200087B02000800000000F0
:100180007B0200087B020008DFF810D000F002FAC2
:100190000048004799510008AFF30080105C002030
:1001A0002C4B19680868B0E8F04F80F30988BFF35A
:1001B0006F8F4FF0000080F311887047000000003F
:1001C00008480068006880F308884FF0000080F35A
:1001D000148862B661B6BFF34F8FBFF36F8F00DF35
:1001E00000BF00BF08ED00E0DFF80C00016841F43B
:1001F00070010160704700BF88ED00E0EFF30980F7
:10020000BFF36F8F134B1A681EF0100F08BF20ED5D
:10021000108A20E9F04F106009B44FF0500080F3CD
:100220001188BFF34F8FBFF36F8F06F04DFA4FF079
:10023000000080F3118809BC19680868B0E8F04F25
:100240001EF0100F08BFB0EC108A80F30988BFF3CE
:100250006F8F704744000020EFF305807047000067
:100260000648804706480047FEE7FEE7FEE7FEE750
:10027000FEE7FEE7FEE7FEE7FEE7FEE76141000876
:10028000890100082DE9F05F0546002092469B4653
:1002900088460646814640241BE02846414647469C
:1002A000224600F082F853465A46C01A914110D3B4
:1002B00011461846224600F069F82D1A67EB01082E
:1002C0004F4622460120002100F060F817EB00099C
:1002D0004E41201EA4F10104DFDC484631462A4687
:1002E0004346BDE8F09F40EA01039B0703D009E0C5
:1002F00008C9121F08C0042AFAD203E011F8013B12
:1003000000F8013B521EF9D27047D2B201E000F86A
:10031000012B491EFBD270470022F6E710B51346A9
:100320000A4604461946FFF7F0FF204610BD00F0CC
:10033000004230F000400AD0C10D01F56071C0F3F9
:10034000160042EA0151C2084007114370470020DD
:100350000146704701F0004330B421F0004150EAFB
:10036000010206D00A0DA2F56072C1F31301002A42
:1003700002DC30BC00207047440F44EAC104C100D5
:10038000E01830BC00EBC25000F01FB8202A04DB9C
:10039000203A00FA02F1002070479140C2F1200398
:1003A00020FA03F3194390407047202A04DB203AD7
:1003B00021FA02F00021704721FA02F3D040C2F185
:1003C000200291400843194670470029A8BF704792
:1003D000401C490008BF20F00100704710B4B0FA7B
:1003E00080FC00FA0CF050EA010404BF10BC704716
:1003F00049B1CCF1200421FA04F411FA0CF118BF30
:10040000012121430843A3EB0C01CB1D4FEA0061FE
:100410004FEA102042BF002010BC704700EBC350D1
:1004200010440029A4BF10BC7047401C490008BFFD
:1004300020F0010010BC704710B5141E73F10004C9
:1004400008DA401C41F1000192185B411A4301D1C6
:1004500020F0010010BD2DE9F04D92469B4611B1F0
:10046000B1FA81F202E0B0FA80F220329046FFF752
:100470008DFF04460F4640EA0A0041EA0B0153464D
:100480005A46084313D0114653EA010019D0C8F167
:1004900040025046FFF789FF05460E465046594632
:1004A0004246FFF773FF084305D0012004E02046D1
:1004B0003946BDE8F08D0020054346EAE0762C433E
:1004C00037430A986305E40AA0EB08000022FD0AFE
:1004D00044EA47540A3002D500200146E9E7010505
:1004E00010196941DDE9084500196941BDE8F04D81
:1004F000A2E72DE9F04D00231A461B1A8A4103DBBF
:1005000000200146BDE8F08DC1F30A52C1F313018A
:1005100041F480154FF0000BD10702D100186D4156
:10052000521E0027044640F2FF11384601EB620AD2
:100530003E468046024600204FF48011FFF735FF0B
:10054000C2197141BB1846EB0100B4EB030C75EB0B
:10055000000C04D3E41A65EB000517460E46241977
:1005600008F101006D4180463428E3DDF91946EBBE
:100570000600091BA84103D24FF0FF32134601E0E9
:10058000002213461BEB070046EB0A51BDE8F04D75
:10059000FFF752BF064C074D06E0E06840F001034C
:1005A00094E8070098471034AC42F6D3FFF7F0FD0B
:1005B000207400084074000870B58C1810F8015BB6
:1005C00015F0070301D110F8013B2A1106D110F8EC
:1005D000012B03E010F8016B01F8016B5B1EF9D1F0
:1005E0002B0705D40023521E0DD401F8013BFAE776
:1005F00010F8013BCB1A921C03E013F8015B01F8E1
:10060000015B521EF9D5A142D8D3002070BDFEE790
:10061000014800F07EBB0000CC010020014800F042
:1006200078BB0000CC010020014800F072BB000044
:10063000CC010020014800F06CBB0000CC01002080
:10064000014800F066BB0000F4010020014800F002
:1006500060BB0000F4010020014800F05ABB00001C
:10066000F4010020014800F054BB0000F401002018
:1006700070B541F288312DED028B9FED1F8A1F4826
:10068000B0EE480A04F08CF91D4D1C4E0024286A77
:100690009C3EB0B186ED248A062030603483C6F8D3
:1006A0009C00A6F8B440EC612C61AC806C616C627B
:1006B0006C7014482C70AC6144720472BDEC028BF7
:1006C00070BD0E489FED100A41F658319C3804F079
:1006D00067F9B6F9160041F28731084449008842AB
:1006E00007D9A86A401CA8621428E7DB0120286209
:1006F000E4E7AC62E2E70000000000006C4E00207E
:10070000FC0000208857002000007AC4014800F057
:100710003DBE00000404002001681823CAB2103A4C
:10072000B2FBF3F2054B6FF30901032A9B5CC3652F
:1007300000D9091D816508467047000084730008D0
:1007400010B5014600208B698A6A4FF0C07453B11E
:10075000B3F5005F15D072B1012A0CD0022A0AD07D
:10076000032A09D104E01AB1012A06D0022A03D1D2
:10077000C96AC90100D5012010BDC96AA142FAD0D9
:1007800010BD002AF7D0012AF2D0022AF3D0032AA2
:10079000F3D010BD7047802001F018B872B6FEE7A4
:1007A0000F4A10B5108900B10120518901B1012112
:1007B0000840918901B101210840D18901B101218D
:1007C000084C084202D003F005FB02E0042084F844
:1007D000580014F8580F05F019FD607010BD0000A6
:1007E000F8570020885700202DE9F04F784D2DED67
:1007F000028B85B0B5F90400E62879DB29789FEDF6
:10080000758ADFF8D481DFED758A28460024C06937
:10081000734E01274FF0020A4FF4966B002969D0FE
:10082000697840F6B839B1B310B30023009401944D
:1008300002941A4619461846039404F005FDB0EEDA
:10084000680AA8F19C0003F0D5F9B5EEC00AF1EEF4
:1008500010FA21D0AC62AC612C62B0EE480A41F2D1
:10086000883140466C6204F09BF886F803A01AE0D9
:100870002C614FF42F61CDF80090CDE901140023D5
:100880001A4619461846039404F0DEFCB0EE480AF6
:1008900041F6583104E00FE0B0EE480A41F28831E9
:1008A000404604F07DF8F079012800D1EF6105B0F1
:1008B000BDEC028BBDE8F08F9FED4A0A41F658313E
:1008C000404604F06DF8CDF80090CDE901B4002366
:1008D0001A4619461846039404F0B6FC3E489C3864
:1008E000B0F9B21041F288308142E0DB6F70DEE790
:1008F0006BE0FFE740B100230094019402941A4694
:1009000019461846039410E0707D37494FF4E162B0
:100910004FF4FA6301281DD0CDE90032DFF8CCC0D6
:10092000CDE902C400231A46584604F08DFC6869DC
:10093000822847DBE869012816D0B0EE480A41F268
:100940008831404604F02CF82869B0F5C87F2DDBCB
:100950002F702DE041F66410CDE90032CDE902049C
:1009600000231A465846E0E71B48B0EE680A9C3858
:1009700003F040F9B5EEC00AF1EE10FA0ED0AC6209
:10098000AC612C626C626C70B0EE480A41F2883146
:10099000404604F005F886F803A009E0B0EE480AE6
:1009A00041F28831404603F0FBFF01E0401C286122
:1009B000F0790128686A01D1401C68623228BFF6CC
:1009C00075AF74E7401C686171E7401CA8806EE752
:1009D000FC0000200000FAC46C4E00200000004320
:1009E000885700200000FA4450FBFFFF9CE6FFFF01
:1009F00090F82020012A07D0022A05D0416A41F44C
:100A00008021416201207047006842690A434261C7
:100A100000207047F0B590F820500468A468012DBC
:100A200005D0022D03D0416A41F480215DE014F02D
:100A3000406F01D1E50055D5C4F30164022C03D900
:100A4000416A41F4000150E00125A5401D608B681A
:100A50004FF4C0759BB1CE6833434E6843EAC6037A
:100A6000066805EB0417F3514FF4C273076803EBF4
:100A700004130E69FE50097D012905D009E00E8896
:100A8000CB6843EA4653EBE70168CE5846F48076DC
:100A9000CE501179D379567941EA036193791B04D9
:100AA00043EA062319434FF4C676036806EB04169F
:100AB00099511178D37841EA0361937852781B04F5
:100AC00043EA022211434FF4C473026803EB041398
:100AD000D150006805EB0411425842F00102425027
:100AE0000020F0BD416A41F4001141620120F0BDD7
:100AF00010B590F82020012A07D0022A05D0416ABB
:100B000041F480214162012010BD3B48D0F8002211
:100B100042F00102C0F80022D0F8002222F47C52F8
:100B2000C0F80022D0F800224B6A42EA0322C0F843
:100B300000220A7D02F01F0301229A40D0F81C32E5
:100B40009343C0F81C32CB69B3B9D0F80C3293434D
:100B5000C0F80C328C894B6864F31F434C6900EB7E
:100B6000C404C4F840320C890B6864F31F434C6919
:100B700000EBC404C4F84432CB69012B16D1D0F881
:100B80000C321343C0F80C320C884B6864F31F43DB
:100B90004C6900EBC404C4F840320C89CB6864F3A0
:100BA0001F434C6900EBC404C4F844328B69002B2A
:100BB000D0F804320ED01343C0F804320B69002B76
:100BC000D0F8143208D01343C0F81432096A01294E
:100BD00004D008E09343EFE79343F5E7D0F81C1205
:100BE0001143C0F81C12D0F8001221F00101C0F826
:100BF0000012002010BD000000640040704730B5B6
:100C000090F82040012C05D0022C03D0416A41F419
:100C100080215DE00468002955D02469A40754D0E0
:100C20004FF4D874056804EB01142D5915F0040530
:100C3000956005682D594ED0ED08556005682C5912
:100C400004F00204D4604FF4DA74056804EB011474
:100C50002D5905F00F05156105682D59C5F30725B8
:100C6000956105682C59240C54614FF4DC720468BA
:100C700002EB0112A4581C700468A458240A5C708A
:100C80000468A458240C9C700468A258120EDA70F0
:100C90004FF4DE72046802EB0112A4581C71046860
:100CA000A458240A5C710468A458240C9C7104683C
:100CB000A258120EDA71006881B1016941F0200179
:100CC0000161002030BDE468A8E7416A41F40011E9
:100CD0004162012030BD6D0D1560AFE7C16841F084
:100CE0002001C160EDE70246002092F820100129A2
:100CF00001D002290CD111688A68520100D5012067
:100D00008A68120100D5401C8968C90000D5401CC2
:100D100070472DE9F05F0546006800244669D0F869
:100D200004908768D0F80CB0D0F810A0D0F81880E4
:100D3000F10748D0F90714D001218160B80703D525
:100D4000284600F090FA0CE0780702D54FF40064D2
:100D500007E0380702D54FF4805402E0284600F03F
:100D600081FAF80516D529684FF480708860B805B7
:100D700003D5284600F079FA0CE0780502D544F452
:100D8000005407E0380502D544F4804402E02846C8
:100D900000F06AFAF80316D529684FF480308860AD
:100DA000B80303D5284600F062FA0CE0780302D5B8
:100DB00044F4004407E0380302D544F4803402E0F0
:100DC000284600F053FA300707D55FEACB6004D518
:100DD0002968102044F40074C86070074FF00807B9
:100DE00007D55FEA0B7004D52868C760284600F075
:100DF000C9F9B00706D52868C068800702D0284620
:100E000000F0C2F9700607D55FEACA6004D5296808
:100E1000102044F480640861B00607D55FEA0A70C8
:100E200004D528680761284600F0EEF9F00606D5DB
:100E300028680069800702D0284600F0E6F9B00370
:100E400008D55FEAC96005D52968102048602846A2
:100E500000F0DCF9F00307D55FEA097004D52868D3
:100E60004760284600F004FA300446D55FEA49702E
:100E700040D5F00504D55FEAC87001D044F0010404
:100E8000B00504D55FEA887001D544F0020470050E
:100E900004D55FEA487001D544F00404300529D533
:100EA00018F0700F26D008F07000402815D006DC2E
:100EB000102809D020280AD0302816D10AE050285E
:100EC0000ED0602811D10EE044F008040DE044F08B
:100ED00010040AE044F0200407E044F0400404E079
:100EE00044F0800401E044F480742868816921F0B2
:100EF00070018161296804204860002C05D0686A6F
:100F0000204368622846FFF779FEBDE8F09F70B580
:100F1000040003D094F8200010B104E0012070BD5B
:100F2000204600F081F82068016841F0010101606D
:100F300000F04AFD0546052604E000F045FD401B93
:100F40000A2811D820684068C007F6D020680168D8
:100F500021F00201016000F037FD05460BE000F0D2
:100F600033FD401B0A2806D9606A40F400306062F5
:100F700084F82060D2E7206840688007EFD4207EA4
:100F80000128206801683DD021F080010160607E69
:100F900001282068016838D021F040010160A07E5E
:100FA00001282068016833D021F020010160E07E33
:100FB0000128206801682ED041F010010160207FD7
:100FC00001282068016829D021F008010160607FB4
:100FD00001282068016824D021F004010160D4E9CF
:100FE00002010843D4E90412114308436168491E11
:100FF00008432168C86100206062012084F8200055
:10100000002070BD41F08001C0E741F04001C5E71C
:1010100041F02001CAE721F01001CFE741F00801BB
:10102000D4E741F00401D9E7F0B587B004461421B4
:101030006846FFF771F94E494E4ADFF830E108681B
:10104000D4F800C04B4B0224032509261032002798
:10105000401CF4453BD10860012807D1106840F0DE
:1010600000701060106800F000700590186840F083
:10107000010018601868694600F0010005904FF4FF
:10108000C0508DE89100CDE903563B4800F0AAFB23
:1010900000220221132000F045FD132000F035FD51
:1010A00000220221142000F03DFD142000F02DFD4F
:1010B00000220221152000F035FD152000F025FD4D
:1010C00000220221162000F02DFD16204AE0DFF854
:1010D000ACE0F44548D1D2F800C04CF0806CC2F8C6
:1010E00000C0D2F800C001280CF0806CCDF814C00C
:1010F000086007D1106840F000701060106800F0C0
:1011000000700590186840F0020018601868694681
:1011100000F0020005904FF440508DE89100CDE9B9
:101120000356174800F05EFB002205213F2000F027
:10113000F9FC3F2000F0E9FC00220521402000F0EE
:10114000F1FC402000F0E1FC00220521412000F0EC
:10115000E9FC412000F0D9FC00220521422000F0EA
:10116000E1FC422000F0D1FC07B0F0BD006400407B
:10117000300000203038024000000240006800408B
:10118000000402407047000070B505461A4888B058
:10119000854218D1194B6A460021FFF730FD0298AD
:1011A00088B91649684603F083FF154E0024C4EB46
:1011B000C40000EB441006EB800002F045FD641C07
:1011C000A4B2082CF3D30F48854212D10B4B6A46C8
:1011D00008330021FFF713FD0298042809D10748BE
:1011E000801E0188491C018000F10A01684603F055
:1011F00043FE08B070BD0000CC010020E6000020D6
:10120000D04D0020F401002070477047704770B542
:10121000044690F82000012804D0606A40F40020C1
:10122000606217E0022084F820002068016821F045
:101230000101016000F0C8FB05460DE000F0C4FBB1
:10124000401B0A2808D9606A40F40030606205201B
:1012500084F82000012070BD20684068C007EDD1EF
:10126000606270BD70477047704770477047704745
:1012700070472DE9F0410446876D00F0A5FB054657
:1012800094F835000026022806D08020606584F896
:1012900034600120BDE8F0812068016821F016016A
:1012A00001602068416921F080014161206C08B92A
:1012B000A06C20B12068016821F00801016020685D
:1012C000016821F0010101600CE000F07DFB401B92
:1012D000052807D920206065032084F8350084F8AC
:1012E0003460D7E720680068C007EED194F85C103E
:1012F0003F208840B860012084F8350084F83460CD
:101300000020C7E790F83510022903D080214165FD
:1013100001207047052180F835100068016821F030
:10132000010101600020704770B504002BD094F8D3
:101330003500022826D02068016821F001010160F3
:101340002068002505602068456020688560206869
:10135000C560206805612168212048612046FFF7AB
:10136000DBF9E56325646564A564E564256594F8A7
:101370005C203F2191408160656584F8355084F898
:101380003450002070BD012070BD00002DE9F843ED
:1013900004464FF00009CDF8009063484FF4165111
:1013A000A56D0068B0FBF1F72E6894F85C20082169
:1013B00001FA02F030420FD02068026852070BD5C4
:1013C000026822F00402026094F85C008140A96087
:1013D000606D40F00100606594F85C104FF001080A
:1013E00008FA01F0304208D021684969090604D59D
:1013F000A860606D40F00200606594F85C10042005
:101400008840304208D021680968890704D5A8605F
:10141000606D40F00400606594F85C101020884016
:10142000304218D021680968090714D5A8602068DF
:101430000168490304D50068000308D5A16C07E0E2
:101440000168C90503D4016821F008010160216C1D
:1014500009B12046884794F85C102020884030422B
:1014600031D021680968C9062DD5A86094F83500E7
:1014700005282068016806D0490347D500680003A5
:101480001DD4616C1CE021F01601016020684169E7
:1014900021F080014161206C08B9A06C20B1206866
:1014A000016821F00801016094F85C103F20884039
:1014B000A86084F8358084F83490216D1FE0E16BDA
:1014C00009B120468847606D00282BD0606DC007A9
:1014D00014D0052084F835002068016821F001014E
:1014E00001600098401C0090B84203D82068006852
:1014F000C007F6D184F8358084F83490E16C002977
:1015000010D001B02046BDE8F04308470168C90586
:10151000D5D4016821F01001016084F8358084F889
:101520003490CCE7BDE8F883400000202DE9F0417D
:10153000044600F049FA05465CB1022084F8350003
:10154000002684F834602068016821F00101016000
:101550000DE00120BDE8F08100F036FA401B0528BF
:1015600005D920206065032084F83500F2E7206863
:101570000068C007F0D121680A6820480240D4E919
:1015800001031843D4E903352B4318436369184317
:10159000A3691843E3691843236A18431043626A36
:1015A000042A03D1D4E90B231A43104308602068AE
:1015B0004069656A20F0070128460D430127042889
:1015C0000CD1A06A0543E06A40B12046FFF7B8F8A5
:1015D00020B14020606584F83570BAE72068456125
:1015E0002046FFF799F894F85C203F2191408160F4
:1015F000666584F835700020ACE700003F8010F08D
:1016000070B5044600F0E0F90546601C02D00448BD
:101610000078044400F0D8F9401BA042FAD370BD12
:10162000340000202DE9F04FDFF8F0A089460022B9
:101630004FF0010B4FF00F0C0BFA02F609EA06030C
:10164000B34265D122F003045444D4F80818950736
:101650002F0F0CFA07F505EA01083149884201D13C
:10166000002123E02F49884201D101211EE02E49AB
:10167000884201D1022119E02C49884201D103217D
:1016800014E02B49884201D104210FE02949884206
:1016900001D105210AE02849884201D1062105E04F
:1016A0002649884201D1072100E00821B94041457F
:1016B00015D1234F3968994339603F1D39689943E3
:1016C00039601F4F0C373968994339603F1F3968BB
:1016D00099433960D4F80818A943C4F80818036876
:1016E00054000321A1408B430360D30800EB830324
:1016F0001D6A5407E70E0CFA07F4A5431D62C36880
:101700008B43C3604368B343436083688B43836008
:10171000521C102A90D3BDE8F08F00000030014029
:10172000000002400004024000080240000C024099
:10173000001002400014024000180240001C024049
:10174000003C014070B51F4C80280DD16169C00577
:101750002161426AE06840F27123584302EB0010B5
:101760006061A060401AA0806078002501210128F6
:10177000A08840F6980205D0904202D36170A5700F
:10178000257070BD904203D36170A570217070BD4B
:10179000A0F2B63140F24C42914210D80A4AA178E8
:1017A00022F81100491CC8B2A0700828EFD30649DE
:1017B000420001F11400FEF796FDA57070BD657042
:1017C00070BD000034010020E4570020044910B52A
:1017D0000A68024202D00860FFF7B4FF10BD0000A3
:1017E000143C01402DE9F84FDFF89C910022A9F14B
:1017F000040B03274FF00F0C09F1040AABF1040EA0
:1018000001250B6895402B40AB426ED10C7904F05A
:101810000304012C01D0022C15D18668540007FA6C
:1018200004F826EA0806D1F80C8008FA04F848EA19
:101830000608C0F808804468AC430D79C5F300156C
:101840009540254345600C79E443A40708D0C5685A
:10185000540007FA04F6B5438E68A6402E43C660CE
:101860000C7904F00304022C11D1D40800EB840697
:10187000356A5407E40E0CFA04F825EA0805D1F895
:10188000108008FA04F848EA0508C6F820800568C0
:10189000540007FA04F6B5430E7906F00306A64095
:1018A0002E4306604C6814F4403F66D0374C2568E0
:1018B00045F480452560246822F0030504F4804443
:1018C0000094334C05EB0408D8F808589407260F09
:1018D0000CFA06F4A5432F4CA04201D1002424E0C9
:1018E0002D4CA04202D101241FE046E02B4CA04227
:1018F00001D1022419E02A4CA04201D1032414E0B2
:10190000284CA04201D104240FE0274CA04201D171
:1019100005240AE0254CA04201D1062405E0244C10
:10192000A04201D1072400E00824B4402C43C8F8A9
:101930000848D9F800404D464E689C43F60200D551
:101940001C432C60DAF8004055464E689C43B602B2
:1019500000D51C432C60DBF800405D464E689C437C
:10196000B60300D51C432C60DEF8004075464E6877
:101970009C43F60300D51C432C60521C102AFFF434
:101980003FAFBDE8F88F0000083C014044380240FA
:101990000030014000000240000402400008024004
:1019A000000C0240001002400014024000180240E7
:1019B000001C02400069084000D0012070470AB1B5
:1019C000816170470904FBE70148806870470000A7
:1019D0003400002002488168027811448160704719
:1019E000340000200B4810B5016841F4007101601B
:1019F000016841F480610160016841F48071016017
:101A0000032000F0AFF80F2000F006F800F050F8C7
:101A1000002010BD003C024030B505461F4887B08D
:101A20000024016841F002010160006806A900F08D
:101A300002000590684600F041F90398A8B100F053
:101A40005DF940001649174AB0FBF1F11648491EEE
:101A5000026040F2E732C0E90324C0E90114846166
:101A600000F092FB040003D015E000F047F9E9E72D
:101A70000D4800F0EDFB04000DD11D2000F045F8ED
:101A8000102D07D2002229461D2000F04BF80748F0
:101A9000056000E0012407B0204630BD4038024018
:101AA00040420F0000040040640400203800002081
:101AB0000C4882B0016841F480410160006800F484
:101AC000804000900748001F016841F0805101608C
:101AD0000068002200F0805000900F21901E02B09C
:101AE00000F020B84438024000280DDB00F01F024F
:101AF000012191404009800000F1E020C0F88011F0
:101B0000BFF34F8FBFF36F8F7047002809DB00F0E2
:101B10001F02012191404009800000F1E020C0F83F
:101B200000117047F0B40E4B1B68C3F30223C3F1DE
:101B30000704042C00D904241D1D072D01D2002305
:101B400000E0DB1E012606FA04F56D1E0D409D40E7
:101B50009E40761E164045EA0601F0BC03F06AB8C6
:101B60000CED00E0064A00F0070110684FF6FF0395
:101B7000184040EA01200349084310607047000004
:101B80000CED00E00000FA052DE9F0470D460400D9
:101B900065D0DFF81491D9F80000EFB200F007002B
:101BA000A84207D289F80070D9F8000000F00700B9
:101BB000A84254D120683D4E810712D5400703D575
:101BC000306840F4E05030602078000703D530687A
:101BD00040F4604030603068A16820F0F0000843B5
:101BE00030602078C0072DD030496068083901285E
:101BF00012D0022813D0032811D0096889070029C0
:101C00002DDA316821F0030101433160FFF7DCFE7A
:101C1000804641F2883A0EE009688903EFE70968D7
:101C20008901ECE7FFF7D0FEA0EB0801514502D98E
:101C30000320BDE8F0873068616800F00C00B0EB6D
:101C4000810FEFD1D9F80010484601F00701A942F1
:101C500007D90770006800F00700A84201D00120F2
:101C6000E7E72078400705D53068E16820F4E050C8
:101C7000084330602078000706D53068216920F4D9
:101C8000604040EAC100306000F058F83168084A0E
:101C9000C1F30311515CC84006490860064800685A
:101CA000FFF7BAFE0020C4E7003C024008380240BB
:101CB0008C73000840000020380000200F220260D2
:101CC0000C4A136803F003034360136803F0F00346
:101CD0008360136803F4E053C36012684FF4E05369
:101CE00003EAD20202610448006800F007000860BD
:101CF0007047000008380240003C02400448054993
:101D000000680968044AC1F38221515CC8407047E9
:101D100040000020083802409C7300080448054930
:101D200000680968044AC1F34231515CC8407047F9
:101D300040000020083802409C730008154810B588
:101D4000006810F00C01144813D0431004290FD080
:101D500008290ED10F4C241F216801F03F02216891
:101D6000490207D52068C0F38810A0FB030106E0F4
:101D7000184610BD2168C1F38811A1FB00010023A2
:101D8000FEF780FA2168C1F30141491C4900B0FB0C
:101D9000F1F010BD083802400024F4002DE9F84F9E
:101DA000040075D02078DFF838A3C007AAF1040535
:101DB00048D00AF104000168C1F38101012908D06B
:101DC0000068C0F3810002280AD1DAF8000040025E
:101DD00006D52868800335D560680028E1D031E059
:101DE0006068B0F5803F10D0B0F5A02F286810D003
:101DF00020F480302860286820F480202860606803
:101E0000A0B1FFF7E1FD06460CE0286840F4803001
:101E1000F4E740F480202860F7E7FFF7D5FD801B4A
:101E2000642871D828688003F7D50BE0FFF7CCFD54
:101E3000064604E0FFF7C8FD801B6428F1D8286837
:101E40008003F7D42078DFF89C9280074FF0000BD6
:101E50003DD5A348001D016811F00C0F08D00068A3
:101E6000C0F3810002280AD1DAF80000400206D44B
:101E70002868800715D5E068012809D111E0E068DD
:101E8000B8B10120C9F80000FFF79EFD064605E045
:101E900022E1FFF799FD801B0228C2D8286880073D
:101EA000F7D52868216920F0F80040EAC1002860D1
:101EB0000DE0C9F800B0FFF787FD064604E0FFF724
:101EC00083FD801B02281FD828688007F7D420785C
:101ED000000722D5824F84486169703771B10121B2
:101EE0000160FFF771FD064604E0FFF76DFD801B02
:101EF000022809D838688007F7D50EE0C0F800B08E
:101F0000FFF762FD064605E082E0FFF75DFD801BFE
:101F100002287DD838688007F7D42078400765D537
:101F20006F484FF000083C300068C0000BD46C488C
:101F30003C30016841F08051016000684FF00108B9
:101F400000F080500090694F3868C0050FD43868A1
:101F500040F480703860FFF737FD064604E0FFF775
:101F600033FD801B022853D83868C005F7D55C4F75
:101F7000A0686C3701280FD00528386810D020F0F1
:101F800001003860386820F004003860A068B0B103
:101F9000FFF71AFD06460EE0386840F00100F4E74E
:101FA00040F004003860F7E7FFF70EFD811B41F2B7
:101FB0008830814263D838688007F5D50DE0FFF797
:101FC00003FD064606E0FFF7FFFC811B41F2883067
:101FD000814254D838688007F5D4B8F1000F05D095
:101FE0003F483C30016821F080510160A069B8B3DE
:101FF0003B49091D0968C1F38101022946D0022825
:10200000584606D0C9F86000FFF7DEFC044639E008
:1020100035E04F46C9F86000FFF7D6FC064604E0FD
:10202000FFF7D2FC801B022829D828688001F7D44A
:10203000D4E907010843A16A2D4A490802EB01418E
:10204000626A41EA8211084394F82C1040EA016167
:10205000CAF8001001203866FFF7B6FC044605E018
:102060003CE0FFF7B1FC001B022808D8286880017B
:10207000F7D533E0FFF7A8FC001B022802D90320A4
:10208000BDE8F88F28688001F4D427E00128F7D054
:10209000DAF80000E26900F4800191421CD1226A62
:1020A00000F03F01914217D147F6C071626A0140CA
:1020B000B1EB821F10D1A26A4FF0FF3300F4403120
:1020C00003EB5202B1EB024F06D194F82C1000F052
:1020D0007060B0EB016F01D00120D1E70020CFE7A5
:1020E0000438024000004742800E47420070004022
:1020F0000000FFFF7047704770B590F83C20012A40
:1021000032D0012580F83C50022280F83D20026840
:102110005368946823F070060B6833435360134B85
:1021200002689A4214D0B2F1804F11D0104B9A42FB
:102130000ED0104B9A420BD00F4B9A4208D00F4B47
:102140009A4205D00E4B9A4202D00E4B9A4204D1CD
:10215000496824F080031943916080F83D500021C4
:1021600080F83C10084670BD022070BD00000140A0
:102170000004004000080040000C00400004014042
:10218000004001400018004010B5040003D094F84E
:102190003D0010B107E0012010BD002084F83C0094
:1021A000204600F01FF8022084F83D00211D206821
:1021B00001F0EAFF012084F8460084F83E0084F82C
:1021C0003F0084F8400084F8410084F8420084F81D
:1021D000430084F8440084F8450084F83D00002062
:1021E00010BD000008B500681649B0F1804F0AD054
:1021F000154A904219D1086840F02000086008682C
:1022000000F020001BE0086840F00100086008684A
:10221000002200F00100009005211C20FFF782FC45
:10222000BDE808401C20FFF770BC084A904207D167
:10223000086840F080000860086800F080000090A6
:1022400008BD00004038024000140040001C00405F
:1022500090F83D10012901D001207047022180F83B
:102260003D100168CA6842F00102CA600068114965
:10227000884214D0B0F1804F11D00F4988420ED05F
:102280000E4988420BD00E49884208D00D49884239
:1022900005D00D49884202D00C49884204D181689A
:1022A00001F00701062903D0016841F00101016036
:1022B000002070470000014000040040000800407A
:1022C000000C0040000401400040014000180040A4
:1022D00070B5044690F83C000025012817D001266F
:1022E00084F83C60022084F83D002068826822F077
:1022F000770222F47F4282600868502838D00DDCD3
:1023000020284FD005DC90B3102811D14AE00220DC
:1023100070BD302846D040280AD13BE060282FD03D
:1023200070280DD0B0F5805F03D0B0F5005F12D0FB
:10233000012584F83D60002084F83C00284670BDEB
:10234000CB68D1E90121206801F08FFF2068816806
:1023500041F0770109E0CB68D1E90121206801F063
:1023600084FF2068816841F480418160E1E719E0E1
:10237000CA684968206802F04DF85021206806E0DC
:10238000CA684968206802F056F86021206801F0A8
:1023900076FFCEE7CA684968206802F03BF8402122
:1023A0002068F4E7226801461046F0E7704770B5F0
:1023B0000446006801694FF00005C943890715D438
:1023C000C168C943890711D4E91E01610120207742
:1023D000206880698007204602D0FFF7E7FF04E00D
:1023E00000F0C2F8204600F054F925772068016912
:1023F000C943490717D4C168C943490713D46FF0CB
:1024000004010161022020772068806910F4407F78
:10241000204602D0FFF7CAFF04E000F0A5F82046EE
:1024200000F037F9257720680169C943090716D4F8
:10243000C168C943090712D46FF008010161042083
:1024400020772068C0698007204602D0FFF7AEFFE2
:1024500004E000F089F8204600F01BF92577206899
:102460000169C943C90617D4C168C943C90613D451
:102470006FF010010161082020772068C06910F416
:10248000407F204602D0FFF791FF04E000F06CF897
:10249000204600F0FEF8257720680169C943C90786
:1024A00008D1C168C943C90704D1891E016120460A
:1024B00000F058F920680169C943090609D4C168C8
:1024C000C943090605D46FF0800101612046FFF77A
:1024D00011FE20680169C943490609D4C168C9438E
:1024E000490605D46FF040010161204600F080F9F3
:1024F00020680169C94389060BD4C168C9438906AC
:1025000007D46FF0200101612046BDE87040FFF75D
:10251000F2BD70BD10B586B0044614216846FDF7C3
:10252000FBFE0E492068884216D10D480021026842
:1025300042F020020260006800F0200005904FF495
:10254000807000900220CDE90101039009200490E1
:1025500069460448FFF746F906B010BD001C00406C
:102560003038024000140240704770B5044690F8BD
:102570003C0000260D4601280FD0012084F83C00C5
:102580006AB1042A1DD0082A2FD00C2A3FD0012678
:10259000002084F83C00304670BD022070BD2068E9
:1025A00001F076FE2068816941F0080181612068B0
:1025B000816921F004018161206881692A691143E0
:1025C00011E0206801F094FE2068816941F4006107
:1025D00081612068816921F480618161206881695D
:1025E0002A6941EA02218161D2E7206801F0B6FE42
:1025F0002068C16941F00801C1612068C16921F00A
:102600000401C1612068C1692A69114311E0206891
:1026100001F0D8FE2068C16941F40061C161206801
:10262000C16921F48061C1612068C1692A6941EAF8
:102630000221C161ACE710B5040003D094F83D005D
:1026400010B107E0012010BD002084F83C002046B6
:1026500000F01EF8022084F83D00211D206801F0E2
:1026600093FD012084F8460084F83E0084F83F0082
:1026700084F8400084F8410084F8420084F8430064
:1026800084F8440084F8450084F83D00002010BD23
:102690007047704710B5044649B104290AD008298B
:1026A0000BD094F8410001280AD0012010BD94F805
:1026B0003E00F8E794F83F00F5E794F84000F2E7B1
:1026C0000220B1B3042938D0082939D084F8410058
:1026D0000122206801F0BCFD1B4920681B4A88428A
:1026E00001D0904203D1436C43F40043436420681B
:1026F000884213D0B0F1804F10D0154988420DD0D8
:10270000144988420AD01449884207D0904205D023
:102710001249884202D01249884204D1816801F0EE
:102720000701062903D0016841F001010160002082
:1027300010BDFFE784F83E00CAE784F83F00C7E712
:1027400084F84000C4E7000000000140000401409C
:102750000004004000080040000C00400040014020
:102760000018004010B5044600681B49884201D19A
:10277000FFF730F92068B0F1804F2CD11749184A83
:10278000194B08681060174A401C08601088401CEC
:1027900080B210801978491CC9B21970142901D36C
:1027A000012159701149B0F57A7F12D300231380AB
:1027B0004888401C80B248803C280AD34B808888D7
:1027C000401C80B288803C2803D38B80C888401C82
:1027D000C8801088088010BD00040040400100201F
:1027E0004C010020300100208857002028010020E3
:1027F0007047704770470000F8B5016804460868E4
:10280000CA684B6910F00F0F4FF0000559D003F064
:10281000010602F49077374365D0C10705D0D10592
:1028200003D5216C41F001012164410705D5D90789
:1028300003D0216C41F002012164810705D5D9073D
:1028400003D0216C41F004012164010707D502F097
:102850002001314303D0216C41F008012164216C37
:1028600000293AD0800604D5900602D5204601F012
:1028700050FE20684069216CC0F38010090700D425
:1028800060B3204601F01EFE20684069400621D555
:102890002068143050E8001F21F0400140E8001289
:1028A000002AF5D1A06BA8B16C490165A06BFEF7B9
:1028B00029FD002811D0A06B016D01B0BDE8F040EA
:1028C000084783060FD593060DD52046BDE8F8408E
:1028D00001F01FBE2046FFF78DFFF8BD2046FFF731
:1028E00089FF2564F8BD266B2023012E79D1C60609
:1028F00077D5D60675D508684868009048694006BF
:1029000040D5A16B086840680004000CEAD0A28D95
:102910008242E7D9E085C869B0F5807F2DD0206874
:102920000C3050E8001F21F4807140E80012002AAA
:10293000F5D12068143050E8001F21F0010140E873
:102940000012002AF5D12068143050E8001F21F051
:10295000400140E80012002AF5D184F83E3025639A
:1029600020680C3050E8001F21F0100140E80012F0
:10297000002AF5D1A06BFEF77CFCA08DE18D401AFA
:1029800081B229E0A08DE18D401A81B2E08D00284E
:10299000A8D00029A6D020680C3050E8002F22F4DF
:1029A000907240E80026002EF5D12068143050E8DF
:1029B000002F22F0010240E80026002EF5D184F815
:1029C0003E30256320680C3050E8002F22F01002C2
:1029D00040E80023002BF5D12046FFF70AFFF8BDA1
:1029E000FFE705062BD5150629D594F83D002128CB
:1029F000F5D1A068B0F5805F01D12069B0B1206A3F
:102A0000411C2162216800784860E08C401E00046F
:102A1000000CE084E3D12068C16821F08001C1602E
:102A20002068C16841F04001C160D8E7206A008891
:102A3000C0F308004860206A801C2062E5E7400679
:102A4000CDD55006CBD5CA68204622F04002CA60D8
:102A500084F83D3000F0FCF9C1E70000B5440008FF
:102A600070B5040004D094F83D00002510B106E0D4
:102A7000012070BD84F83C50204600F07BF82420F3
:102A800084F83D002068C16821F40051C1602046EF
:102A900001F0CCFD2068016921F4904101612068BA
:102AA000416921F02A0141612068C16841F4005167
:102AB000C1602564202084F83D0084F83E00002099
:102AC00070BD000070B50446214D0268214B2248BC
:102AD0004FF44061AA4207D11A6822F400221A601A
:102AE000FEF7A0FD34202DE01C4DAA420FD119683D
:102AF00021F4801119609114FEF794FD0421184807
:102B0000FEF790FDA06BFEF70FFC35201AE015488C
:102B1000824208D1186820F480201860BDE8704017
:102B20001148FEF77FBD114882420FD10948001DB0
:102B3000016821F0200101604FF484410C48FEF748
:102B400071FD4720BDE87040FEF7CEBF70BD0000AC
:102B5000004C004040380240000802400050004055
:102B6000000C0240004800400004024000140140F4
:102B7000001802402DE9F04786B006461421684649
:102B8000FDF7CAFB6549DFF890C130680025634B4B
:102B90001039022703240822DFF884A14FF440688B
:102BA00060451FD1186840F400201860186800F4D0
:102BB00000200590086840F0040008600868CDE92E
:102BC000025400F00400CDE90420CDE900876946F5
:102BD0005046FEF707FE002205213420FEF7A2FF33
:102BE00034204EE0DFF83CC160454FD1186840F416
:102BF00080101860186800F480100590086840F094
:102C000004000860086800F004000590086840F0BF
:102C10000800086008684FF0010900F008000590FE
:102C20004FF480508DE88102CDE903429046694619
:102C30005046FEF7D7FD04208DE88102CDE9034818
:102C400069463948FEF7CEFD394C38482060C0054A
:102C5000C4E901054014C4E9035065618001A56120
:102C6000C4E9075020466562FEF760FC08B1FDF735
:102C700095FDB463002205213520A663FEF752FFBF
:102C80003520FEF742FF06B0BDE8F087294EB0427E
:102C90001BD1186840F480201860186800F4802068
:102CA0000590086840F0020008600868CDF80080D0
:102CB00000F0020005900720CDE90340CDE9017541
:102CC00069461D48FEF78EFDDDE71C4B9842DAD1C0
:102CD0001248001D036843F020030360006800F001
:102CE00020000590086840F04000086008680295E0
:102CF00000F0400005904FF48440CDE90007CDE995
:102D0000034269460E48FEF76DFD0022052147206B
:102D1000FEF708FF4720B4E7004C0040403802406F
:102D20000008024000500040000C024010600240C9
:102D30000404002000480040000402400014014048
:102D40000018024090F83E30202B0ED159B152B1FC
:102D500090F83C30012B08D0012380F83C30002350
:102D6000036301F0E9BC01207047022070470000B6
:102D70002DE9F041064600682E490127DFF8B880AA
:102D800000252E4C884214D1012208F102012C4862
:102D9000FFF7D8FF98F8020030B1012806D00228CA
:102DA00006D0032804D004E0257302E0277300E076
:102DB00020732449306888421DD11F490122491CD3
:102DC0002148FFF7BFFF98F8010048B3012827D03A
:102DD000042825D0052823D0E571022823D0042813
:102DE00021D006281FD0A77001281FD002281DD08F
:102DF00003281BD0E57215493068884218D1257028
:102E00006570D8F810000D4B401CC8F81000BDE8E4
:102E1000F04114331A1F511D01F1430001F016B89F
:102E2000E7710028D9D1A5700028DDD1E772E2E76B
:102E3000BDE8F08100140140C80000208857002040
:102E4000C00300200050004038030020004C004028
:102E50007047FEE70022826590ED130A104B80ED6B
:102E6000070AB0F9141000EE101AB8EEC00AB0EE5E
:102E7000C00A10EE101A994210DCC16D491CC165E0
:102E800032290ADBC2659FED070A012180ED240A81
:102E900081650421016080ED070A7047C2657047B3
:102EA0000000F0410000000001F07CF8322002F048
:102EB00009FAF9E770B592B0002408260094B00131
:102EC00001940C940A902A4DCDE90D46288B10AB45
:102ED000010A8DF800108DF80100B5F8B4006A46BB
:102EE000010A8DF802108DF80300B5F85001010AAF
:102EF0008DF804108DF80500B5F8EC01010A8DF885
:102F000006108DF807000AA91A48FDF783FD08B1DD
:102F1000FDF744FC029403940694CDE907468DF82E
:102F2000244040F2FF100490B5F8880211AB010A6A
:102F30008DF808108DF80900B5F8240302AA010ADB
:102F40008DF80A108DF80B00B5F8C003010A8DF852
:102F50000C108DF80D00B5F85C04010A8DF80E1008
:102F60008DF80F0004A90348FDF754FD12B070BDA1
:102F7000D04D0020CC010020104810B50E49016052
:102F80000321416000214FF400228160C0E9031257
:102F90004FF4401242610176012242768176C17679
:102FA00001774177FDF7B3FF002803D0BDE810405B
:102FB000FDF7F4BB10BD000000640040CC01002010
:102FC000104810B50E4901600321416000214FF403
:102FD00000228160C0E903124FF440124261017681
:102FE000012242768176C17601774177FDF78FFF26
:102FF000002803D0BDE81040FDF7D0BB10BD000095
:1030000000680040F4010020094808B5016841F457
:10301000001101600068002200F4001000900521FA
:103020000B20FEF77FFDBDE808400B20FEF76DBDCD
:103030003038024010B51E4802F0ACF91D4C1C4A55
:103040000121E062183A042002F078F9A0621A4ADD
:1030500000211A4802F0D2F9174AE0602432002118
:10306000174802F0CBF9144A206148320021154874
:1030700002F0C4F9104A60616C320021124802F07B
:10308000BDF90B4AA061843A0021104802F0B6F95C
:10309000074AE061603A00210D4802F0AFF9044AA6
:1030A00020623C3A00210B4802F0A8F9606210BD92
:1030B000747300080000002060720008714000086E
:1030C0004D3D0008913700085D440008F561000897
:1030D000A92E0008295E00082DE9F04F87B01421C1
:1030E0006846FDF719F971480024016841F00401B0
:1030F0000160016801F004010591016841F02001BF
:103100000160016801F020010591016841F0800132
:103110000160016801F080010591016841F0010141
:103120000160016801F001010591016841F00201AF
:103130000160016801F002010591016841F0080198
:103140000160016801F008010591016841F040014A
:1031500001600068002200F04000059003215448FF
:10316000FEF72DFC0122C0215248FEF728FC4FF447
:10317000407B002259464F48FEF721FC0122D10333
:103180004B48FEF71CFC0122C8214B48FEF717FCF8
:103190004FF48079002249464748FEF710FC4FF073
:1031A000070ADFF818810125CDF800A069464046DE
:1031B000CDE90145FEF716FB40200226CDE90006C9
:1031C00002AA032782E8E00069464046FEF70AFBB0
:1031D000802000904FF48810CDE9010469464046F4
:1031E000FEF700FB0097CDE901546946304803948F
:1031F000FEF7F8FA0420CDE9000602AA694682E843
:10320000E0002B48FEF7EEFAC0204FF01108CDE9A0
:103210000008CDE9025669462648FEF7E3FACDF8E4
:1032200000B0CDE90154694622480394FEF7DAFA6A
:10323000CDE9009469461E480294FEF7D3FAE803EC
:10324000CDE90008CDE9025669461948FEF7CAFAE9
:103250006020CDE9000602AA694682E89004184879
:10326000FEF7C0FAC820CDE90008CDE9025669464C
:103270001148FEF7B7FACDF80090CDE90154694640
:103280000D480394FEF7AEFA68028DE831006946F6
:103290000948FEF7A7FA002205211720FEF742FC95
:1032A0001720FEF732FC07B0BDE8F08F303802403F
:1032B00000000240000802400004024000140240E6
:1032C000000C024010B588B01C216846FDF724F8B8
:1032D00015481449002401605321C0E9011444F643
:1032E0001F61C0E903148461FEF74EFF08B1FDF7CA
:1032F00055FA0D48FFF79FF908B1FDF74FFA602026
:10330000CDE9000402940022694607480494FFF7BF
:103310002CF908B1FDF742FA0348FFF7FBF808B0B3
:1033200010BD0000001C0040AC02002010B586B0AB
:1033300000241748009401940294039404944FF0DD
:103340008041059401605321C0E9011442F21071DB
:10335000C0E9031480218161FEF716FF08B1FDF773
:103360001DFA4FF48050009069460948FEF7B0FFFF
:1033700008B1FDF713FA049404A905480594FEF773
:10338000BBFE002801D0FDF709FA06B010BD000011
:103390001C0200201CB500240E4800940C49019426
:1033A00001605321C0E901144FF6FF718461C160CF
:1033B000FEF7EAFE08B1FDF7F1F900946946054809
:1033C0000194FEF799FE002801D0FDF7E7F91CBD36
:1033D00000140040640200200C4810B50A49016046
:1033E0004FF4E1314160002181600C22C160C0E9ED
:1033F00004128161C161FFF733FB002803D0BDE8EF
:103400001040FDF7CBB910BD004C0040F402002085
:103410000C4810B50A4901604FF4E13141600021C8
:1034200081600C22C160C0E904128161C161FFF7B3
:1034300017FB002803D0BDE81040FDF7AFB910BD61
:1034400000500040380300200C4810B50A490160C4
:103450004FF416514160002181600C22C160C0E927
:1034600004128161C161FFF7FBFA002803D0BDE8B7
:103470001040FDF793B910BD004800407C030020C8
:103480000C4810B50A4901604FF4E1314160002158
:1034900081600C22C160C0E904128161C161FFF743
:1034A000DFFA002803D0BDE81040FDF777B910BD62
:1034B00000140140C0030020B4EEE00AF1EE10FA5F
:1034C00001DDB0EE600AF1EE600AB4EEE00AF1EE62
:1034D00010FA01D2B0EE600A7047FEE72DE9F05F06
:1034E00000252DED028B9FEDA48ADFF890B22F46C8
:1034F000ABF50076A6F59C6AC5EBC50000EB451957
:103500000AEB8904207905287CD05AF82910091F74
:1035100008291BD2DFE801F00428D62C429D8179CE
:10352000032D07D0022D05D0062D03D0042D01D088
:10353000052D0CD1B4F9140000EE100A06EB85102D
:10354000F8EEC00A94ED070A00F0CAF9BAE0B4F93F
:10355000140000EE100AF8EEC00A94ED070A06EB1C
:10356000851000F043F9ADE0204601F021FAEEE7C6
:10357000B4F91A00D4ED240A00EE100A0BEB851002
:103580008046B8EEC00A00F0ABF9B4F9140000EEC2
:10359000100AF8EEC00A98ED0E0AE0E7B4F914003C
:1035A00000EE100A06EB85108046F8EEC00A94ED96
:1035B000190A00F01BF9B4F96C0000EE100AF8EEDD
:1035C000C00A98ED0E0AFFF777FF88ED0E0AB4F9EE
:1035D00014006B4900EE100AB8EEC00AB0EEC00A43
:1035E00010EE100A88420EDC606F401C60670A28EB
:1035F00068DB0120C4E91C0704224AF8292084ED75
:10360000078A5FE062E067675CE0278306EB85106E
:1036100084ED078A80ED0E8A54E02046FFF71AFCFD
:10362000B4F9140000EE100A06EB85108046F8EE9F
:10363000C00A94ED070A00F0D9F8B4F9540000EE7E
:10364000100AF8EEC00A98ED0E0AFFF735FF88ED74
:103650000E0A0BEB8510D4ED240A94ED1F0A804668
:1036600000F03EF9B4F9140000EE100A06EB8510E4
:10367000F8EEC00A98ED0E0A804600F0B7F8B4F9EB
:10368000840000EE100AF8EEC00A98ED0E0AFFF76B
:1036900013FF88ED0E0AB4F91400394900EE100A40
:1036A000B8EEC00AB0EEC00A10EE100A88422BDC59
:1036B000D4F88C00401CC4F88C00322802DB0120B6
:1036C000C4E922076D1C082DFFF616AF00210B245C
:1036D0005546C1EBC10000EB411255F82200062807
:1036E00009D005EB82000379012B10D0022B21D0E9
:1036F000032B35D0C782491C0829EADBBDEC028BBD
:10370000BDE8F05FFFF7D6BBC4F88C70DAE7B0F91C
:10371000163043F2C82C634528DC06EB8112DFED3E
:10372000190A92ED0E0A20EE200ADFED170A80EE4C
:10373000201A0FE0B0F9163042F2107C634515DC18
:1037400006EB81129FED110AD2ED0E0A60EE800A9F
:1037500080EE801ABDEEC10A10EE102A0283CAE77D
:10376000B0F9163040F63A0C634502DD45F82240C8
:10377000C1E70781BFE7000000000000B05400204F
:10378000000020410000804600409C4600401C464E
:10379000FFF7A4FE022001F095FDF9E70948012199
:1037A0000222017180F8A01080F83C1180F8D81135
:1037B00080F8741280F8101380F8AC2380F8481455
:1037C00070470000D04D0020FEE7B4EEE00AF1EEB5
:1037D00010FA01DDB0EE600AF1EE600AB4EEE00A24
:1037E000F1EE10FA01D2B0EE600A704730EE600AD6
:1037F00000B580ED000AD0ED010A70EE600AC0ED60
:10380000050AD0ED080A20EE800AD0ED0B0AFFF77A
:10381000DCFFD0ED070A90ED051AB0EE002A00EEAD
:10382000810AD0ED000A90ED021A70EE811A90ED37
:10383000011A41EE421A90ED092A02EE210AD0ED5A
:103840000E1A70EE211AC0ED0E1A90ED0C0AF4EE6D
:10385000C01AF1EE10FA01DD80ED0E0AD0ED0E1A5D
:10386000B1EE400AF4EEC01AF1EE10FA01D280ED8A
:103870000E0AF5EEC00A80ED021AF1EE10FAC0ED64
:10388000010A01DCF1EE600A90ED060AF4EEC00ACE
:10389000F1EE10FA03D29FED020A80ED0E0A00BD90
:1038A0000000000080ED062AC0ED0C1A00F11C019A
:1038B00081EC030AB1EE610A80ED0D0A80ED0B3A4E
:1038C0009FED060AC0ED0A2A80ED020A80ED010A8A
:1038D00080ED000A80ED0E0A704700000000000035
:1038E00000B590F83C1030EE600A012906D180ED59
:1038F000010A80ED020A002180F83C1080ED000AE8
:10390000D0ED040A30EE801A80ED041AD0ED010AE1
:1039100030EE600A80ED050AD0ED080A20EE810A3B
:10392000FFF753FF90ED071AD0ED000AD0ED051A0E
:1039300001EE200A90ED091A01EE210A80ED0E0A2F
:1039400090ED0C1AB4EEC10AF1EE10FA02DCB0EE02
:10395000401A01E080ED0E1A90ED0D0AB4EEC01A87
:10396000F1EE10FA01D280ED0E0AF5EEC00AC0EDBC
:10397000010AF1EE10FA01DCF1EE600A90ED060AA0
:10398000F4EEC00AF1EE10FA03D29FED020A80EDC8
:103990000E0A00BD0000000010B52DED088B9FED54
:1039A0007F8AB2EE042AB0EE483AF0EE482A9FED44
:1039B0007C9AF0EE491A9FED7B1ADFED7B8AB2EE1E
:1039C000080A7A48F0EE680AFFF76CFFB0EE483A52
:1039D000F0EE482AB2EE042AF0EE491A9FED741A6E
:1039E0007248F0EE680AB2EE080A4030FFF75AFF5C
:1039F000B0EE483AF0EE482AB2EE042A9FED6DAAE6
:103A0000F0EE4A1A9FED6C1A6848F0EE680AB3EEC1
:103A1000040A8030FFF746FFB0EE483ADFED672A30
:103A20009FED672AF0EE4A1AB1EE001ADFED659AB3
:103A30005E48B3EE0B0AF0EE690AC030FFF732FFC2
:103A4000B0EE483AF0EE482AB2EE042AF0EE4A1AF6
:103A5000DFED5DAAF0EE680AB2EE080AB0EE6A1A6F
:103A60005A48FFF71FFF5948B0EE483AF0EE482A8F
:103A7000B2EE042AF0EE4A1AB0EE6A1AF0EE680AC4
:103A8000B2EE080A4030FFF70DFF5048B0EE483A5A
:103A9000F0EE482AB2EE042AF0EE491AB0EE6A1AA5
:103AA000F0EE680AB3EE040A8030FFF7FBFE4748E9
:103AB000B0EE483AF0EE482AB2EE042AF0EE491A87
:103AC000B0EE6A1AF0EE680AB2EE080AC030FFF7EC
:103AD000E9FEDFED3F8A9FED3FAAB0EE483AF0EEF7
:103AE000682AB0EE4A2AF0EE681A9FED3B1AF0EE13
:103AF000690A9FED3A0A3A48FFF7D4FEDFED39AA8A
:103B00009FED39BA3648B0EE483AF0EE682AB0EE8A
:103B10004A2AF0EE681AB0EE6A1AF0EE690AB0EEC0
:103B20004B0A4030FFF7BEFE2D48B0EE483AF0EEAB
:103B3000682AB0EE4A2AF0EE681AB0EE6A1AF0EE81
:103B4000690AB0EE4B0A8030FFF7ACFE2448B0EEB5
:103B5000483AF0EE682AB0EE4A2AF0EE681AB0EE63
:103B60006A1AF0EE690AB0EE4B0AC030FFF79AFE0F
:103B7000B0EE483AF0EE682AB0EE4A2AF0EE491A62
:103B8000B0EE6A1AF0EE690ABDEC088BBDE8104091
:103B90009FED160A1648FFF785BE00000000FA43A5
:103BA00000401C46CDCCCC3DCDCCCC3EB05200200C
:103BB0006666064000007A46CDCC4C3E00007A4452
:103BC00000004842000000009A99993EB05300203E
:103BD00000C0DA45CDCC4C3D0AD7A33C9A99F141BF
:103BE000B05400200AD7233C333323416666A042F9
:103BF000B0550020FDEEC00A0721016010EE901ABA
:103C000009B200EE901A4183F8EEE00A70EEC00AA5
:103C1000F5EEC00AF1EE10FA00EE901AF8EEE00AA6
:103C200002DD30EEC00A01E030EE600A10EE100A4C
:103C3000B0F17E5F02DAB7EE000A70479FED010A2D
:103C40007047000000000000F0B5DFED3B1A90F86F
:103C50009420418AB0EE610A3AB10279012A0AD071
:103C6000022A0BD0032A0ED10BE0A0F896100121F6
:103C700080F89410F0BDB3EE030A04E09FED2F0A24
:103C800001E0B7EE000AB0F91430DFED2D0A9FED28
:103C90002D1A2D4A42F2E04440F6C21541F6FF7655
:103CA000002B1ED01FDDB0F896309942A1EB030324
:103CB00003D21C44AC420CD8334401EE903AF8EEE7
:103CC000E11A81EEA02A62EE010A80EE801A82EDEE
:103CD000001A92ED000AB5EEC00AF1EE10FA1FDCF0
:103CE00024E0C2ED001AB0F89630994221D9CF1ADB
:103CF000E41BAC420DD8741A234401EE903AF8EE5E
:103D0000E11A81EEA02A62EE010A80EE801A82EDAD
:103D1000001A92ED000AB5EEC00AF1EE10FA05D2D3
:103D2000D0ED240A30EE800A80ED240AA0F8961027
:103D3000F0BDCB1AE1E700000000000000001042D7
:103D400000F8FF450000B443F8000020124D134E68
:103D5000134C86B0A868401CA860322804DD68684F
:103D6000401C68600020A8602879F178B3787278E8
:103D7000CDE90410CDE902233178207BCDE90001A3
:103D8000A37AE27AE17894F8590000F023FD32201A
:103D900001F098FADEE7000000000020C4000020D7
:103DA0008857002010B5094C607848B1042002F013
:103DB0002DFA074984F85900002081F83C0010BD15
:103DC00014F8580F02F022FA607010BD88570020D6
:103DD000804D00201B4A10B511891B48A1F5617365
:103DE000C82B03D8042180F8581010BDA1F26C71C3
:103DF000C829FAD891890223A1F2B634642C02D8DA
:103E000080F858300AE0A1F2AA54642C06D9A1F235
:103E10009F71632902D2032180F858105189A1F2C1
:103E2000B632642A01D8002104E0A1F2AA52642A21
:103E300002D80121417510BDA1F29F716329FAD208
:103E4000437510BDF8570020885700202DE9F04732
:103E5000474C16460F46814602259A462570012298
:103E6000E11C4448FEF76EFFE0790021DFF808818D
:103E700011280BD00320207060790122B8B10128ED
:103E80001BD0022829D003286ED140E0E078AA2870
:103E900001D0A07168E0A079552865D1E17188F85A
:103EA0000000AA2088F80100617121715CE0E078CF
:103EB00088F80200A081627156E0B4F90800E27847
:103EC00008EB0003401CDA7000B22081B4F90C202A
:103ED000904249DB2181657146E0B4F90C00E1783C
:103EE00008EB0002C01CD170C1B2234801F0A2FF50
:103EF0002071B4F90C104144C978814203D01FA04D
:103F000001F0B2F830E06079401C60712CE0B4F947
:103F10000A0010B1012802D026E0628124E098F85E
:103F2000032089F8002098F80400114A3870618154
:103F30001832B4F90A0008EB00035B791354401CF3
:103F400000B260810428F4DB92ED000A112086EDB6
:103F5000000A98F809208AF800206171A171E071C7
:103F60002171A181218161810020BDE8F0870000DD
:103F7000C8000020F4020020C04D00205265636597
:103F8000697665642074656D5F6172726179206322
:103F90006865636B2073756D206572726F72210D99
:103FA0000A00000030B5284DDFED280A284C95EDB9
:103FB000040A30EEC00A84ED030ABCEEC00A10EE1B
:103FC000100AC1B2012000F005FB94ED030ABCEE1B
:103FD000C00A10EE100AC1B2032000F0FBFA287DDF
:103FE00000219FED1C0ADFED1C0A012801D078B1E9
:103FF00011E0E0881E2805D384ED020A3C2803D393
:10400000E18001E0C4ED020AE088401CE08002E0AB
:1040100084ED020AE18094ED020ABCEEC00A10EEC3
:10402000100AC1B2052000F0D5FA94ED020ABDE8ED
:10403000304030EEC00ABCEEC00A10EE100AC1B229
:10404000072000F0C7BA0000885700200000B442E3
:10405000AC010020000000000000344300EE101A04
:1040600004220260B8EEC00A80ED070A7047000023
:104070000D4C0E4D208900B10120618901B1012153
:104080000840A18901B101210840E18901B1012164
:10409000084204D06878012801D1FCF781FB022096
:1040A00001F010F9E6E70000F857002088570020DB
:1040B00010B54FF0E020006902F0BAFE012803D0ED
:1040C000BDE8104002F0ACBB10BD000030B593B0AD
:1040D00030216846FCF720F914210CA8FCF71CF9E4
:1040E0001D480025016841F080510160006800F022
:1040F000805011901948016841F4804101600068C6
:10410000022400F4804011900120009000040190EE
:104110008001CDE9064008AA0420A82182E8130006
:104120000B906846FDF73AFE08B172B6FEE70CA99F
:104130000F2081E831004FF4A0500F904FF48050D1
:10414000109005210CA8FDF71FFD002801D072B6C4
:10415000FEE713B030BD0000403802400070004060
:104160000248016841F470010160704788ED00E089
:104170000148FEF71CB900001C0200200148FEF7B0
:1041800016B9000064040020F0B50268254D264EE3
:10419000264FDFF89CC0274B4FF0804EA84209D035
:1041A000704507D0B04205D0B84203D0604501D079
:1041B000984203D122F070044A682243A8421BD0DF
:1041C000704519D0B04217D0B84215D0604513D011
:1041D000984211D0184CA0420ED0184CA0420BD0DF
:1041E000174CA04208D0174CA04205D0164CA04254
:1041F00002D0164CA04203D122F44074CA68224374
:104200004C6922F08002224302608A68C2620A6816
:104210008262A84201D0984201D10969016301215B
:104220004161F0BD00000140000400400008004072
:10423000000C0040000401400040014000440140E7
:104240000048014000180040001C004000200040D1
:1042500010B501F01F010123046A8B409C430462E6
:10426000036A8A401343036210BD10B5846842EAB2
:10427000032224F47F440A432243826010BD8268F3
:1042800022F070020A4342F007018160704700008B
:10429000F0B5026A22F001020262026A4368846990
:1042A000114E24F073050C68104F2C4322F00205C8
:1042B0008A682A43B04201D0B84205D122F00805ED
:1042C000CA682A4322F00402B04201D0B84205D1A4
:1042D0004D6923F440731D438B692B434360846114
:1042E000496841630262F0BD0000014000040140E2
:1042F000F0B5026A22F010020262026A4368846921
:104300000D6824F4E64444EA05248D6822F0200276
:1043100042EA05120F4D104EA84201D0B04206D11C
:10432000CF6822F0800242EA071222F04002A8423F
:1043300001D0B04207D14D6923F4406343EA8503BD
:104340008D6943EA85034360846149688163026241
:10435000F0BD00000000014000040140F0B5026A19
:1043600022F480720262026A4368C46922F4007215
:1043700024F073050C68124E2C438D6842EA052226
:104380000E4DA84201D0B04206D1CF6822F400629F
:1043900042EA072222F48062A84201D0B04207D14B
:1043A0004D6923F4405343EA05138D6943EA05132D
:1043B0004360C4614968C1630262F0BD000001400E
:1043C0000004014030B5026A22F480520262036A9E
:1043D0004268C4690D6824F4E64444EA05248D6803
:1043E00023F4005343EA0533084DA84202D0084D98
:1043F000A84204D14D6922F4804242EA851242600B
:10440000C46149680164036230BD000000000140DE
:104410000004014010B5046A036A23F0010303623B
:10442000836923F0F00343EA021324F00A020A43EB
:104430008361026210BD10B5036A23F010030362AA
:104440008469036A24F4704444EA023223F0A0032E
:1044500043EA01118261016210BD00000D4E0E4D54
:104460000027002495F90000204400EBC00006EB73
:10447000800000F053FA641C022CF3DB2878801CC7
:1044800040B22870062800DB2F70052000F01AFFCC
:10449000E7E70000B0560020000000200148FEF7CA
:1044A000ABB90000F40200200148FEF7A5B90000F6
:1044B0003803002010B5806B0021C185C184FEF750
:1044C00099F910BD01680C3151E8002F22F4907267
:1044D00041E80023002BF5D10168143151E8002F89
:1044E00022F0010241E80023002BF5D1016B0129E4
:1044F00009D101680C3151E8002F22F0100241E887
:104500000023002BF5D1202180F83E10002101630B
:10451000704708B590F83E10222901D0022008BD4E
:1045200081684FF48053994201D1026922B1826AB5
:1045300099421BD049B10AE00268816A5268C2F30D
:1045400008020A80816A891C08E0016971B101686A
:10455000496801F07F011170816A491C8162C18D37
:10456000491E0904090CC18503D019E00168496896
:10457000F1E70168CA6822F02002CA600168CA68CF
:1045800022F48072CA6001684A6922F001024A611D
:10459000202180F83E10016B012903D0FEF7E8FBD3
:1045A000002008BD0021016301680C3151E8002F93
:1045B00022F0100241E80023002BF5D101680A68BF
:1045C000D20602D50A6849680091818DFEF711F97B
:1045D000E6E70000642370B4B1FBF3F2B1FBF3F43F
:1045E00003FB14130A24B3FBF4F3B1FBF4F604FB4E
:1045F00016140C4D303230332A700A496B70303447
:10460000AC70143124250D70403048708A70CB7026
:104610000C7123204871034870BC0621024A1430F3
:1046200000F0A8B8AC0100200048004070B5044676
:1046300000680169E26821F4405111430161A168F9
:104640002069E26901436069104301432068C26840
:1046500049F20C639A430A43C26020684169A26927
:1046600021F440711143416131492068884202D0F0
:104670003049884202D1FDF751FB01E0FDF73EFBD6
:10468000E2690023192164253226B2F5004F6268E1
:1046900028D0A0FB0101930F9200FBF7F3FD014628
:1046A000B0FBF5F06FF01802504301EB800006EB11
:1046B0000010B0FBF5F000F0F002B1FBF5F002EBFA
:1046C0000012B1FBF5F06FF01803584301EB8000C6
:1046D00006EB0010B0FBF5F000F00F00216810446D
:1046E000886070BDA0FB010192185B41FBF7CAFD19
:1046F0000146B0FBF5F00201B1FBF5F06FF01803D5
:10470000584301EB800006EBC000B0FBF5F000F071
:10471000F80002EB4002B1FBF5F0584301EB8000DA
:1047200006EBC000B0FBF5F000F00700D6E7000094
:10473000001001400014014081628285C285002181
:104740000164222280F83E2080F83C10016921B1EA
:104750000168CA6842F48072CA6001684A6942F01E
:1047600001024A610068C16841F02001C160002077
:104770007047000030B5084D2B6907E01468240627
:10478000FCD510F8014B54605B1C2B618B42F5DBB0
:104790000020286130BD0000AC0100200148FEF778
:1047A0002BB80000C003002030B5084D6B6907E04E
:1047B00014682406FCD510F8014B54605B1C6B6137
:1047C0008B42F5DB0020686130BD0000C80000208E
:1047D000FEE700002DE9FF4F10ACDDE90DA994E8DC
:1047E00080410024DDF83CB0DFF868C000940194FB
:1047F00002946D4603941CF804602E55641C022C30
:10480000F9DB8DF804100A248DF808908DF8024029
:104810008DF805208DF809B08DF803008DF806306D
:104820008DF80A700D258DF807A08DF80B808DF896
:104830000CE02946684601F0FDFA8DF80D008DF870
:104840000E508DF80F40044A10216846FFF7ACFF68
:10485000BDE8FF8FA4730008004C004000B58BB08A
:1048600000200121CDE90601059000900190029001
:10487000039004900E20CDE9081069460E48FCF71D
:1048800037F908B1FBF78AFF0B48FCF7C0FC08B109
:10489000FBF784FF01210848FCF7AAF808B1FBF7F1
:1048A0007DFF02210448FCF7A3F8002801D0FBF7A4
:1048B00075FF0BB000BD0000CC01002000B58BB02F
:1048C0000F20059000200121CDE906010090019004
:1048D0000290039004900E20CDE9081069460E481E
:1048E000FCF706F908B1FBF759FF0B48FCF78FFC02
:1048F00008B1FBF753FF02210748FCF779F808B12C
:10490000FBF74CFF01210448FCF772F8002801D0A6
:10491000FBF744FF0BB000BDF401002010B50446C6
:10492000807820B994ED060A607800F067FBA078E3
:10493000012804D194ED070A607800F011FBA078FB
:10494000022804D194ED080A607800F023FBA078D7
:10495000032806D194ED050A6078BDE8104000F008
:1049600033BB10BD0D48042165220170427080F8F0
:104970002410662280F8252080F84810672180F8EE
:104980004910062180F86C10682280F86D2080F8AC
:104990009010692180F8911070470000B0560020F7
:1049A0000822026080ED190AA0F86C107047000020
:1049B00010B504462DED028B4FF07E51D0ED0F2A3D
:1049C00012EE900A9FED768A884218DCF5EEC02A36
:1049D000F1EE10FA13D394ED103A13EE100A884258
:1049E0000DDCB5EEC03AF1EE10FA08D394ED0D2AC5
:1049F00094ED0C1AB4EEC12AF1EE10FA04D284ED53
:104A0000078ABDEC028B10BD94ED0A0AD4ED0B0AA7
:104A1000B4EE600AF1EE10FA04D121EE020A84ED40
:104A2000070AEEE770EEC01AF5EEC01AF1EE10FAC2
:104A300001DC70EE601AB0EE004AF4EEC00A62EEDD
:104A4000A12A23EE213A71EEE23A62EE845A73EE25
:104A5000C34A62EE023A23EE043A41EE413A83EE53
:104A6000A55AD4ED0E3A63EEA33AB0EE636A02EEB5
:104A7000426AC6EE035AF1EE10FA06DD94ED243ACE
:104A8000B4EEC03AF1EE10FA23D3F4EEC00AF1EE20
:104A900010FA06D294ED243AB4EEC03AF1EE10FAD0
:104AA00017DCF4EEC00AF1EE10FA06DD94ED243ABC
:104AB000B4EEE03AF1EE10FA0BDCF4EEC00AF1EEDF
:104AC00010FA09D294ED243AB4EEE03AF1EE10FA7D
:104AD00002D284ED071A3CE094ED243A73EE400ACA
:104AE000F5EEC00AF1EE10FA01DC70EE430AF4EEC6
:104AF000E20AF1EE10FA08D221EE010A25EE041ABC
:104B000001EE200A10EE100A18E032EEA40AB4EE0C
:104B1000E00AF1EE10FA02DD84ED072A19E031EE29
:104B2000E00A25EE841AB5EEC00AF1EE10FA01DCB7
:104B300030EEE10A41EE403A13EE900AFBF7F7FB44
:104B400041EC100B00F086F851EC100BFBF702FC67
:104B5000E06194ED0B0AD4ED0A0AB4EEE00AF1EE3E
:104B600010FA05D2D4ED070AF1EE600AC4ED070A87
:104B7000D4ED240A0B4930EEC00AB0EEC00A10EEA4
:104B8000100A884203DA0120606484ED078A10EE7F
:104B9000100A88427FF745AF0020606431E70000CB
:104BA000000000000000404010B50B880022A3F177
:104BB000E604142C1DD95F34192C06D84178491C01
:104BC000417002708270C2701EE0A3F1AA04322C00
:104BD00006D88178491C817002704270C27018E05A
:104BE000022B20D88B78143BD72B02D9C978042903
:104BF00019D30178491C017042708270C9B2C27029
:104C0000052901D3032101714178052901D301212F
:104C100001718178052901D302210171C17805292B
:104C200000D3027110BD027042708270C178491CBD
:104C3000C170F3E70907090E002804DB00F1E0204A
:104C400080F80014704700F00F0000F1E02080F8B9
:104C5000141D704700B52DED048BB0EE409AF0EEB8
:104C6000609A83B051EC190BFBF743FC41EC180B35
:104C700018EE100A18EE901A8DED008B002818BF60
:104C80000120084320F00040C0F17F6000F1E040C7
:104C9000C00F14D019EE101A19EE900A8DED009B7A
:104CA000002918BF0121084320F00040C0F17F60B7
:104CB00000F1E040C00F04BF012000F017F8B0EE93
:104CC000480A03B0F0EE680ABDEC048B00BD02E0B8
:104CD00008C8121F08C1002AFAD170477047002087
:104CE00001E001C1121F002AFBD170470149086091
:104CF00070470000C8010020F0B53B483B49394FE0
:104D00000679C8883A7B401C85B2394800230124C3
:104D10000079012A01D0032A09D1DFF8D8C09CF814
:104D200004C0BCF1010F0BD0BCF1030F08D097F801
:104D300008C0BCF1010F04D0BCF1020F0BD013E08E
:104D40003C7202280FD0022E0DD0CD80B5F5967F93
:104D50000AD38C7008E0022805D0022E03D0CD8043
:104D6000642DF6D200E0CB80022A01D0032A03D1C1
:104D7000032805D0012803D0387A022802D004E0A5
:104D800002203872B87800B97C721B48BD7AB0F93D
:104D90002223B0F9860285B141F66414051960003A
:104DA000854202D9224482421AD88889401C00B226
:104DB00088810A2800DBBB72F0BD42F20F754619EC
:104DC0006800864202D82A44824207D94889401C9A
:104DD00000B248815028EFDBBC72F0BD4B81F0BDC2
:104DE0008B81F0BD885700206C010020FC00002062
:104DF0006701002062010020D04D002030B513680B
:104E00000D0E5C1C1460C55413680D0C5C1C146002
:104E1000C55413680D0A5C1C1460C55413685C1CEF
:104E20001460C15430BD0A681044921C00880A60A6
:104E300040BA00B2704710B50A6813181B885BBAF5
:104E40001C04831CC01CD35C105C44EA032318437D
:104E5000121D0A6010BD10B50A6813181B885BBAD2
:104E60001C04831CC01CD35C105C44EA032318435D
:104E7000121D0A6010BD000038B540680023C0F361
:104E80000F220D46C4B2B2EE042A0F2A2AD004DC47
:104E9000092A07D00E2A52D124E0102A2CD01B2A2E
:104EA0004DD143E0694628460093FFF7D4FF00EE5A
:104EB000900A69462846F8EE600AFFF7B4FF01EE53
:104EC000100A69462846F8EEC11A81EE821AFFF7E9
:104ED000AAFF01EE900ADFED1F2AB8EEE12AC2EE2A
:104EE000221A2CE0694628460093FFF7A4FF694682
:104EF0002846FFF7A0FF22E0694628460093FFF707
:104F000092FF69462846FFF78EFF69462846FFF75D
:104F10008AFF69462846FFF786FF00EE100ADFED9C
:104F20000E2AB8EEC02A82EE220A08E06946284618
:104F30000093FFF780FF69462846FFF774FF074894
:104F400004EBC40100EB8100A0F5636080EC040A6F
:104F500038BD000000007A4400004842B0560020EE
:104F6000DFED0B0A1CB520EE200A0446002000905D
:104F7000BDEEC00A6A4601A810EE101AFFF73EFF08
:104F8000009801A9C2B244F4807000F04BF81CBD37
:104F900000007A44DFED0B0A1CB520EE200A04461F
:104FA00000200090BDEEC00A6A4601A810EE101A5B
:104FB000FFF724FF009801A9C2B2204600F032F8A2
:104FC0001CBD00000050C347DFED0B0A1CB520EEEE
:104FD000200A044600200090BDEEC00A6A4601A8DF
:104FE00010EE101AFFF70AFF009801A9C2B244F4AC
:104FF000806000F017F81CBD002474491CB50446FD
:10500000BDEEC00A002000906A4610EE101A01A8FA
:10501000FFF7F4FE009801A9C2B244F4407000F01A
:1050200001F81CBD10B588B00C4608210491002180
:1050300003910421CDE9010102E00120FCF7E0FA2F
:105040000848FBF750FE0028F7D006AB2246694619
:105050000448FBF7DFFC002801D0FBF79FFB08B0FA
:1050600010BD0000F40100200148FDF72BBD000039
:10507000380300200D4A002311684B6211680B6849
:1050800043F001030B6011684A6A8242FCD3086A4C
:1050900041F21112104207D1086A9210104203D156
:1050A000086820F0010008607047000064020020DA
:1050B00002683748A2F20122082A0ED2DFE802F085
:1050C000040E192633404D5A0A8852BA42824A8841
:1050D00052BA8282898849BAC18270470A8852BA14
:1050E00020F8AE2F4A8852BA4280898849BA818016
:1050F00070470A8852BAA0F84A214A8852BAA0F8E2
:105100004C21898849BAA0F84E1170470A8852BAD2
:10511000A0F8E6214A8852BAA0F8E821898849BA5D
:10512000A0F8EA1170470A8852BAA0F882224A8889
:1051300052BAA0F88422898849BAA0F8861270472A
:105140000A8852BAA0F81E234A8852BAA0F820232F
:10515000898849BAA0F8221370470A8852BAA0F881
:10516000BA234A8852BAA0F8BC23898849BAA0F861
:10517000BE1370470A8852BAA0F856244A8852BA19
:10518000A0F85824898849BAA0F85A14704700003A
:10519000D04D002070470000FCF724FCFEF796FF7E
:1051A000FDF79AFFFDF730FFFDF7E6FEFDF708FF7C
:1051B000FEF7BCF8FEF72CF9FEF7ECF8FEF70CF959
:1051C000FEF780F8FEF75CF9FEF73EF9FFF746FBC5
:1051D000FFF774FB00211448FDF75CFAFFF7DAFFD4
:1051E000FEF7DAFBFEF7DAFAFFF7BCFB0F48FDF734
:1051F0002FF801F0CDFF01220D490E48FDF7A2FD69
:1052000001220D490D48FDF79DFD01220C490D4875
:10521000FDF798FD00F026FE00F062F8FDF70AFFAA
:1052200000F070F8FEE70000AC0200201C02002035
:10523000CA000020C0030020CB000020F4020020A0
:10524000C9000020380300202DE9F0410F462DED64
:10525000028B01461C4690460B9DDDED0A8A099E95
:105260009DED088A1348FEF7F9FE124839469C3036
:10527000FEF7F4FE41461048FEF7F0FE00EE104A3D
:105280000E4C0C48B8EEC00A31469C3884ED060A34
:10529000B8EEC80A84ED0F0AFEF7E0FEB8EEE80AA1
:1052A0002946074884ED180ABDEC028BBDE8F041A1
:1052B000FEF7D4BE4050002078510020B0560020A8
:1052C000084F002010B5EFF3058111B16FF0050410
:1052D00003E0002408B101F045F9204610BD0000AC
:1052E000EFF3058010B16FF00500704704480168C6
:1052F00011B14FF0FF30704701210160002070476D
:105300009400002010B5EFF3058010B16FF0050098
:1053100010BD08480168012902D04FF0FF3010BDD0
:10532000054A002182F8141D0221016001F082F972
:10533000002010BD940000200BE000E0F8B51446FA
:105340004FF00005EFF3058212BB08B301B3A4B11F
:10535000D4E9023263B1502A1AD32269C2B1676913
:1053600000FB01F6B74213D3009501F0A8FA07E05D
:1053700072B9226962B9626952B9002201F07EFAFB
:10538000050005D00CB1216800E0002101F0B6F85D
:105390002846F8BD70B505464FF00004EFF30580D0
:1053A00050BB0DB1686800E00020C10701D00126A4
:1053B00000E0002600071FD46DB1D5E9021021B12D
:1053C000502819D31EB1042002E020B114E00120BE
:1053D00001F047FA05E00EB1042000E0012001F0E1
:1053E00035FA040008D00DB1296800E0002101F071
:1053F00085F80EB144F00104204670BD2DE9FF414F
:105400000B464FF00005EFF30581039549BB40B310
:105410008026182100244AB3176807B13C469769D3
:1054200007B139464F1E382F02D21779FF0703D034
:10543000002004B0BDE8F081576907B1BE08D2F87A
:1054400008C0BCF1000F0DD0D5685C2D18D31269CF
:105450003AB137B18DE806103246214601F0BBFC67
:1054600003900DE0D7685FB912694AB903AACDE984
:105470000012B2B2214601F081FC012800D0039550
:105480000398D6E72DE9F041134E0F460446F56820
:105490003068001D00F034FF601C07D137B131685F
:1054A000BDE8F0410D48091D00F07ABF30682C447A
:1054B000AC424460316805D2B06BBDE8F041091DD3
:1054C00000F056BF706B091D00F052FFB06A8442B5
:1054D00000D2B462BDE8F081440000209C090020A5
:1054E0002DE9F041054600F067FF2D4EB068401CE5
:1054F000B06030682B4F10B1706930B32BE035606D
:10550000B068012827D1002404EB840007EB800059
:1055100000F020FF641C382CF6D3234800F01AFF5B
:105520002148143000F016FF1F48283000F012FF09
:105530001D483C3000F00EFF1B48503000F00AFFC1
:10554000194870631430B06305E03068E96AC06AD6
:10555000884200D83560706A401C70626864E86AEE
:105560003169884200D9306100EB800007EB800090
:10557000291D00F015FF00F03FFF706900280CD0D6
:105580003068E96AC06A884207D208494FF0805003
:105590000860BFF34F8FBFF36F8FBDE8F08100004D
:1055A00044000020EC0400204C09002004ED00E041
:1055B00038B500F001FF104C2068C8B90F4800F062
:1055C000C9FE0E48143000F0C5FE0C48E0601430EF
:1055D00020610A4B0020F03B009003F150021021A3
:1055E0000A2001F06CF9206010B105A100F086FFDF
:1055F000BDE8384000F000BF80000020A00A002075
:10560000546D72510000000030B4026C0B46002A49
:105610000BD0C1681144C1608468A14201D3016804
:10562000C16030BC1846FAF75EBE30BC70472DE949
:10563000F041856B174604460026026C82B1C7B163
:10564000E068FAF750FEE168206C091AE160226810
:10565000914202D2A168081AE060022F16D017E02A
:105660002068A8B9A06801F05BFC06460020A06095
:105670000EE06068FAF737FE216C606808446060ED
:10568000A168884204D32068606001E005B16D1E06
:105690006D1CA5633046BDE8F08110B5044690F856
:1056A000590058B101280CD002280FD0502080F3A7
:1056B0001188BFF34F8FBFF36F8FFEE7206B00F0B1
:1056C000AFFE2046BDE8104000F0AABE10BD0000AD
:1056D00010484FF47051420706D0C01D0D4920F00C
:1056E0000700411AC1F570510B4A00230144C2E979
:1056F00000030839183A21F0070111604B600B6074
:105700000B1AC0E9001393604FF0004053605061E2
:105710007047000080110020B0000020134E144D8F
:10572000A6F29C474FF08058DFF8489011E000F057
:1057300043FEF068C468201D00F0E2FDA868401E2A
:10574000A8606868401E686000F056FE2046FFF7BB
:10575000A4FF68680028EAD138680128F9D9C9F897
:105760000080BFF34F8FBFF36F8FF2E788090020EF
:105770004400002004ED00E0002807D000218160F3
:1057800001600B460A46C16001F010B9704770B560
:105790001D46049C49B12260C4E90F010121204645
:1057A00001F0C0F884F84C5070BD2460F4E72DE996
:1057B000F05F0E46DDE90B941746834691009A464A
:1057C0000A9DA522206BFAF7A0FD6FF00301206B64
:1057D00001EB8701084420F00707780707D0502025
:1057E00080F31188BFF34F8FBFF36F8FFEE74FF049
:1057F000000866B100202218315C82F83410315C58
:1058000011B1401C1028F6D384F8438001E084F8DD
:105810003480382D00D33725E562C4E91358201DA4
:1058200000F0A3FD04F1180000F09FFD2461C5F114
:1058300038006462A061C4F8548084F858805246ED
:105840005946384600F05CFA2060B9F1000F01D0EB
:10585000C9F80040BDE8F09F30B5114900E011469D
:105860000A688242FBD34B685C18844203D14068CB
:1058700018444860084643681C18944209D1084CF3
:10588000183C2468A24209D052681A4442600A684F
:1058900012680260814200D0086030BD0460F9E700
:1058A000B000002070B5002441600B4D00619142B2
:1058B00006D8D11A8269914206D2011D286907E0F3
:1058C0009A4203D2994201D3012403E0011DE86802
:1058D00000F04EFD204670BD8000002010B504464B
:1058E00000F06AFDA06B20B1002400F085FD204689
:1058F00010BD0124F9E7000030B587B03C4D6EE0E3
:105900000198002806DADDE90301029A9047019820
:10591000002864DB039C606910B1201D00F0F0FCDE
:1059200005A800F0D7F8024601980A2857D2DFE808
:1059300000F00505052D334A05052D3394F82800A0
:1059400040F0010084F828000298A1690346014450
:105950002046FFF7A7FF68B3216A2046884794F8DE
:10596000280040073BD5002000900298A169002341
:1059700042181946204601F0D9FBD8B9502080F3CF
:105980001188BFF34F8FBFF36F8FFEE714F8280F16
:1059900020F00100207022E094F8280040F001007F
:1059A00084F828000298A06128B181181346204687
:1059B000FFF778FF13E0502080F31188BFF34F8F7B
:1059C000BFF36F8FFEE794F82800810703D42046C9
:1059D00000F026FD03E020F0010084F828000022FA
:1059E00001A9286801F0F4F8002889D107B030BD7A
:1059F000800000202DE9FC410F46054600F05CFECA
:105A000001A800F067F80446019818B101F0FEFA09
:105A1000BDE8FC81254EAFB130690068D0B30027E6
:105A2000291B3A46306800F07BFD01F0EFFA0028B0
:105A3000EED11F494FF080500860BFF34F8FBFF386
:105A40006F8FE5E7A542EBD801F0E0FAF068274652
:105A5000C068C468201D00F053FC94F8280041077A
:105A600019D5A0692B4641193A462046FFF71AFF7F
:105A7000A8B100200346014600902A46204601F0C6
:105A800055FB60B9502080F31188BFF34F8FBFF3EF
:105A90006F8FFEE707E020F0010084F82800216AFC
:105AA00020468847B4E70127BAE7000080000020BD
:105AB00004ED00E00648416B096829B1416BC968F3
:105AC000C9684968816270474FF0FF31FAE700000A
:105AD0004400002070B5054601F0B8F9064E0446B2
